:020000040800F2
:10000000004601209D320008793200087B3200084A
:100010007D3200087F3200088132000800000000B5
:100020000000000000000000000000008332000813
:10003000853200080000000087320008893200087D
:10004000C9320008CD320008D1320008D53200088C
:10005000D9320008DD320008E1320008E53200083C
:10006000E9320008ED320008F1320008F5320008EC
:10007000F9320008FD32000801330008053300089A
:10008000093300080D330008113300081533000848
:10009000193300081D3300082133000825330008F8
:1000A000293300082D3300083133000835330008A8
:1000B000393300083D330008413300084533000858
:1000C000493300084D330008513300085533000808
:1000D000593300085D3300086133000865330008B8
:1000E000693300086D330008713300087533000868
:1000F000793300087D330008813300088533000818
:10010000893300088D3300089133000895330008C7
:10011000993300089D330008A1330008A533000877
:10012000A9330008AD330008B1330008B533000827
:10013000B9330008BD330008C1330008C5330008D7
:10014000C9330008CD330008D1330008D533000887
:10015000D9330008DD330008E1330008E533000837
:10016000E9330008ED330008F1330008F5330008E7
:10017000F9330008FD3300080134000800000000D6
:100180000534000809340008E000030305050406EF
:1001900006161CFEFB12FB1200025B04E40E152087
:1001A000060020C8022109422A78E207110122092B
:1001B00066ECCBC212CA0223244A26C86E329BCCFC
:1001C0002633916C249B4C0E07936826121D0E96C5
:1001D000B5C94C3413C946B2C90C002427EAA6C7D6
:1001E000520E9143C4B643643619D62173C81C32EB
:1001F00087D0E99039440E31DA468798590E9143F9
:100200008400251B4926C86676BA9CC463B9782C3D
:100210001ECBC563916842994822A2DB00261D6966
:1002200026C88E685A914DE4F2F1985894CC241364
:100230009284743B51469343CC00270963E87B6268
:10024000128A0028144532D84A36198D444B326D33
:10025000A3996C341B490029104432C842241A89DE
:1002600046FA6545B214022A100869DB4E2C3A485A
:100270004C96434C1493012B0CE728B94EAA74B842
:100280004945002C0762E87782122D0747A8B9E29A
:10029000012E0742287882002F13482AC85A752A4F
:1002A0005D95AE4AA7D255E9AA180030124926C872
:1002B0008E76A11CA9FCD7A26434399200310B457B
:1002C0002EC84EE960D3FF0332164926C88E76A1A8
:1002D0001CA945E2743C5D9E2E4FC7870301331471
:1002E00069E6C7E281BC3A164FA965BA5E6407D2D7
:1002F000350834174926C86E2C178FE5E265B948D2
:100300003452131D0E54B9260035154926C8E2C1D2
:10031000AEFD7488CCAA72756AD134399200361752
:100320004926C88E76A11CE9EAA7436466A4B216E2
:100330004D9323090037154A26C8E24354229C08EE
:10034000E773F9BA7CBB7CBB1400381A4926C88E07
:10035000762119A9D4A26434395D66462AB52819D4
:100360004D8E240039184926C88E762119A9AC452E
:10037000D3E410BACBA945C9687224013A0842A94E
:1003800078820E253B09626978820EA5043C0D66D1
:10039000EDC852365A120AB74A033D0BC8E8C8E204
:1003A000418E7438083E0F66EDC8222A1D2ECA26DB
:1003B000A399300A3F146926C88E769A1CA972F157
:1003C00094BA2CD71DA35C064032D1E636F70E391D
:1003D0008C2D363A690E9ACC4CA6534D34A3A9D134
:1003E000D4686A34359A1A4D8D36A1980E941985C1
:1003F000364799C3EDE003FD3002411C4A26C8523E
:100400000E19F35C344E8422A148281A1D428790AD
:10041000502414098D0342184926C8C27688C8267C
:10042000C22AE38172924D84558EB543C5064312AC
:100430004926C8AA76A11CA974FDB5689ADC4A00B1
:1004400044104926C8E27488C8ACFC3F1E28270027
:1004500045204A26C8E2431C2287C82172881C22F4
:1004600087DC6E72881C2287C82172881C7238183B
:1004700046224A26C8E2431C2287C82172881C22D1
:1004800087DC6E72881C2287C82172881C2287C86C
:10049000210047134926C8AA76A11CE9BAB9722DD2
:1004A0005A2887D001480D4926C842CA5F0F0F510C
:1004B000FE2A4908422A78E20F014A0E4926C85E00
:1004C000FF776AD1343992004B1D4926C842D8368D
:1004D000118D4423C9AC58A4528B45C94C34128D9C
:1004E00064136171004C244A26C8420E9143E41003
:1004F00039440E9143E41039440E9143E4103944D9
:100500000E9143E41039E470304D194926C8625801
:10051000B39D2E87C8E16132A14C4812528814A2C3
:10052000F22A4E154926C862D868B39D4E1411654B
:10053000429290DE1CBB0A4F114926C88E76A11C40
:10054000A9FCD7A269722B0150124926C8C276882D
:10055000C88C558E07CA49AEDF0151114926C88E95
:1005600076A11CA9FCD7A26972081D521A4926C897
:10057000C27688C88C558E07CA493492896413D9CB
:10058000442811B60A53154926C8AA76A11CA9E524
:100590003999BE9D5A344D8E2400540C4926B8E238
:1005A0008128D7FF6F00550E4926C842CAFFD7A23F
:1005B00069722B01561B4A26C86238114E8422A14B
:1005C00068265A13CD44429170226D25B36F0357AC
:1005D000224A26C862E838118A8422A14828922833
:1005E0004994244A87D02174081D4287D021B40B36
:1005F00000581D4A26C84638118A66A235917022D5
:10060000B492B91A2742916CB426124A860359193A
:100610004A26C86238118A36094542C9B05A26CFDF
:10062000E7F275F9BA1C005A164926B8E2813C1661
:100630008FC563F1EA782C1E8BC78703015B0B46DD
:100640002EC8E251FF8F87025C15492AC8423E57E7
:100650009FCBC773F9782E9FCBC773F9005D0C450C
:100660002EC8E230D3FFDBA1005E0966ECCC8672B7
:1006700008095F084CA0C7E2C300600984B0CC42FF
:10068000269209611BCB25D88E6C1CCD8432A11C0F
:1006900024BC1D423491542415311D462501621598
:1006A0006926C842AE17D221423952F95AB41C2ADF
:1006B0001212006311C925C88E76A11CA9745D8B26
:1006C00016CAAD0464136926C85E6F96436472A4AB
:1006D000F2B568A11C42076514C925C88E769A1C1C
:1006E000A9D4C3435C3E8CB0DC4A0066136926C8BB
:1006F0009268B38964728D87C82128D71F01671C4F
:1007000069E6C6CE72884C8E546A5132A19C6CF256
:10071000F1E550A4D6268790050068106926C842E6
:10072000AE17D221423952F9AF02690D642A7842DC
:1007300024878BF49F96046A1007EFD6561DABFEF4
:10074000BFD22A131305006B176926C842AEC7B67D
:10075000894C241AA949666EA7916845581C6C0CEF
:1007600065267842A6FFDF66A4016D20D0253843B8
:1007700042231D0E118AE538A44AA952AA942AA53B
:100780004AA952AA942AA54AA90A6E0FC925C842A5
:10079000423A4428472AFF55006F11C925C88E7672
:1007A0009A1CA97C2D5A28B71200701569E6C6421A
:1007B000423A4428472A5F8BA603454292EB0E71CA
:1007C0001469E6C6CE72884C8E54BE1625A3C92184
:1007D00066D703720EC72598427238444A54FD2BDF
:1007E000007313C825B88A6619D988E562B948B478
:1007F0004C6C2400740F66268846A8DBA122D41F07
:1008000087B401750FC925C842CA7F2D4A46934354
:10081000CC00761BCA25C86238114E8422A16826F6
:100820005A13CD4442917022B456C934007729D16D
:10083000253863B8225C110E45429A6854138D4ADC
:100840003391443413494442916422B44C84A62A1F
:10085000AD4A23D368007817C929C842581489467D
:100860008A45F22AB52692892642897000791C6A47
:10087000E6C66636928D64DA26B3C95032944825AE
:10088000D266F27CA36466A5027A10CA25C8E2C1CA
:100890003E5E1F6F1FAF1F0E067B12A7AEC77246CC
:1008A000A20DA5BAD1A4AB7A9D12077C08E2B6C707
:1008B000E21F087D11A7AEC742BAAAD76DA4A15402
:1008C000C7196D087E0B6A64C926283A880E027F14
:1008D000060020C80280060020C80281060020C849
:1008E0000282060020C80283060020C80284060097
:1008F00020C80285060020C80286060020C802879C
:10090000060020C80288060020C80289060020C808
:10091000028A060020C8028B060020C8028C06004E
:1009200020C8028D060020C8028E060020C8028F53
:10093000060020C80290060020C80291060020C8C8
:100940000292060020C80293060020C80294060006
:1009500020C80295060020C80296060020C802970B
:10096000060020C80298060020C80299060020C888
:10097000029A060020C8029B060020C8029C0600BE
:1009800020C8029D060020C8029E060020C8029FC3
:10099000060020C802A0060020C802A1060020C848
:1009A00002A2060020C802A3146926B88E685A1154
:1009B0004AE43A9F6E729DC7870301A4060020C8CF
:1009C00002A5060020C802A6060020C802A723D35D
:1009D0002568773C17CFC77362B5669C8C26B391A8
:1009E0004D342B1EA946AA917ABA944C576209003D
:1009F000A8060020C802A92D512638F70E3950D973
:100A0000E6A091AC26199D2CA3514928A3436474F8
:100A1000888C2494552823B7C98836A2D32CE68322
:100A20001C5606AA060020C802AB122925B94E168C
:100A30009A6C118DD426B3D1923016AC060020C822
:100A400002AD060020C802AE060020C802AF0600B4
:100A500020C802B00B84687C461212452400B106FF
:100A60000020C802B2060020C802B3060020C80257
:100A7000B4060020C802B5104926C742CA7F2D9A85
:100A80000E97435C3B00B6060020C802B706002064
:100A9000C802B8060020C802B9060020C802BA067B
:100AA0000020C802BB152925B922269BCC26B3916C
:100AB0004C249A9826A2512C08BC060020C802BDDE
:100AC000060020C802BE060020C802BF060020C8DB
:100AD00002C023EA26C84E0E9283E410399A1C32D3
:100AE000E6B9689C0845429150343A840E21A148E9
:100AF00028121A07C11FEA26C876AE1D550E19F333
:100B00005C344E8422A148281A1D42879050241438
:100B1000098D03C222EA26C8524E9608457224392E
:100B200064CC73D138118A8422A16874081D4242B2
:100B3000915024340EC3060020C802C41EC926C822
:100B40004A2294C8318D97A9C446895032938C4665
:100B5000A291E821223316A902C5060020C802C6C8
:100B60002C501AC8FA303E8CE9C03A5022074AE4A9
:100B7000B0891C26928346C7D1512687CCE4904386
:100B80001C72880FE552F1F4403D04C7060020C8EE
:100B900002C828EA26C84E0E9943E42039F8F0101E
:100BA00087C82172881C2287C821B79B1C2287C84E
:100BB0002172881C22871C0E06C926EA26C8562EDA
:100BC00087C8E528878738440E9143E41039440EDE
:100BD000B9DDE41039440E9143E41039E47030CAB1
:100BE00027EA26C8524E95086572E8E1210E914326
:100BF000E41039440E91436E3739440E9143E410AA
:100C000039440E391C0CCB26CA26C84A2295C83155
:100C10001D1EE21039440E9143E41039E4769343EB
:100C2000E41039440E9143E490C3C100CC0DE4328A
:100C3000C842A61615E9FF5F00CD0DE532C86AA4CB
:100C40001D24D3FF3F01CE10E72EC84A4893A8C900
:100C50004152FDFF1B00CF0EC532C84242910365D1
:100C6000FAFF2700D0060020C802D1060020C802E3
:100C7000D216E926C84E3E9743E470DA8572A4F294
:100C80005F8BA6C9AD04D316E926C8562C17CB91A5
:100C90006817CA91CA7F2D9A26B71200D417E92681
:100CA000C8524C94C8D4C1B40BE548E5BF164D9367
:100CB0005B0900D5114926C88E76A11CA9FCD7A2D4
:100CC00069722B01D616C926C84A2294C831D12E82
:100CD000942395FF5A344D6E2500D7060020C80294
:100CE000D8060020C802D913E926C84E3E9743E42F
:100CF0004029FF5F8BA6C9AD04DA13E926C8562C3C
:100D000017CBC152FEBF164D935B0900DB14E926D9
:100D1000C8524C94C8D46152FEBF164D935B090073
:100D2000DC13C926C84A2294C891A5FC7F2D9A26B7
:100D3000B71200DD060020C802DE060020C802DF70
:100D4000196926C88A685A114A8412D94444115133
:100D50006456FE66A2884600E0226B26D84E0E93AB
:100D600083E4303922D9389A0965423948783B847E
:100D70006822A9482A623A8C4A02E1226B26D85698
:100D80000E9143E4A0383AD9389A09654239487837
:100D90003B846822A9482A623A8C4A02E2216B26E7
:100DA000D86E4E9748657234B2713413CA8472900B
:100DB000F07608D144529154C474189504E30600A7
:100DC00020C802E4204B26D84A2296C871211B472E
:100DD00033A14C2807096F87104D241549454C87CE
:100DE000514900E5060020C802E620CE25188BED0B
:100DF0005019916C33B1502C141D2A87834C2C143C
:100E00000B85A5CAE450239100E7142966C78E76A6
:100E1000A11CA9745D8B9209E54896B201E81A6994
:100E200026C84E0E91CB217238ED423952A98787E0
:100E3000B87C1861B99500E9186926C872AC1E47DC
:100E4000A39D26472AF5F010970F232CB71200EA2E
:100E5000196926C86E4C94C8D4C1B4D3E448A51E01
:100E60001EE2F26184E55602EB194926C84A229433
:100E7000C831D14E9323957A7888CB8711965B0938
:100E800000EC0D65267862265496E9BFAD09ED0E9B
:100E9000642A784A22928845FA4F4B02EE11672263
:100EA000786A465291C94152FDD7550900EF0E6547
:100EB000267842429123C9F4DFD604F0060020C808
:100EC00002F1060020C802F217E926C86A2E87C878
:100ED000E5F889769A1CA97C2D5A28B71200F314DC
:100EE0006926C856AC1E47A39D26472A5F8B16CAA3
:100EF000AD04F4166926C86E4C94C8D4C1B4D3E4CA
:100F000048E56BD142B99500F511C925C88E769A8E
:100F10001CA97C2D5A28B71200F6154926C84A226A
:100F200094C831D14E932395AF450BE55602F70E89
:100F300047A9B84A2A473BDC91A43200F81A69262F
:100F4000C8CE72884C6E354F27094942115144274B
:100F50009B9B64427902F9146926C84E0E91CB21FD
:100F600072A094FF5A344D0EA103FA116926C8727B
:100F7000AC1E874BF9AF45D3E4103AFB136926C882
:100F80006E4C94C8D46152FE6BD13439840EFC127D
:100F90004926C84A2294C891A5FCD7A26972081DA7
:100FA000FD060020C802FE060020C802FF06002041
:100FB000C80200000004FFFF0000000070B4DFF86A
:100FC0005C17DFF85C570A68DFF858470020BBEE73
:100FD000040ADFED220A9FED221A43F239030226AA
:100FE0002E7404FB0232C2F30E4601EE906AFBEE51
:100FF000E81A687461EE811A04FB0232C5ED001A2A
:10100000C2F30E4601EE906AFBEEE81A04FB0232D0
:1010100061EE811AC2F30E46C5ED011A02EE106AA6
:10102000BBEEE82AF0EE401A04FB023242EE201A30
:10103000C2F30E46C5ED021A02EE106ABBEEE82AB4
:10104000F0EE401A42EE201AC5ED031A401C14358A
:10105000B0F57A7FC3DB0A6070BC704700002042A5
:1010600000001E432DE9F04F81B0DFF8B4462DEDAE
:101070000A8B86B000F072FB00F0FEFA00F08AFBEB
:1010800000F0CAFB00F040FC44F62060DFF8983620
:10109000DFF89826DFF89816204400F05DFC44F64F
:1010A0002061601800F0C7FC44F620600021204455
:1010B00000F0C8FC44F62061601800F0DFFC44F644
:1010C0002060B421204400F0CBFC44F620600021D5
:1010D000204400F031FD44F62060DFF8581620442B
:1010E00000F05CFD44F620600221204400F0E6FDA3
:1010F00044F620600121204400F01EFD44F62060EB
:101100000021204400F0A5FC44F62061601800F0A6
:10111000DDFD4020DFF820260090019244F620609B
:10112000802328221421204400F0C6FE44F62061CA
:10113000601800F0FCFD4FF4FA7000F0E5FEFFF7D8
:101140003DFFDFF8F81508680390B7EE008ADFED81
:101150004E8A9FED4E9ADFED4E9A9FED4EAAA04625
:1011600038E0019809F10109761CB9F1010F40F34B
:10117000638100997F1C491C0129009140F358812B
:10118000401C1434B0F57A7FC0F22B81444644F6FB
:1011900020602618304600F099FD27464FF47A75F6
:1011A000387C00900346D7ED010A97ED000AFDEE6A
:1011B000E00A10EE901ABDEEC00A8AB210EE100AD4
:1011C00081B2304600F0B6FE14376D1EE8D13046CD
:1011D00000F0ADFDDFF8640500680399411A00EEE8
:1011E000901AF8EE600A9FED2C0A80EE801AB5EE98
:1011F000401AF1EE10FAEDD9B4EE4A1AF1EE10FAF7
:10120000A8BFB0EE691A03904FEA04014FF47A7058
:10121000D1ED021A91ED000A01EE810A81ED000A7A
:10122000D1ED030A91ED010A00EE810A81ED010A78
:1012300091ED000AB5EE400AF1EE10FA2ED40A7CC8
:1012400091ED000A00EE902AF8EE600A30EE800A76
:10125000B4EE490AF1EE10FA80F22C8091ED010A09
:10126000B5EE400AF1EE10FA00F13C8000EE902A53
:10127000F8EE600A91ED010A30EE800AB4EE490AF8
:10128000F1EE10FA50DB39E0000020C301002043EA
:10129000CDCC4C3DCECC4C3D00007A44B1EE400A62
:1012A00081ED000A91ED020AB1EE400A81ED020AD9
:1012B000C5E700BF00EE902A91ED000AF8EE600A43
:1012C00070EE800A70EEA80AF8EE001A00EEA10A8D
:1012D00081ED000A91ED020AB1EE400A81ED020AA9
:1012E000BCE700BFF1EE400A91ED030AC1ED010A2F
:1012F000B1EE400A81ED030AB8E700BF01EE902A83
:10130000D1ED010AF8EE611A71EEA01A71EEA81A79
:10131000B8EE000A41EE800A91ED030AC1ED010A20
:10132000B1EE400A81ED030A1431401E7FF470AF24
:10133000DFF80C3411210026186003F1CC020420E0
:101340001660C2F8CC60C2F89861C2F86462401EB0
:1013500002F54C72F4D1491E03F68C53ECD1A4462D
:1013600040F68C505FF0CC01DFF8D4239CED000AEE
:101370009CED011AF2EE040AC0EE200AFDEEE00A2E
:10138000B2EE040A10EE903A81EE000ABDEEC00AF9
:10139000002B10EE107A0ED4102B0EDC002F0ED482
:1013A000102F0EDC4343D5184F4355F807E0BEF12C
:1013B000320F0FDA07E00023F0E71023EEE70027F3
:1013C000F0E71027EEE7EB1903EB8E035E60EB59B5
:1013D0005B1CEB51761CB6F57A7F0CF1140CC5DB67
:1013E000002094ED000A94ED011AF2EE040AC0EE1A
:1013F000200AB2EE040AFDEEE00A81EE000A10EEC9
:10140000907ABDEEC00A10EE102A002F48BF0027C8
:1014100002D4102FC8BF1027002A48BF002202D4D0
:10142000102AC8BF10224FF0FF3300937F1E049292
:10143000049E4FF0FF39761E112F38BF112EBFF4D6
:1014400091AE40F68C52BE4B7A43CC211A44714384
:1014500011440D1D0968029100294FF0000A7FF721
:1014600081AE019028680199814207DB02980AF158
:10147000010A2D1D8245F5DB73E600BF00EB8001FC
:10148000207C08EB810B00EE900A94ED000ADBED66
:10149000001AF8EE600A70EE800AF4EE601AF1EEBF
:1014A00010FAE3DA9BF81000DBED000A01EE100AF7
:1014B000B8EE411A71EE200AB4EE600AF1EE10FAAD
:1014C000D4DA207C94ED010ADBED010A01EE100A6A
:1014D000B8EE411A31EE001AF4EE410AF1EE10FABC
:1014E000C4DA9BF8100001EE100AB8EE411A71EE52
:1014F000200AB4EE600AF1EE10FAB7DA207C94ED1F
:10150000001A9BED012A00EE100ABBEE670A30EECE
:10151000011A00EE900AFBEE670A94ED010A9BF8AF
:10152000100030EE800A00EE900AFBEE670A70EEC3
:10153000A11A00EE900AFBEE670A71EE61BA70EE36
:10154000820AB0EE6BCA70EE60AAB5EE40CAB0EE89
:101550006ABAF1EE10FA04BFB5EE40BAF1EE10FA35
:1015600000F05E802CEE0C0A0BEE0B0A00F004FD7E
:10157000F0EE400AF5EE400AF1EE10FA3FF476AFD5
:101580008CEE200A94ED021AD4ED031ACBEE200A59
:1015900021EE001A01EEA01ADBED022A9BED032AD0
:1015A00094ED033A62EE801A42EE201A31EEC12A1F
:1015B000D4ED022A42EE002A02EE203AC4ED022ABD
:1015C00084ED033A31EE611ADBED021A9BED032A3A
:1015D00041EE001A01EE202ACBED021A8BED032A10
:1015E000207C9BF81010091801EE101A01469BF898
:1015F0001000BAEEEF1AF0EEEB1A31EE611A401855
:1016000001EE900AFAEEEF1AB0EEEA2A71EEC21A73
:10161000F4EE411AF1EE10FA48BFF0EE411A03E081
:10162000B0EE48CA9EE700BFF5EE401AF1EE10FAA0
:101630007FF71CAFB6EE001A21EE811A20EE010AE8
:10164000D4ED001A70EE211AC4ED001A60EE810A82
:1016500094ED012A30EE822A84ED012A9BED001AD6
:1016600031EE401A9BED010A8BED001A30EE600A54
:101670008BED010AFAE6000030B5324A81B0D2F8AB
:101680000004052363F30200C2F80004D2F800044A
:1016900000F007000528F9D12B4C216841F4804166
:1016A0002160106840F48030106010688003FCD521
:1016B00055682648264905400D435560556825F470
:1016C00040355560106840F08070106010688001EF
:1016D000FCD560684004FCD5916821F0F001916070
:1016E0000421906863F38C209060906861F34F3020
:1016F00090600220916860F301019160906800F0B1
:101700000C000828FAD1134800F046FC0F2000F026
:1017100049FC08B172B6FEE701B030BD0000002000
:1017200068E600206D4EC641512F0008CF2F0008FB
:10173000BC32000888010008F027000808000020DB
:101740001C00002000380240007000400080BFFFF5
:10175000042A4000007A030A72B6FEE700B50C487E
:1017600081B0016841F400710160026842F4806256
:101770000260016841F480710160032000F036FCD2
:101780000F2000F00FFC00F07FFC002001B000BD36
:10179000003C024000B587B01821002201A800F0EB
:1017A0008FFC1B48026842F080020260016801F071
:1017B00080010091009B026842F010020260016803
:1017C00001F010010091009A036843F008030360E0
:1017D0000123016801F008010091009A016841F0BD
:1017E000010101604FF08062006800F0010000908C
:1017F0004FF48061009807488261019100220293B2
:1018000003920492059201A900F08EFC07B000BD7E
:10181000303802400000024000B587B01C21002291
:10182000684600F04DFC33484FF0204101F58272CC
:10183000426001600022C2604261C2614262C262D3
:1018400002634263826342640021816001618161BD
:10185000016201230B22019302924FF480518162B5
:101860000F231022039304920221009111230022DE
:1018700005930692694600F0E1FC08B1FFF76CFFA2
:1018800007B000BD00B587B01421002201A800F008
:1018900017FC1949086850BB01220A6000904FF4F8
:1018A000F0621648016841F0010101600221006800
:1018B00000F001000090009B11480192029100226B
:1018C0000392032104910C22059201A900F0E4FC8B
:1018D00002210291002203924CF6B30003210190F1
:1018E00004910C22059201A9064800F0D5FC07B02E
:1018F00000BD00009C410120F44101203838024025
:1019000000100240000C02401048114900B501606F
:1019100081B000F0B7FD20B101B05DF804EBFFF736
:101920001BBF01B000BD81B0026809498A420BD1DA
:10193000002000900748016841F480510160006870
:1019400000F480500090009801B07047EC410120F5
:10195000003002403038024030B583B00C4600936E
:1019600005461346094ADFF8281000F0B3FD01A828
:1019700000F0C4FD9DF80420DFF818300094014603
:10198000284600F0D1FD03B030BD0000DD2E000878
:10199000512D0008453000080160897C80F8221034
:1019A000704730B5044681B06569002300222821C4
:1019B000A847E5680023002214212046A8470122F9
:1019C0004B21204600F06BFE206802792921204639
:1019D00000F065FE00224B21204600F060FE2068EA
:1019E00002792921204600F05AFE01224B2120468F
:1019F00000F055FE20684279204601B0BDE8304035
:101A0000292100F04CBE10B582B08DF805108DF87C
:101A100006208DF804306B460499009101228468F9
:101A20000F21A04702B010BD10B58468002300222A
:101A30000921A04710BD10B58468002300220A21A7
:101A4000A04710BD10B50A46846800230B21A047AB
:101A500010BD10B50A46846800230D21A04710BDB3
:101A600010B50A46846800230E21A04710BD10B5AA
:101A70008468002300221021A04710BD10B5044641
:101A800000F06BF9204600F075F90028FAD12046E5
:101A9000BDE81040002100F053B90EE00268436831
:101AA000024408305FEAC37C44BF4B445B1E52F8DB
:101AB00004CB43F804CB091FF9D150F8041B0029CB
:101AC000ECD170470A7802704A7842708A78827046
:101AD000CA78C2700A7902714A7942718A79827130
:101AE000CA79C2710A7A027291F90930437291F986
:101AF0000A20827291F90B30C37291F90C200273A3
:101B000091F90D30437391F90E20827391F90F30E2
:101B1000C37391F9102002744B7C8A7C02EB032280
:101B20004282CB7C0A7D02EB032282824B7D897D3F
:101B300001EB0321C182704780F86D1070470000EF
:101B4000816D002900D1704750B490F9812090F93F
:101B5000823090F88D1080F88E20A1B1012907D134
:101B600090F983109142A8BF0A4690F9841007E0CB
:101B700090F9801090F97E400E19B242B8BF0A1950
:101B80009942D8BF0B4680F88E2080F88F3050BC29
:101B90007047002070470949C165704710B5044679
:101BA000A26D8A4208D0A16504F17400FFF78AFF94
:101BB0002046BDE81040C3E710BD0000931B00089D
:101BC00030B581B09DF810500095C48FC56A121BC6
:101BD00092B2A84701B030BDF0B581B090F88C400A
:101BE000002C40D01C003ED0069D022B08DB022DAD
:101BF00002D1C91A491C03E0032D04BFD21A521C9A
:101C000015F0010531D1B0F84C6094B2B4422AD33A
:101C1000B0F84E4096B2A64225D25B181FFA83FC5C
:101C20008FB2B0F84A40B0F84860BC4504D2A74231
:101C300038BF631E03D331468FB2A74213D29FB27F
:101C4000BE4210D289B28E4238BF0E469BB29C4231
:101C500088BF1C4631460095A41B056BA3B2AC6837
:101C600092B289B2A04701B0F0BDB0F848608CB222
:101C7000B442F8D3B0F84A408EB2A642F3D29B18D1
:101C80001FFA83FC97B2B0F84E40B0F84C60BC45E8
:101C900004D2A74238BF631E03D3324697B2A7428D
:101CA000E1D29FB2BE42DED292B2964238BF164611
:101CB0009BB29C4288BF1C463246CCE70A460329A9
:101CC000A8BF012280F8922070470000016890F8B8
:101CD0003820097C406B12FB01F1C90000F0E4BC24
:101CE0002DE9F041044682B0206894F8388094F8D9
:101CF0003970467C00252068037CE9B29E46606B03
:101D000011FB0EFE4FEACE4100EB11420092002182
:101D1000FAB22046FFF777FE6D1C7F1CE8B2404503
:101D2000BCBFF8B2B042E6DB02B0BDE8F08110B54E
:101D30000446FFF7D5FF2046BDE81040FFF797BEE9
:101D400010B50446226B84F8391011688847226B5D
:101D500051682046BDE81040084710B5044694F885
:101D6000930010B12046FFF7B1FF2046BDE81040B8
:101D70000021E5E730B581B00446FFF7B1FF94F8E4
:101D8000391094F8385022686D18517CE8B28842B6
:101D900005D32046FFF76BFE002001B030BD94F85C
:101DA000930010B12046FFF791FFE9B22046FFF7FC
:101DB000C7FF012001B030BD2DE9F04F92468046AB
:101DC0000AF1010080B20D461E4681B098F892904B
:101DD0000090B9F1010B40466BEB0B0B73199BB2F2
:101DE00000F065FC00284FEADB7B62D00A9F0124EB
:101DF0000DE0044688F8929000200090A5EB0C01BD
:101E00001FFA8CF3524689B24046FFF7E5FEB0B2A6
:101E100000284CD03B78B2B2D00704EA03014FF05F
:101E2000000C0FD5002901D13AD100E0E2D06D1CA1
:101E30006406240E4FF0010C01D0761E02E001244E
:101E40007F1C761E520829D020461446E9B93A78FC
:101E5000024218D16D1C40060CF1010C000E04BFAB
:101E600001207F1C761EA1B93A7802420BD16D1C6D
:101E700040060CF1010C000E04BF01207F1C761EF1
:101E8000641EE3D109E004460AE03A780242E1D157
:101E9000AFE73A780242EAD1ABE704460029A9D17C
:101EA00098F891000028B2D188F892B0A5E788F898
:101EB000929001B0BDE8F08F2DE9F04782B08146E5
:101EC0000A9C1646A01980B28A460090984608EBF4
:101ED0000A039BB2484608F1070500F0E8FB2D0411
:101EE00070B120000CD00B9F00974346B2B2514610
:101EF0004846FFF761FF761C641E07EBD547F3D118
:101F000002B0BDE8F087000030B581B0054600F0B2
:101F1000F7FB15F1010F044602D0054908782D188A
:101F200000F0EEFB001BA842FAD301B030BD00BFA9
:101F3000040000202DE9F04182B08046089C17463D
:101F4000E01980B20E461D460090AB199BB2404688
:101F500000F0ADFB60B120000AD0002000902B46BD
:101F6000BAB231464046FFF737FE7F1C641EF4D1FB
:101F700002B0BDE8F0810000B5EEC00AF1EE10FA43
:101F800002D4B1EEC00A70476FF0004C00EE10CAE8
:101F9000AFF30080704700000149086070470000FF
:101FA0001000002030B50F4D0F4A297804464FF439
:101FB0007A731068B3FBF1F181B0B0FBF1F000F07F
:101FC00049F858B9102C09D2002221464FF0FF30B1
:101FD00000F016F8AC60002001B030BD012001B067
:101FE00030BD00BF040000201000002022490A6814
:101FF00060F30A2240F2FA5060F31F420A60704711
:1020000070B41D4D2C68C4F30224C4F10703052BE2
:102010002FBF0F2501259D406D1E261D072E34BFA5
:102020000024E41E2940A140012303FA04F4641EA5
:10203000224011430A01010003D4104B5A5470BCD2
:1020400070470F4801F00F01014401F8042C70BCE7
:1020500070470000401EB0F1807F01D3012070471F
:1020600008494860F02081F8130D00228A6007209B
:1020700008600020704700000CED00E000E400E084
:1020800018ED00E010E000E081B0002000900B4867
:10209000416841F480414160416801F48041009110
:1020A0000021009B0091026842F0805202600068AB
:1020B00000F080500090009801B070474038024016
:1020C00062F30F2262F31F42401810F0030308D09E
:1020D000C91A1FD3DB0748BF00F8012D28BF20F81D
:1020E000022D130030B414461546103928BF20E9DC
:1020F0003C00FAD8490728BF20E90C0048BF40F847
:10210000042D890028BF20F8022D48BF00F8012DBA
:1021100030BC7047C91818BF00F8012DCB0728BF85
:1021200000F8012D704700002DE9F04102460868D3
:1021300090FAA0F3B3FA83F50F230124E84000F0EE
:102140007A800E6804FA05F0304007D108686D1CEB
:10215000E840F6D10020BDE8F08100BF90FAA0F67B
:10216000B6FA86F7D1F804E07E004FF0030C0CFAC3
:1021700006FCBEF1010F6FEA0C0C19D1D1F80880F2
:10218000D2F808E00CEA0E0E08FA06F848EA0E0843
:10219000C2F80880D2F80480D1F80CE028EA0008E0
:1021A0000EFB00FE4EEA0808C2F8048004E000BFFF
:1021B000BEF1020F3FF4E2AFD1F81080D2F80CE08C
:1021C0000CEA0E0E08FA06F848EA0E08C2F80C806F
:1021D000D1F804E0BEF1020F08D04F6810680CEA95
:1021E000000007FA06F606431660AFE7D1F814E0E0
:1021F000082F0DD2D2F82080B80003FA00F728EAA1
:1022000007070EFA00F040EA070EC2F820E0E4E704
:10221000000A90FAA0F0B0FA80F0D2F82480800092
:1022200003FA00F728EA07070EFA00F040EA070E63
:10223000C2F824E0D1E70020BDE8F08170B50400C9
:102240000D46164601D1012070BD94F8490028B909
:10225000002184F848102046FFF714FB206804F1A1
:10226000080100F053FAA2682068294600F07FFABE
:10227000236BA2686068314600F094FA2068A26877
:1022800050F8221041F0010140F82210012084F89A
:102290004900002070BD00002DE9F04F81B00027FB
:1022A00000220023DFF8B081DFF8B0914FF00F0A71
:1022B00001240D68BC4004EA050EA64540F0C2802A
:1022C000032595404E686FEA050C06F00305012DC5
:1022D0001CBF06F00306022E0FD18568CE680CEAFB
:1022E0000505964035438560456825EA04044D6838
:1022F000C5F30015BD402C4344600C7904F0030481
:10230000032C1CD0C5688C680CEA05059440254355
:10231000C5600D7905F00305022D10D1FC0800EB16
:10232000840403F01C05D4F820B00AFA05F62BEA61
:10233000060B0E6906FA05F545EA0B0525620468E9
:102340000CEA04050C7904F00304944044EA050CFB
:10235000C0F800C04C6814F4403F73D000240094CF
:102360004FEA970CD9F8005045F48045C9F8005061
:10237000D9F8004004F480440094009D384C54F88F
:102380002C6003F00C040AFA04F5AE43354DA84264
:1023900017D0354DA84216D0344DA84215D0344D33
:1023A000A84214D0334DA84213D0334DA84212D0C6
:1023B000324DA84211D0324DA84214BF082507253E
:1023C0000CE000250AE0012508E0022506E00325CF
:1023D00004E0042502E0052500E0062505FA04F4E2
:1023E0001F4D344345F82C406FEA0E04D8F808C05E
:1023F0004D6804EA0C0CEE0248BF4EEA0C0CC8F81B
:1024000008C0D8F80CC04E6804EA0C0CB50248BFEE
:102410004EEA0C0CC8F80CC0D8F804C04E6804EAA8
:102420000C0CB50348BF4EEA0C0CC8F804C0D8F831
:1024300000C04D6804EA0C04ED0348BF4EEA0404F2
:10244000C8F800407F1C1B1D921C0F2F7FF630AF79
:1024500001B0BDE8F08F0000003C0140443802406C
:102460000838014000000240000402400008024019
:10247000000C02400010024000140240001802400C
:10248000001C024010B5040001D1012010BD60798C
:1024900020B9002121712046FFF745FA0120607123
:1024A000002010BD002070470021016008498160B4
:1024B000C16001614161002180F8231080F826107D
:1024C0008161FF2180F8241080F8281070470000F7
:1024D000A52400082DE9F041069F06460C46154646
:1024E0009846FFF7E1FFB460F560C6F810807761A9
:1024F0003046BDE8F041FFF797BA000014210170A3
:10250000DFF80400704700001C3501200022A0F80D
:102510005020A0F854204FF6FF71026BA0F8521023
:10252000A0F856105168084730B581B00446049DA4
:1025300061630020A06584F8390084F86D0084F898
:10254000910084F88D00E362012084F8382084F83B
:10255000920084F893002563204629688847204626
:10256000FFF7D4FF2046FFF716FB002084F8700029
:1025700001B030BD70B490F83820016890F839602F
:1025800090F83830D2008287F5180A7CD200428752
:10259000F200C2874C7CAC42B8BFA31BA0F840201D
:1025A00002EBC302A0F842208A8AA0F84420C98A1C
:1025B000A0F8461070BC704710B5044682B0B4F85D
:1025C00056000090B4F85230B4F85420B4F85010CB
:1025D000204600F06CF820B3B4F85020B4F848104E
:1025E00001208A4238BF0A46A4F84820B4F84A10AD
:1025F000B4F852208A4288BF0A46A4F84A20B4F8A8
:102600004C10B4F854208A4238BF0A46A4F84C2033
:10261000B4F84E10B4F856208A4288BF0A46A4F88F
:102620004E2084F88C0002B010BD10B50446FFF7B0
:10263000A1FF2168888AA4F84600C98AA4F844103A
:1026400010BDB0F84210B0F8442000238A4228BFE1
:10265000531AB0F84420B0F84010A0F84830521A8D
:10266000A0F84A200022B0F84610A0F84C20A0F8AC
:102670004E10A1E730B5144681B0B0F84420049D57
:10268000511A4A1E002D03BFD21A521C01210021EB
:10269000009192B22146FFF793FA01B030BD10B518
:1026A00044690023A04710BD0022FFF70DBD70B4A0
:1026B00081B0B0F84E60049CB0F84C50B24202D2E7
:1026C000A54202D203E0A54216D2944214D2B0F839
:1026D0004820B0F84A008142184605D2824205D20D
:1026E00001B070BC01207047824205D201B070BCBD
:1026F0008B428041C00F704701B070BC0020704712
:1027000001484068704700BF04000020F0B40B6827
:1027100050F823205208520040F823208D68082DDD
:102720000CBF402600260C6850F824702E4A4B68D7
:1027300017403E431E43CA680B69354315434A6937
:102740001D43CB6915430A6A1D434B6A15438A6AC8
:102750001D43CB6A15430A6B1D438B69C96B154337
:102760001D430D4340F824500020F0BC704730B4A6
:102770000B684D688C6843EA0513CD6843EA04236F
:102780000C6943EA0543641E43EA04534C698969B2
:10279000A41E43EA046300EB82000B434360002065
:1027A00030BC704770B4B3F5804F15D150F822504B
:1027B0000E4B0C684E681D4025438C688B69C968B8
:1027C00045EA061545EA04251D4345EA014540F85A
:1027D0002250002070BC70476FF0704140F822100A
:1027E000002070BC704700008000F0FF0000F0CFB8
:1027F00000000000000000000000000000000000D9
:1028000000000000000000000000000000000000C8
:1028100000000000000000000000000000000000B8
:1028200000000000000000000000000000000000A8
:102830000000000000000000000000000000000098
:102840000000000000000000000000000000000088
:102850003C8007000000000000F8000000000000BD
:102860003C8007000000000000FE030000000000A4
:102870003C8007000000000000FF03000000000093
:102880003C8007000000000080CF0700000000002F
:102890003C8007000000000080830700000000006B
:1028A0003C8007F8000000000081070000000000E5
:1028B0003C8007FC031C003E1CC00300000000001D
:1028C0003C8007FF077F80FF3FE001000000000021
:1028D0003C8007FF8FFFC1FF3FF0000000000000B9
:1028E0003C8087FFDFFFC1C3077C000000000000C1
:1028F0003C80870FFEFFE381031E00000000000004
:102900003C80C707FCE3E381070F000000000000E4
:102910003C80C707F8C1E78187FF0700000000007F
:102920003C80C703F080E7C387FF0700000000007A
:102930003C80C7037080C7E783FF070000000000EA
:102940003C80C7037880C7FF030000000000000040
:102950003C80C703F8C087FF0100000000000000B2
:102960003C80C707FCC1C77F0000000000000000DA
:102970003CC0870FFEFFE3010000000000000000E4
:1029800078C083FFDFFFE3030000000000000000C9
:10299000F8F103FF8FFFE1FF0700000000000000D7
:1029A000F0FF01FE0FFFC0FF0F000000000000005D
:1029B000E0FF00FC037CC0FF1F00000000000000DF
:1029C000803F00F80100E0011E0000000000000050
:1029D000000000000000F0001E00000000000000E9
:1029E000000000000000F0001E00000000000000D9
:1029F000000000000020F0C70F00000000000000F1
:102A0000000000000060E0FF0F0000000000000078
:102A1000000000000060C0FF030000000000000094
:102A2000FCFFFFFFFFFF01FF0000000000000000AF
:102A3000F8FFFFFFFFFF03000000000000000000A0
:102A40000000000000600000000000000000000026
:102A50000000000000600000000000000000000016
:102A60000000000000600000000000000000000006
:102A700000000000006000000000000000000000F6
:102A800000000000006000000000000000000000E6
:102A900000000000006000000000000000000000D6
:102AA00000000000006000000000000000000000C6
:102AB00000000000004000000000000000000000D6
:102AC0000000000000000000000000000000000006
:102AD00000000000000000000000000000000000F6
:102AE00000000000000000000000000000000000E6
:102AF00000000000000000000000000000000000D6
:102B000040242000000846020080C0400000000071
:102B10000C6E6AC0A44804AAAC8CAAAC00000000E9
:102B20006AA4AA20EAA46466AA464A8A00000000B1
:102B30004CA4AA20AAA2442AAA28AA4C0000000059
:102B4000E8A86CC4A442EE2ACC266CE80000000081
:102B50000600000000000000000000060000000069
:102B60000000000000000000000000000000000065
:102B70000000000000000000000000000000000055
:102B80000000000000000000000000000000000045
:102B90000000000000000000000000000000000035
:102BA0000000000000000000000000000000000025
:102BB0000000000000000000000000000000000015
:102BC0000000000000000000000000000000000005
:102BD00000000000000000000000000000000000F5
:102BE00000000000000000000000000000000000E5
:102BF0002DE9F0430E2981B0814690461C4600F035
:102C000098800F2940F0A08000F021F962796C498A
:102C100099F82260D206120E82FB01017618F42187
:102C2000484600F0FFF8F1B2484600F0FBF8A579FD
:102C3000F521484600F0F6F8ED00E9B2484600F00C
:102C4000F1F8F621484600F0EDF806F13501C9B279
:102C5000484600F0E7F8F721484600F0E3F8D9F8D5
:102C60000000417C4919C9B2484600F0DBF806F083
:102C70000F01484600F0D6F83606360F46F0100130
:102C8000484600F0CFF805F00F0141F060014846DA
:102C900000F0C8F82D062D0F45F07001484600F0F1
:102CA000C1F82579D4F8007050A4ED062D0E002649
:102CB000002D31DD397801F00F0004EB40000909E7
:102CC00042788DF8032004EB410100788DF8020072
:102CD0004A788DF801206A4608788DF800000421B2
:102CE000484600F0ADF8B0B21338364B80FB0323F2
:102CF000DA1002EBD27202EB8201B0EB810005D058
:102D0000761C7F1CB0B2A842D4DB05E00022012172
:102D1000484600F095F8F3E7A8F101085FFA88F05B
:102D20000028C4D1484600F099F8012001B0BDE860
:102D3000F08300F08CF88121484600F073F841469A
:102D4000484600F076F8EDE7002001B0BDE8F083DA
:102D500070B504460E461546FFF74AFF30BB093EE4
:102D6000042E24D8DFE806F003090E23180000BF64
:102D700026A12046FEF710FE18E02046FEF711FEC1
:102D8000114905E0002D0CBF0FF240010FF2440184
:102D9000204600F06BF809E055B900BF0FA12046AE
:102DA00000F064F82068807C84F82200012070BD67
:102DB0000CA1204600F05AF82068C07CF4E700001F
:102DC0005655555567666666C43000081815AD1926
:102DD000FF0000001815AC19FF0000001815C419F9
:102DE000FF0000001815C019FF0000000000000FD0
:102DF00000F000FF0F000F0F0FF00FFFF000F00FBB
:102E0000F0F0F0FFFF00FF0FFFF0FFFF00010A0AE4
:102E100014C80A3C00127A0000041E501414252520
:102E2000A000A00010B50A46C46800231521A047E1
:102E300010BD10B50A46C46800231621A04710BD76
:102E400010B513460A46C4681721A04710BD10B537
:102E5000C468002300221821A04710BD10B5C46823
:102E6000002300221921A04710BD000070B582B0D8
:102E700004460D460AE000BF15F8010B8DF800006E
:102E800000230246E6682046B04700BF15F8011B44
:102E9000A1F11502012AEFD9921E07D0521E012A74
:102EA0000FD9E63A10D002B070BD00BF15F8011B73
:102EB0008DF800106B46E668012217212046B047C6
:102EC000E4E700230022DDE715F8010B8DF8000090
:102ED000024629212046FFF7E2FBD7E7F0B504467A
:102EE0000F46A7F11400052881B015461E461BD8D1
:102EF000DFE800F01203030E12120021204600F05A
:102F000017F82946204600F01AF8012001B0F0BD5C
:102F10000121204600F00CF82046246933462A4659
:102F20003946A04701B0F0BD002001B0F0BD00005F
:102F300010B50A46046900232021A04710BD12B530
:102F400081B0046901AB01221721A04702B010BD76
:102F500000B528392D2981B033D8DFE801F02417D6
:102F60002424242432323232323232323232323279
:102F700032323232323224242424242424242424BD
:102F80001D27242424242424242424241046FEF74A
:102F9000BBFF012001B000BD002A14BF26494FF03D
:102FA000C04126480160012001B000BD244812B98B
:102FB0004FF08061F6E74FF480620260012001B0BB
:102FC00000BD012180F82710012001B000BD30B5FF
:102FD000143981B029D0C91E07D0491E012924D92E
:102FE000083925D0002001B030BD10001DD012F0EE
:102FF0000300124905D00C6813F8015B2570401ED0
:10300000F9D1920811D0086813F8014B0470521ED0
:103010000C6813F8010B2070086813F8014B04705A
:103020000C6813F8010B2070EDD1012001B030BD08
:103030004A21FFF734FBF8E700000160F841012066
:1030400018000240F0B4044601F007072068049D10
:10305000067C8020F840C908676B06FB021189B224
:103060003944CDB994F89250012D03DC0A7802431B
:1030700081F8002094F89250012D02D00A78424045
:103080000A70400805D05B1E9AB2002AEAD1F0BC53
:1030900070478020491CF6E794F89220012A03DC4F
:1030A0000D78054381F8005094F89220012A02D04F
:1030B0000D7845400D705B1E9AB2002A3144EBD169
:1030C000F0BC70471815E2FE0A15E9152B152415FA
:1030D00081159615A415A615C415A115D115D515DC
:1030E0008415C8151015DA15F4152515F6155A1599
:1030F000F5150015F7159F15F8158915401550158C
:10310000901500158415F1159F15F2150015F3158E
:10311000A015AC19FF00000030B4002412E050F8F4
:10312000043BDA0744BF4B445B1E091F042943F8E4
:10313000044BFAD21A468D0744BF1C80921CCB0761
:1031400048BF147050F8041B0029E8D130BC704708
:1031500010B500F013F8020000230024E4431068C7
:10316000A04203D011000220ABBE13605068A04201
:1031700003D0111D0220ABBE536010BD0048704744
:103180001400002010B5034A7A440832024C7C44F3
:10319000A41D03E0400000006000000004E011688E
:1031A000101D114488470246A242F8D110BD00000C
:1031B0004EF68851CEF20001086840F470000860B5
:1031C000BFF34F8FBFF36F8F4FF00170E1EE100A26
:1031D0007047000045FFFFFFE04101001C00002098
:1031E00000000000B7E8FFFF1C00000070000000B6
:1031F000000000200000000000F00DF8002801D0C1
:10320000FFF7C0FFAFF300800020AFF30080FDF7B1
:1032100029FF00F002F80120704700F001B800001B
:103220000746384600F002F8FBE7000080B5FFF7DC
:103230008FFF024A11001820ABBEFBE726000200F8
:103240000548014603B4684680F30988AFF300805F
:10325000FFF7AEFFFFF7D0FFA5EDF5FE3930000018
:103260000100000000000000100000000024F40035
:10327000FFFFFFFFFFFFFFFFFEE7FEE7FEE7FEE7C2
:10328000FEE770477047704700F000B80248426898
:1032900001785118416070470400002001488047C0
:1032A00001480047AD320008413200080249086871
:1032B00040F470000860704788ED00E02B2600089D
:1032C0004326000875260008FFF7FEBFFFF7FEBF84
:1032D000FFF7FEBFFFF7FEBFFFF7FEBFFFF7FEBF22
:1032E000FFF7FEBFFFF7FEBFFFF7FEBFFFF7FEBF12
:1032F000FFF7FEBFFFF7FEBFFFF7FEBFFFF7FEBF02
:10330000FFF7FEBFFFF7FEBFFFF7FEBFFFF7FEBFF1
:10331000FFF7FEBFFFF7FEBFFFF7FEBFFFF7FEBFE1
:10332000FFF7FEBFFFF7FEBFFFF7FEBFFFF7FEBFD1
:10333000FFF7FEBFFFF7FEBFFFF7FEBFFFF7FEBFC1
:10334000FFF7FEBFFFF7FEBFFFF7FEBFFFF7FEBFB1
:10335000FFF7FEBFFFF7FEBFFFF7FEBFFFF7FEBFA1
:10336000FFF7FEBFFFF7FEBFFFF7FEBFFFF7FEBF91
:10337000FFF7FEBFFFF7FEBFFFF7FEBFFFF7FEBF81
:10338000FFF7FEBFFFF7FEBFFFF7FEBFFFF7FEBF71
:10339000FFF7FEBFFFF7FEBFFFF7FEBFFFF7FEBF61
:1033A000FFF7FEBFFFF7FEBFFFF7FEBFFFF7FEBF51
:1033B000FFF7FEBFFFF7FEBFFFF7FEBFFFF7FEBF41
:1033C000FFF7FEBFFFF7FEBFFFF7FEBFFFF7FEBF31
:1033D000FFF7FEBFFFF7FEBFFFF7FEBFFFF7FEBF21
:1033E000FFF7FEBFFFF7FEBFFFF7FEBFFFF7FEBF11
:1033F000FFF7FEBFFFF7FEBFFFF7FEBFFFF7FEBF01
:0C340000FFF7FEBFFFF7FEBFFFF7FEBFA7
:04000005080032417C
:00000001FF
