:020000040800F2
:10000000805B0020893100086531000867310008F5
:10001000693100086B3100086D31000800000000F4
:100020000000000000000000000000006F31000828
:1000300071310008000000007331000875310008BC
:10004000B5310008B9310008BD310008C1310008E0
:10005000C5310008C9310008CD310008D131000890
:10006000D5310008D9310008DD310008E131000840
:10007000E5310008E9310008ED310008F1310008F0
:10008000F5310008F9310008FD310008013200089F
:1000900005320008093200080D320008113200084C
:1000A00015320008193200081D32000821320008FC
:1000B00025320008293200082D32000831320008AC
:1000C00035320008393200083D320008413200085C
:1000D00045320008493200084D320008513200080C
:1000E00055320008593200085D32000861320008BC
:1000F00065320008693200086D320008713200086C
:1001000075320008793200087D320008813200081B
:1001100085320008893200088D32000891320008CB
:1001200095320008993200089D320008A13200087B
:10013000A5320008A9320008AD320008B13200082B
:10014000B5320008B9320008BD320008C1320008DB
:10015000C5320008C9320008CD320008D13200088B
:10016000D5320008D9320008DD320008E13200083B
:10017000E5320008E9320008ED3200080000000016
:10018000F1320008F5320008E0000303050504061B
:1001900006161CFEFB12FB1200025B04E40E152087
:1001A000060020C8022109422A78E207110122092B
:1001B00066ECCBC212CA0223244A26C86E329BCCFC
:1001C0002633916C249B4C0E07936826121D0E96C5
:1001D000B5C94C3413C946B2C90C002427EAA6C7D6
:1001E000520E9143C4B643643619D62173C81C32EB
:1001F00087D0E99039440E31DA468798590E9143F9
:100200008400251B4926C86676BA9CC463B9782C3D
:100210001ECBC563916842994822A2DB00261D6966
:1002200026C88E685A914DE4F2F1985894CC241364
:100230009284743B51469343CC00270963E87B6268
:10024000128A0028144532D84A36198D444B326D33
:10025000A3996C341B490029104432C842241A89DE
:1002600046FA6545B214022A100869DB4E2C3A485A
:100270004C96434C1493012B0CE728B94EAA74B842
:100280004945002C0762E87782122D0747A8B9E29A
:10029000012E0742287882002F13482AC85A752A4F
:1002A0005D95AE4AA7D255E9AA180030124926C872
:1002B0008E76A11CA9FCD7A26434399200310B457B
:1002C0002EC84EE960D3FF0332164926C88E76A1A8
:1002D0001CA945E2743C5D9E2E4FC7870301331471
:1002E00069E6C7E281BC3A164FA965BA5E6407D2D7
:1002F000350834174926C86E2C178FE5E265B948D2
:100300003452131D0E54B9260035154926C8E2C1D2
:10031000AEFD7488CCAA72756AD134399200361752
:100320004926C88E76A11CE9EAA7436466A4B216E2
:100330004D9323090037154A26C8E24354229C08EE
:10034000E773F9BA7CBB7CBB1400381A4926C88E07
:10035000762119A9D4A26434395D66462AB52819D4
:100360004D8E240039184926C88E762119A9AC452E
:10037000D3E410BACBA945C9687224013A0842A94E
:1003800078820E253B09626978820EA5043C0D66D1
:10039000EDC852365A120AB74A033D0BC8E8C8E204
:1003A000418E7438083E0F66EDC8222A1D2ECA26DB
:1003B000A399300A3F146926C88E769A1CA972F157
:1003C00094BA2CD71DA35C064032D1E636F70E391D
:1003D0008C2D363A690E9ACC4CA6534D34A3A9D134
:1003E000D4686A34359A1A4D8D36A1980E941985C1
:1003F000364799C3EDE003FD3002411C4A26C8523E
:100400000E19F35C344E8422A148281A1D428790AD
:10041000502414098D0342184926C8C27688C8267C
:10042000C22AE38172924D84558EB543C5064312AC
:100430004926C8AA76A11CA974FDB5689ADC4A00B1
:1004400044104926C8E27488C8ACFC3F1E28270027
:1004500045204A26C8E2431C2287C82172881C22F4
:1004600087DC6E72881C2287C82172881C7238183B
:1004700046224A26C8E2431C2287C82172881C22D1
:1004800087DC6E72881C2287C82172881C2287C86C
:10049000210047134926C8AA76A11CE9BAB9722DD2
:1004A0005A2887D001480D4926C842CA5F0F0F510C
:1004B000FE2A4908422A78E20F014A0E4926C85E00
:1004C000FF776AD1343992004B1D4926C842D8368D
:1004D000118D4423C9AC58A4528B45C94C34128D9C
:1004E00064136171004C244A26C8420E9143E41003
:1004F00039440E9143E41039440E9143E4103944D9
:100500000E9143E41039E470304D194926C8625801
:10051000B39D2E87C8E16132A14C4812528814A2C3
:10052000F22A4E154926C862D868B39D4E1411654B
:10053000429290DE1CBB0A4F114926C88E76A11C40
:10054000A9FCD7A269722B0150124926C8C276882D
:10055000C88C558E07CA49AEDF0151114926C88E95
:1005600076A11CA9FCD7A26972081D521A4926C897
:10057000C27688C88C558E07CA493492896413D9CB
:10058000442811B60A53154926C8AA76A11CA9E524
:100590003999BE9D5A344D8E2400540C4926B8E238
:1005A0008128D7FF6F00550E4926C842CAFFD7A23F
:1005B00069722B01561B4A26C86238114E8422A14B
:1005C00068265A13CD44429170226D25B36F0357AC
:1005D000224A26C862E838118A8422A14828922833
:1005E0004994244A87D02174081D4287D021B40B36
:1005F00000581D4A26C84638118A66A235917022D5
:10060000B492B91A2742916CB426124A860359193A
:100610004A26C86238118A36094542C9B05A26CFDF
:10062000E7F275F9BA1C005A164926B8E2813C1661
:100630008FC563F1EA782C1E8BC78703015B0B46DD
:100640002EC8E251FF8F87025C15492AC8423E57E7
:100650009FCBC773F9782E9FCBC773F9005D0C450C
:100660002EC8E230D3FFDBA1005E0966ECCC8672B7
:1006700008095F084CA0C7E2C300600984B0CC42FF
:10068000269209611BCB25D88E6C1CCD8432A11C0F
:1006900024BC1D423491542415311D462501621598
:1006A0006926C842AE17D221423952F95AB41C2ADF
:1006B0001212006311C925C88E76A11CA9745D8B26
:1006C00016CAAD0464136926C85E6F96436472A4AB
:1006D000F2B568A11C42076514C925C88E769A1C1C
:1006E000A9D4C3435C3E8CB0DC4A0066136926C8BB
:1006F0009268B38964728D87C82128D71F01671C4F
:1007000069E6C6CE72884C8E546A5132A19C6CF256
:10071000F1E550A4D6268790050068106926C842E6
:10072000AE17D221423952F9AF02690D642A7842DC
:1007300024878BF49F96046A1007EFD6561DABFEF4
:10074000BFD22A131305006B176926C842AEC7B67D
:10075000894C241AA949666EA7916845581C6C0CEF
:1007600065267842A6FFDF66A4016D20D0253843B8
:1007700042231D0E118AE538A44AA952AA942AA53B
:100780004AA952AA942AA54AA90A6E0FC925C842A5
:10079000423A4428472AFF55006F11C925C88E7672
:1007A0009A1CA97C2D5A28B71200701569E6C6421A
:1007B000423A4428472A5F8BA603454292EB0E71CA
:1007C0001469E6C6CE72884C8E54BE1625A3C92184
:1007D00066D703720EC72598427238444A54FD2BDF
:1007E000007313C825B88A6619D988E562B948B478
:1007F0004C6C2400740F66268846A8DBA122D41F07
:1008000087B401750FC925C842CA7F2D4A46934354
:10081000CC00761BCA25C86238114E8422A16826F6
:100820005A13CD4442917022B456C934007729D16D
:10083000253863B8225C110E45429A6854138D4ADC
:100840003391443413494442916422B44C84A62A1F
:10085000AD4A23D368007817C929C842581489467D
:100860008A45F22AB52692892642897000791C6A47
:10087000E6C66636928D64DA26B3C95032944825AE
:10088000D266F27CA36466A5027A10CA25C8E2C1CA
:100890003E5E1F6F1FAF1F0E067B12A7AEC77246CC
:1008A000A20DA5BAD1A4AB7A9D12077C08E2B6C707
:1008B000E21F087D11A7AEC742BAAAD76DA4A15402
:1008C000C7196D087E0B6A64C926283A880E027F14
:1008D000060020C80280060020C80281060020C849
:1008E0000282060020C80283060020C80284060097
:1008F00020C80285060020C80286060020C802879C
:10090000060020C80288060020C80289060020C808
:10091000028A060020C8028B060020C8028C06004E
:1009200020C8028D060020C8028E060020C8028F53
:10093000060020C80290060020C80291060020C8C8
:100940000292060020C80293060020C80294060006
:1009500020C80295060020C80296060020C802970B
:10096000060020C80298060020C80299060020C888
:10097000029A060020C8029B060020C8029C0600BE
:1009800020C8029D060020C8029E060020C8029FC3
:10099000060020C802A0060020C802A1060020C848
:1009A00002A2060020C802A3146926B88E685A1154
:1009B0004AE43A9F6E729DC7870301A4060020C8CF
:1009C00002A5060020C802A6060020C802A723D35D
:1009D0002568773C17CFC77362B5669C8C26B391A8
:1009E0004D342B1EA946AA917ABA944C576209003D
:1009F000A8060020C802A92D512638F70E3950D973
:100A0000E6A091AC26199D2CA3514928A3436474F8
:100A1000888C2494552823B7C98836A2D32CE68322
:100A20001C5606AA060020C802AB122925B94E168C
:100A30009A6C118DD426B3D1923016AC060020C822
:100A400002AD060020C802AE060020C802AF0600B4
:100A500020C802B00B84687C461212452400B106FF
:100A60000020C802B2060020C802B3060020C80257
:100A7000B4060020C802B5104926C742CA7F2D9A85
:100A80000E97435C3B00B6060020C802B706002064
:100A9000C802B8060020C802B9060020C802BA067B
:100AA0000020C802BB152925B922269BCC26B3916C
:100AB0004C249A9826A2512C08BC060020C802BDDE
:100AC000060020C802BE060020C802BF060020C8DB
:100AD00002C023EA26C84E0E9283E410399A1C32D3
:100AE000E6B9689C0845429150343A840E21A148E9
:100AF00028121A07C11FEA26C876AE1D550E19F333
:100B00005C344E8422A148281A1D42879050241438
:100B1000098D03C222EA26C8524E9608457224392E
:100B200064CC73D138118A8422A16874081D4242B2
:100B3000915024340EC3060020C802C41EC926C822
:100B40004A2294C8318D97A9C446895032938C4665
:100B5000A291E821223316A902C5060020C802C6C8
:100B60002C501AC8FA303E8CE9C03A5022074AE4A9
:100B7000B0891C26928346C7D1512687CCE4904386
:100B80001C72880FE552F1F4403D04C7060020C8EE
:100B900002C828EA26C84E0E9943E42039F8F0101E
:100BA00087C82172881C2287C821B79B1C2287C84E
:100BB0002172881C22871C0E06C926EA26C8562EDA
:100BC00087C8E528878738440E9143E41039440EDE
:100BD000B9DDE41039440E9143E41039E47030CAB1
:100BE00027EA26C8524E95086572E8E1210E914326
:100BF000E41039440E91436E3739440E9143E410AA
:100C000039440E391C0CCB26CA26C84A2295C83155
:100C10001D1EE21039440E9143E41039E4769343EB
:100C2000E41039440E9143E490C3C100CC0DE4328A
:100C3000C842A61615E9FF5F00CD0DE532C86AA4CB
:100C40001D24D3FF3F01CE10E72EC84A4893A8C900
:100C50004152FDFF1B00CF0EC532C84242910365D1
:100C6000FAFF2700D0060020C802D1060020C802E3
:100C7000D216E926C84E3E9743E470DA8572A4F294
:100C80005F8BA6C9AD04D316E926C8562C17CB91A5
:100C90006817CA91CA7F2D9A26B71200D417E92681
:100CA000C8524C94C8D4C1B40BE548E5BF164D9367
:100CB0005B0900D5114926C88E76A11CA9FCD7A2D4
:100CC00069722B01D616C926C84A2294C831D12E82
:100CD000942395FF5A344D6E2500D7060020C80294
:100CE000D8060020C802D913E926C84E3E9743E42F
:100CF0004029FF5F8BA6C9AD04DA13E926C8562C3C
:100D000017CBC152FEBF164D935B0900DB14E926D9
:100D1000C8524C94C8D46152FEBF164D935B090073
:100D2000DC13C926C84A2294C891A5FC7F2D9A26B7
:100D3000B71200DD060020C802DE060020C802DF70
:100D4000196926C88A685A114A8412D94444115133
:100D50006456FE66A2884600E0226B26D84E0E93AB
:100D600083E4303922D9389A0965423948783B847E
:100D70006822A9482A623A8C4A02E1226B26D85698
:100D80000E9143E4A0383AD9389A09654239487837
:100D90003B846822A9482A623A8C4A02E2216B26E7
:100DA000D86E4E9748657234B2713413CA8472900B
:100DB000F07608D144529154C474189504E30600A7
:100DC00020C802E4204B26D84A2296C871211B472E
:100DD00033A14C2807096F87104D241549454C87CE
:100DE000514900E5060020C802E620CE25188BED0B
:100DF0005019916C33B1502C141D2A87834C2C143C
:100E00000B85A5CAE450239100E7142966C78E76A6
:100E1000A11CA9745D8B9209E54896B201E81A6994
:100E200026C84E0E91CB217238ED423952A98787E0
:100E3000B87C1861B99500E9186926C872AC1E47DC
:100E4000A39D26472AF5F010970F232CB71200EA2E
:100E5000196926C86E4C94C8D4C1B4D3E448A51E01
:100E60001EE2F26184E55602EB194926C84A229433
:100E7000C831D14E9323957A7888CB8711965B0938
:100E800000EC0D65267862265496E9BFAD09ED0E9B
:100E9000642A784A22928845FA4F4B02EE11672263
:100EA000786A465291C94152FDD7550900EF0E6547
:100EB000267842429123C9F4DFD604F0060020C808
:100EC00002F1060020C802F217E926C86A2E87C878
:100ED000E5F889769A1CA97C2D5A28B71200F314DC
:100EE0006926C856AC1E47A39D26472A5F8B16CAA3
:100EF000AD04F4166926C86E4C94C8D4C1B4D3E4CA
:100F000048E56BD142B99500F511C925C88E769A8E
:100F10001CA97C2D5A28B71200F6154926C84A226A
:100F200094C831D14E932395AF450BE55602F70E89
:100F300047A9B84A2A473BDC91A43200F81A69262F
:100F4000C8CE72884C6E354F27094942115144274B
:100F50009B9B64427902F9146926C84E0E91CB21FD
:100F600072A094FF5A344D0EA103FA116926C8727B
:100F7000AC1E874BF9AF45D3E4103AFB136926C882
:100F80006E4C94C8D46152FE6BD13439840EFC127D
:100F90004926C84A2294C891A5FCD7A26972081DA7
:100FA000FD060020C802FE060020C802FF06002041
:100FB000C80200000004FFFF0000000070B4DFF86A
:100FC000C446DFF8C436D4F8601900202546BBEECD
:100FD0000E0ADFED250AB1EE041ADFED241A43F202
:100FE000390205262E6103FB0121C1F30E4602EEF4
:100FF000906AFBEEE82AB0EE412A03FB012168610A
:1010000002EEA12AC1F30E4685ED002A02EE906A97
:10101000FBEEE82AB0EE412A03FB012102EEA12AF1
:10102000C1F30E4685ED012A02EE906AFBEEE82A36
:10103000B0EE402A03FB012102EEA02AC1F30E46C6
:1010400085ED022A02EE906AFBEEE82AB0EE402A15
:1010500002EEA02A85ED032A401C18356428C0DB67
:10106000C4F8601970BC704700007042000016435D
:101070002DE9F04F81B0DFF80C562DED0A8B88B0CA
:1010800000F01AFB00F0AAFA00F032FB00F072FB4D
:1010900000F0E8FB44F6F010DFF8F035DFF8F0255B
:1010A000DFF8F015284400F005FC44F6F01168184C
:1010B00000F06FFC44F6F0100021284400F070FCB2
:1010C00044F6F011681800F087FC44F6F010B421E3
:1010D000284400F073FC44F6F010DFF8BC152844F7
:1010E00000F030FD44F6F0100121284400F098FD96
:1010F00044F6F0100021284400F059FC44F6F011A9
:10110000681800F095FD0F200090032344F6F010BE
:1011100003220321284400F061FE44F6F011681810
:1011200000F0B7FD4FF4FA7000F0ACFEFFF746FF99
:10113000DFF86815086805909FEDCC8ADFEDCC8A52
:10114000B7EE009ADFEDCB9A9FEDCBAADFEDCBAAED
:101150009FEDCBBADFEDCBBA4BE1082A40F33582E5
:10116000082232E24FF0FF30009006980291A0F181
:10117000010A0298092838BFBAF1090F80F0F780F8
:10118000029ADFF8000540F22C714A438118CC2006
:1011900000FB0AF0084400F6641143F239020F1D07
:1011A0000492002609680391002940F3E0803A6820
:1011B000944205DB0398761C3F1D8642F7DBD6E0A0
:1011C000DFF8C004D8ED000A02EB420100EBC10BCE
:1011D000D8F810109BED000ADBF810009BED011A07
:1011E00030EEC02A98ED010A411830EE411A01EEA6
:1011F000901A22EE022AF8EEE11A01EE012A21EEFF
:10120000A11AB4EE421AF1EE10FAD3DBDBED002A9C
:1012100030EEE2CADBED010A70EE60CA2CEE0C0A79
:101220000CEEAC0AB4EE690AF1EE10FA28D5049877
:1012300005FB09094946C1F30E40DDF8109000EEA8
:10124000100ABBEEE80AF0EE000ABFEE00CA05FB8A
:10125000019900EE20CAC9F30E4000EE900AFBEEA1
:10126000E80AB0EE000AFFEE00CA40EE80CA2CEE9B
:101270000C0A0CEEAC0AB4EE690AF1EE10FA6FD467
:1012800000F016FECCEE000A98ED022ADBED023AE1
:10129000D8ED031A9BED033A8CEE801A62EE202AF9
:1012A00063EEA03A41EE812A43EE013A72EEE32A60
:1012B000F5EE402AF1EE10FA7FF67CAF22EEA83A66
:1012C000F6EE002A63EE222A22EEA03A33EE022A3C
:1012D00088ED022A22EE812A72EE211AC8ED031A45
:1012E000DBED022ADBED031A72EEC32A71EEC21A9D
:1012F000CBED022ACBED031AD8F81010DBF8100062
:10130000411801EE901AF8EEE11A31EEC00AB5EE7E
:10131000400AF1EE10FA7FF74DAF30EE080AB6EE54
:10132000002A20EE020A60EE800AD8ED001A70EE64
:10133000A11AC8ED001A21EE000AD8ED012A70EEBC
:10134000222AC8ED012A9BED001ADBED011A71EE8D
:10135000600A31EEC00ACBED000A8BED010A29E7E5
:10136000B0EE49CADFED9CCAB0EE490A88E70098A2
:10137000401C012800900AF1010A7FF7FAAE029999
:101380000198491C401C012801907FF7EBAE641CBA
:10139000642C08F11808C0F2F980BA4D44F6F01038
:1013A0002E18C5F86099304600F042FC2F466424A0
:1013B00097ED000A00F08CFDB0EE40CA97ED010AEF
:1013C00000F086FD0F210091BDEEC00A386983B29E
:1013D00010EE100A82B2BDEECC0A10EE100A81B2F5
:1013E000304600F0FBFC1837641EE1D1304600F0B7
:1013F00050FCAA4800680599411A00EE101AB8EE90
:10140000400ADFED9F0AC0EE202AF5EE402AF1EEF9
:1014100010FAEED9F4EE6B2AF1EE10FAA8BFF0EE56
:101420004B2A05902946642091ED022A91ED000A8D
:1014300002EE220A81ED000AD1ED041AD1ED030A71
:1014400091ED011AF8EEE11A30EE613AB5EE403A4C
:1014500000EEA21AF1EE10FA81ED011A14D5C1EDD9
:10146000001AB1EE420A81ED020A15E0CDCCCC3D66
:101470006666E6BF0AD7233C0000204301002043F4
:10148000CDCC4C3DCECC4C3D30EE210AB4EE6A0AB8
:10149000F1EE10FA80F20A8031EE610AB5EE400AF0
:1014A000F1EE10FA0CD5C1ED011A15E03AEE610A21
:1014B00081ED000AB1EE420A81ED020AECE700BFBD
:1014C00031EE210AB4EE6A0AF1EE10FA08DB3AEEC8
:1014D000610A81ED010A00BFF1EE600AC1ED030A65
:1014E0001831401EA0D105F6641209210023002402
:1014F00003201360C2F8CC40C2F89831401E02F5B8
:101500001972F6D1491EF3D15E48064640F22C719D
:101510005FF0CC02D6ED000A96ED010AB3EE041A94
:1015200080EE811ABDEEC11AF3EE040A11EE105AD4
:10153000C0EE200AFDEEE00A002D10EE903A0FD426
:10154000082D0FDC002B0FD4082B0FDC4D43054476
:1015500053432B4403F664152B68322B0DDA07E056
:101560000025EFE70825EDE70023EFE70823EDE787
:101570005F1C45F8047B45F82340641C1836642C36
:10158000C8DB80460024D8F860993F4DD8ED000AAA
:1015900098ED010AB3EE041A80EE811AF3EE040A04
:1015A000BDEEC11AC0EE200A11EE101AFDEEE00ADF
:1015B00010EE902A002948BF002102D40829C8BF94
:1015C0000821002A7FF5C9AD00224FF0FF330193B7
:1015D000491E0692C6E500000000000030B5304A02
:1015E00081B0D2F80004052363F30200C2F80004BE
:1015F000D2F8000400F007000528F9D1294C216831
:1016000041F480412160106840F48030106010681F
:101610008003FCD555682448244905400D43556096
:10162000556825F440355560106840F080701060B2
:1016300010688001FCD560684004FCD5916821F0F9
:10164000F00191600421906863F38C2090609068B1
:1016500061F34F3090600220916860F30101916066
:10166000906800F00C000828FAD1114800F04CFCFA
:101670000F2000F04FFC08B172B6FEE701B030BD9C
:1016800000007A44000000206D4EC6415D2E000827
:10169000DB2E0008A831000888010008884A0020D5
:1016A00000380240007000400080BFFF042A400064
:1016B000007A030A72B6FEE700B50C4881B00168F3
:1016C00041F400710160026842F4806202600168C6
:1016D00041F480710160032000F040FC0F2000F015
:1016E00019FC00F089FC002001B000BD003C024064
:1016F00000B587B01821002201A800F099FC1B4812
:10170000026842F080020260016801F080010091ED
:10171000009B026842F010020260016801F01001B3
:101720000091009A036843F00803036001230168F5
:1017300001F008010091009A016841F00101016087
:101740004FF08062006800F0010000904FF480616B
:10175000009807488261019100220293039204924B
:10176000059201A900F098FC07B000BD3038024096
:101770000000024000B587B01C210022684600F03E
:1017800057FC33484FF0204101F5827242600160FE
:101790000022C2604261C2614262C262026342636D
:1017A00082634264002181600161816101620123E1
:1017B0000B22019302924FF4805181620F23102279
:1017C00003930492022100911123002205930692B3
:1017D000694600F0EBFC08B1FFF76CFF07B000BDF5
:1017E00000B587B01421002201A800F021FC19499E
:1017F000086850BB01220A6000904FF4F06216485E
:10180000016841F0010101600221006800F001005F
:101810000090009B11480192029100220392032143
:1018200004910C22059201A900F0EEFC0221029124
:10183000002203924CF6B3000321019004910C2284
:10184000059201A9064800F0DFFC07B000BD0000CA
:101850001C57002074570020383802400010024006
:10186000000C02401048114900B5016081B000F041
:10187000C1FD20B101B05DF804EBFFF71BBF01B063
:1018800000BD81B0026809498A420BD10020009056
:101890000748016841F480510160006800F48050FD
:1018A0000090009801B070476C5700200030024053
:1018B0003038024030B583B00C46009305461346DD
:1018C000094ADFF8281000F0BDFD01A800F0CEFDA8
:1018D0009DF80420DFF8183000940146284600F0F7
:1018E000DBFD03B030BD0000E92D00087D2C0008B1
:1018F000512F00080160897C80F82210704730B5B4
:10190000044681B06569002300222821A847E568C4
:101910000023002214212046A84701224B21204603
:1019200000F055FE206802792921204600F04FFE84
:1019300000224B21204600F04AFE2068027929212E
:10194000204600F044FE01224B21204600F03FFEDD
:1019500020684279204601B0BDE83040292100F0DE
:1019600036BE10B582B08DF805108DF806208DF8C2
:1019700004306B4604990091012284680F21A0472E
:1019800002B010BD10B58468002300220921A047D1
:1019900010BD10B58468002300220A21A04710BDA5
:1019A00010B50A46846800230B21A04710BD10B56E
:1019B0000A46846800230D21A04710BD10B50A46D1
:1019C000846800230E21A04710BD10B58468002351
:1019D00000221021A04710BD10B5044600F06FF999
:1019E000204600F079F90028FAD12046BDE81040E1
:1019F000002100F057B9F0B402461068956813183A
:101A0000506803EB5004C00748BF4D44A3422DD09B
:101A100013F8016B16F0030004BF13F8010BC01C90
:101A200031090F2907D113F8011B0F3103E013F817
:101A3000017B05F8017B401EF9D10029E6D013F89F
:101A4000010BC6F38107032F08BF13F8017B00EBDE
:101A50000720404228440026B71E8F421EBF10F8C0
:101A6000017B05F8017B761CF6D1CFE7F0BC02F1D3
:101A70000C0070470A7802704A7842708A78827047
:101A8000CA78C2700A7902714A7942718A79827180
:101A9000CA79C2710A7A027291F90930437291F9D6
:101AA0000A20827291F90B30C37291F90C200273F3
:101AB00091F90D30437391F90E20827391F90F3033
:101AC000C37391F9102002744B7C8A7C02EB0322D1
:101AD0004282CB7C0A7D02EB032282824B7D897D90
:101AE00001EB0321C1827047816D002900D170474D
:101AF00050B490F9812090F9823090F88D1080F8E0
:101B00008E20A1B1012907D190F983109142A8BF7D
:101B10000A4690F9841007E090F9801090F97E4011
:101B20000E19B242B8BF0A199942D8BF0B4680F8C5
:101B30008E2080F88F3050BC7047002070470949D4
:101B4000C165704710B50446A26D8A4208D0A165F0
:101B500004F17400FFF78EFF2046BDE81040C3E794
:101B600010BD00003B1B0008F0B404880D882D193F
:101B7000AFB2A74204D29C4238BF5D1E02D31446C6
:101B80009C4202D2AEB2B24202D3F0BC00207047F7
:101B9000A24238BF2246ADB2AB4288BF2B4602807C
:101BA00001209A1A0A80F0BC704730B581B09DF8C8
:101BB00010500095C48FC56A121B92B2A84701B09D
:101BC00030BD30B583B00546ADF80430ADF8062021
:101BD0000C4695F88C0000281CBFBDF804000028B6
:101BE0001CD0B5F848108C4218D3B5F84A0084428E
:101BF00014D2B5F84E30B5F84C2001A90DF106000D
:101C0000FFF7B2FF50B101200090214628462D6B0E
:101C1000BDF80430BDF80620AC68A04703B030BD65
:101C20000A460329A8BF012280F8922070470000CD
:101C3000016890F83820097C406B12FB01F1C90063
:101C400000F0CABC2DE9F041044682B0206894F847
:101C5000388094F83970467C00252068037CE9B20E
:101C60009E46606B11FB0EFE4FEACE4100EB114227
:101C700000920021FAB22046FFF773FE6D1C7F1C14
:101C8000E8B24045BCBFF8B2B042E6DB02B0BDE806
:101C9000F08110B50446FFF7D5FF2046BDE810409F
:101CA000FFF793BE10B50446226B84F83910116813
:101CB0008847226B51682046BDE81040084710B5A0
:101CC000044694F8930010B12046FFF7B1FF204678
:101CD000BDE810400021E5E730B581B00446FFF7CC
:101CE000B1FF94F8391094F8385022686D18517C7F
:101CF000E8B2884205D32046FFF767FE002001B016
:101D000030BD94F8930010B12046FFF791FFE9B27F
:101D10002046FFF7C7FF012001B030BD2DE9F04399
:101D200081B00F46DDF82480089C5FEAC8718146C7
:101D300015461E4610D56B1C621BB9199BB292B298
:101D400089B2FFF73EFF7B1CE21BA9199BB292B23E
:101D500089B24846FFF735FF5FEA887011D56B1CE2
:101D6000621BF11B9BB292B289B24846FFF729FF72
:101D70007B1CE21B711B9BB292B289B24846FFF7F3
:101D800020FF5FEA08700FD56B1CB9199BB2224681
:101D900089B24846FFF715FF7B1CA9199BB2224662
:101DA00089B24846FFF70DFF5FEA487012D56B1CF9
:101DB000F11B9BB2224689B24846FFF702FF7F1C07
:101DC000751BBBB22246A9B2484601B0BDE8F0433C
:101DD000FFF7F7BE01B0BDE8F08300002DE9F04F3A
:101DE000834614461F46381985B0401C884680B289
:101DF000009007EB08035B1CE21BA8EB07019BB2FA
:101E000092B289B2584600F0EAFBB8B3DDF83890D8
:101E1000CDF80490C7F1010000B202907D42009419
:101E200043463A46002158466D04FFF777FF2D14CC
:101E3000002638004FF0010A00F02080CDF80CB0E9
:101E4000DDF808B00FFA8BF0002813D5CDF8049018
:101E50000094761C03984346BAB2B1B2FFF75EFF16
:101E6000B1B2B8B20AF1020A8142D344EAD305B052
:101E7000BDE8F08FAD1C7F1EAB44E7E705B0BDE8C1
:101E8000F08F000030B581B0054600F0D1FB15F1B0
:101E9000010F044602D0054908782D1800F0C8FB50
:101EA000001BA842FAD301B030BD00BF844A002015
:101EB000B5EEC00AF1EE10FA02D4B1EEC00A7047D6
:101EC0006FF0004C00EE10CAAFF3008070470000C6
:101ED00010EE100AF44600F003F800EE100A604716
:101EE000C0F3C7527E3A09DD182A0CDA6FF07F4141
:101EF000D14020EA510040188843704700F000406C
:101F000008BF40F07E5070470149086070470000EC
:101F1000904A002030B50F4D0F4A297804464FF4FF
:101F20007A731068B3FBF1F181B0B0FBF1F000F00F
:101F300049F858B9102C09D2002221464FF0FF3041
:101F400000F016F8AC60002001B030BD012001B0F7
:101F500030BD00BF844A0020904A002022490A6810
:101F600060F30A2240F2FA5060F31F420A607047A1
:101F700070B41D4D2C68C4F30224C4F10703052B73
:101F80002FBF0F2501259D406D1E261D072E34BF36
:101F90000024E41E2940A140012303FA04F4641E36
:101FA000224011430A01010003D4104B5A5470BC63
:101FB00070470F4801F00F01014401F8042C70BC78
:101FC00070470000401EB0F1807F01D301207047B0
:101FD00008494860F02081F8130D00228A6007202C
:101FE00008600020704700000CED00E000E400E015
:101FF00018ED00E010E000E081B0002000900B48F8
:10200000416841F480414160416801F480410091A0
:102010000021009B0091026842F08052026000683B
:1020200000F080500090009801B0704740380240A6
:1020300062F30F2262F31F42401810F0030308D02E
:10204000C91A1FD3DB0748BF00F8012D28BF20F8AD
:10205000022D130030B414461546103928BF20E96C
:102060003C00FAD8490728BF20E90C0048BF40F8D7
:10207000042D890028BF20F8022D48BF00F8012D4B
:1020800030BC7047C91818BF00F8012DCB0728BF16
:1020900000F8012D704700002DE9F0410246086864
:1020A00090FAA0F3B3FA83F50F230124E84000F07F
:1020B0007A800E6804FA05F0304007D108686D1C7C
:1020C000E840F6D10020BDE8F08100BF90FAA0F60C
:1020D000B6FA86F7D1F804E07E004FF0030C0CFA54
:1020E00006FCBEF1010F6FEA0C0C19D1D1F8088083
:1020F000D2F808E00CEA0E0E08FA06F848EA0E08D4
:10210000C2F80880D2F80480D1F80CE028EA000870
:102110000EFB00FE4EEA0808C2F8048004E000BF8F
:10212000BEF1020F3FF4E2AFD1F81080D2F80CE01C
:102130000CEA0E0E08FA06F848EA0E08C2F80C80FF
:10214000D1F804E0BEF1020F08D04F6810680CEA25
:10215000000007FA06F606431660AFE7D1F814E070
:10216000082F0DD2D2F82080B80003FA00F728EA31
:1021700007070EFA00F040EA070EC2F820E0E4E795
:10218000000A90FAA0F0B0FA80F0D2F82480800023
:1021900003FA00F728EA07070EFA00F040EA070EF4
:1021A000C2F824E0D1E70020BDE8F08170B504005A
:1021B0000D46164601D1012070BD94F8490028B99A
:1021C000002184F848102046FFF70AFB206804F13C
:1021D000080100F033FAA2682068294600F05FFA8F
:1021E000236BA2686068314600F074FA2068A26828
:1021F00050F8221041F0010140F82210012084F82B
:102200004900002070BD00002DE9F04F81B000278B
:1022100000220023DFF8B081DFF8B0914FF00F0A01
:1022200001240D68BC4004EA050EA64540F0C280BA
:10223000032595404E686FEA050C06F00305012D55
:102240001CBF06F00306022E0FD18568CE680CEA8B
:102250000505964035438560456825EA04044D68C8
:10226000C5F30015BD402C4344600C7904F0030411
:10227000032C1CD0C5688C680CEA050594402543E6
:10228000C5600D7905F00305022D10D1FC0800EBA7
:10229000840403F01C05D4F820B00AFA05F62BEAF2
:1022A000060B0E6906FA05F545EA0B05256204687A
:1022B0000CEA04050C7904F00304944044EA050C8C
:1022C000C0F800C04C6814F4403F73D00024009460
:1022D0004FEA970CD9F8005045F48045C9F80050F2
:1022E000D9F8004004F480440094009D384C54F820
:1022F0002C6003F00C040AFA04F5AE43354DA842F5
:1023000017D0354DA84216D0344DA84215D0344DC3
:10231000A84214D0334DA84213D0334DA84212D056
:10232000324DA84211D0324DA84214BF08250725CE
:102330000CE000250AE0012508E0022506E003255F
:1023400004E0042502E0052500E0062505FA04F472
:102350001F4D344345F82C406FEA0E04D8F808C0EE
:102360004D6804EA0C0CEE0248BF4EEA0C0CC8F8AB
:1023700008C0D8F80CC04E6804EA0C0CB50248BF7F
:102380004EEA0C0CC8F80CC0D8F804C04E6804EA39
:102390000C0CB50348BF4EEA0C0CC8F804C0D8F8C2
:1023A00000C04D6804EA0C04ED0348BF4EEA040483
:1023B000C8F800407F1C1B1D921C0F2F7FF630AF0A
:1023C00001B0BDE8F08F0000003C014044380240FD
:1023D00008380140000002400004024000080240AA
:1023E000000C02400010024000140240001802409D
:1023F000001C024010B5040001D1012010BD60791D
:1024000020B9002121712046FFF73BFA01206071BD
:10241000002010BD00207047002101600849816044
:10242000C16001614161002180F8231080F826100D
:102430008161FF2180F8241080F828107047000087
:10244000152400082DE9F041069F06460C46154666
:102450009846FFF7E1FFB460F560C6F81080776139
:102460003046BDE8F041FFF78DBA0000142101703D
:10247000DFF80400704700009C4A00200022A0F80A
:102480005020A0F854204FF6FF71026BA0F85210B4
:10249000A0F856105168084730B581B00446049D35
:1024A00061630020A06584F8390084F86D0084F829
:1024B000910084F88D00E362012084F8382084F8CC
:1024C000920084F8930025632046296888472046B7
:1024D000FFF7D4FF2046FFF732FB002084F870009E
:1024E00001B030BD70B490F83820016890F83960C0
:1024F00090F83830D2008287F5180A7CD2004287E3
:10250000F200C2874C7CAC42B8BFA31BA0F84020AD
:1025100002EBC302A0F842208A8AA0F84420C98AAC
:10252000A0F8461070BC704710B5044682B0B4F8ED
:1025300056000090B4F85230B4F85420B4F850105B
:10254000204600F04CF820B3B4F85020B4F84810FE
:1025500001208A4238BF0A46A4F84820B4F84A103D
:10256000B4F852208A4288BF0A46A4F84A20B4F838
:102570004C10B4F854208A4238BF0A46A4F84C20C4
:10258000B4F84E10B4F856208A4288BF0A46A4F820
:102590004E2084F88C0002B010BDA3E7B0F84410C0
:1025A000A0F84A100022A0F84820B0F84210B0F875
:1025B0004020A0F84C20A0F84E10B5E710B582B02E
:1025C0009DF810400094FFF7F0FA02B010BD10B56E
:1025D00044690023A04710BD0022FFF72DBD70B451
:1025E00081B0B0F84E60049CB0F84C50B24202D2B8
:1025F000A54202D203E0A54216D2944214D2B0F80A
:102600004820B0F84A008142184605D2824205D2DD
:1026100001B070BC01207047824205D201B070BC8D
:102620008B428041C00F704701B070BC00207047E2
:1026300001484068704700BF844A0020F0B40B682E
:1026400050F823205208520040F823208D68082DAE
:102650000CBF402600260C6850F824702E4A4B68A8
:1026600017403E431E43CA680B69354315434A6908
:102670001D43CB6915430A6A1D434B6A15438A6A99
:102680001D43CB6A15430A6B1D438B69C96B154308
:102690001D430D4340F824500020F0BC704730B477
:1026A0000B684D688C6843EA0513CD6843EA042340
:1026B0000C6943EA0543641E43EA04534C69896983
:1026C000A41E43EA046300EB82000B434360002036
:1026D00030BC704770B4B3F5804F15D150F822501C
:1026E0000E4B0C684E681D4025438C688B69C96889
:1026F00045EA061545EA04251D4345EA014540F82B
:102700002250002070BC70476FF0704140F82210DA
:10271000002070BC704700008000F0FF0000F0CF88
:10272000000000000F000000F0000000FF000000AB
:10273000000F00000F0F0000F00F0000FF0F00005F
:1027400000F000000FF00000F0F00000FFF00000CB
:1027500000FF00000FFF0000F0FF0000FFFF00007F
:1027600000000F000F000F00F0000F00FF000F002F
:10277000000F0F000F0F0F00F00F0F00FF0F0F00E3
:1027800000F00F000FF00F00F0F00F00FFF00F004F
:1027900000FF0F000FFF0F00F0FF0F00FFFF0F0003
:1027A0000000F0000F00F000F000F000FF00F0006B
:1027B000000FF0000F0FF000F00FF000FF0FF0001F
:1027C00000F0F0000FF0F000F0F0F000FFF0F0008B
:1027D00000FFF0000FFFF000F0FFF000FFFFF0003F
:1027E0000000FF000F00FF00F000FF00FF00FF00EF
:1027F000000FFF000F0FFF00F00FFF00FF0FFF00A3
:1028000000F0FF000FF0FF00F0F0FF00FFF0FF000E
:1028100000FFFF000FFFFF00F0FFFF00FFFFFF00C2
:102820000000000F0F00000FF000000FFF00000F6E
:10283000000F000F0F0F000FF00F000FFF0F000F22
:1028400000F0000F0FF0000FF0F0000FFFF0000F8E
:1028500000FF000F0FFF000FF0FF000FFFFF000F42
:1028600000000F0F0F000F0FF0000F0FFF000F0FF2
:10287000000F0F0F0F0F0F0FF00F0F0FFF0F0F0FA6
:1028800000F00F0F0FF00F0FF0F00F0FFFF00F0F12
:1028900000FF0F0F0FFF0F0FF0FF0F0FFFFF0F0FC6
:1028A0000000F00F0F00F00FF000F00FFF00F00F2E
:1028B000000FF00F0F0FF00FF00FF00FFF0FF00FE2
:1028C00000F0F00F0FF0F00FF0F0F00FFFF0F00F4E
:1028D00000FFF00F0FFFF00FF0FFF00FFFFFF00F02
:1028E0000000FF0F0F00FF0FF000FF0FFF00FF0FB2
:1028F000000FFF0F0F0FFF0FF00FFF0FFF0FFF0F66
:1029000000F0FF0F0FF0FF0FF0F0FF0FFFF0FF0FD1
:1029100000FFFF0F0FFFFF0FF0FFFF0FFFFFFF0F85
:10292000000000F00F0000F0F00000F0FF0000F0E9
:10293000000F00F00F0F00F0F00F00F0FF0F00F09D
:1029400000F000F00FF000F0F0F000F0FFF000F009
:1029500000FF00F00FFF00F0F0FF00F0FFFF00F0BD
:1029600000000FF00F000FF0F0000FF0FF000FF06D
:10297000000F0FF00F0F0FF0F00F0FF0FF0F0FF021
:1029800000F00FF00FF00FF0F0F00FF0FFF00FF08D
:1029900000FF0FF00FFF0FF0F0FF0FF0FFFF0FF041
:1029A0000000F0F00F00F0F0F000F0F0FF00F0F0A9
:1029B000000FF0F00F0FF0F0F00FF0F0FF0FF0F05D
:1029C00000F0F0F00FF0F0F0F0F0F0F0FFF0F0F0C9
:1029D00000FFF0F00FFFF0F0F0FFF0F0FFFFF0F07D
:1029E0000000FFF00F00FFF0F000FFF0FF00FFF02D
:1029F000000FFFF00F0FFFF0F00FFFF0FF0FFFF0E1
:102A000000F0FFF00FF0FFF0F0F0FFF0FFF0FFF04C
:102A100000FFFFF00FFFFFF0F0FFFFF0FFFFFFF000
:102A2000000000FF0F0000FFF00000FFFF0000FFAC
:102A3000000F00FF0F0F00FFF00F00FFFF0F00FF60
:102A400000F000FF0FF000FFF0F000FFFFF000FFCC
:102A500000FF00FF0FFF00FFF0FF00FFFFFF00FF80
:102A600000000FFF0F000FFFF0000FFFFF000FFF30
:102A7000000F0FFF0F0F0FFFF00F0FFFFF0F0FFFE4
:102A800000F00FFF0FF00FFFF0F00FFFFFF00FFF50
:102A900000FF0FFF0FFF0FFFF0FF0FFFFFFF0FFF04
:102AA0000000F0FF0F00F0FFF000F0FFFF00F0FF6C
:102AB000000FF0FF0F0FF0FFF00FF0FFFF0FF0FF20
:102AC00000F0F0FF0FF0F0FFF0F0F0FFFFF0F0FF8C
:102AD00000FFF0FF0FFFF0FFF0FFF0FFFFFFF0FF40
:102AE0000000FFFF0F00FFFFF000FFFFFF00FFFFF0
:102AF000000FFFFF0F0FFFFFF00FFFFFFF0FFFFFA4
:102B000000F0FFFF0FF0FFFFF0F0FFFFFFF0FFFF0F
:102B100000FFFFFF0FFFFFFFF0FFFFFFFFFFFFFFC3
:102B20002DE9F0430E2995B0804617461C4600F06B
:102B300096800F2940F09E8000F00FF962796B4972
:102B400098F82260DFF8A891D206120E82FB0101EC
:102B50007618F421404600F0EBF8F1B2404600F060
:102B6000E7F8A579F521404600F0E2F8ED00E9B27A
:102B7000404600F0DDF8F621404600F0D9F806F1B5
:102B80003501C9B2404600F0D3F8F721404600F0C5
:102B9000CFF8D8F80000417C4919C9B2404600F08E
:102BA000C7F806F00F01404600F0C2F83606360FAF
:102BB00046F01001404600F0BBF805F00F0141F06F
:102BC0006001404600F0B4F82D062D0F45F070016D
:102BD000404600F0ADF8257920680090ED062D0EF6
:102BE00001AE0021012D2FDB2C460098401C0090E7
:102BF0008AB210F801CD59F82C00030EB354491CC9
:102C00008BB2020CF254491C8AB2030AB354491C19
:102C10008AB2491CB05488B2502802D0641EE4D154
:102C20000BE001AA5021404600F090F8002201215B
:102C3000404600F08BF80021F0E788B220B101AAED
:102C4000C9B2404600F082F87F1EF8B20028C8D111
:102C5000404600F089F8012015B0BDE8F08300F08F
:102C60007CF88121404600F063F83946404600F088
:102C700066F8EDE7002015B0BDE8F08370B50446B6
:102C80000E461546FFF74CFF30BB093E042E24D8F4
:102C9000DFE806F003090E23180000BF1EA120463E
:102CA000FEF728FE18E02046FEF729FE114905E050
:102CB000002D0CBF0FF240010FF24401204600F03E
:102CC0005BF809E055B900BF0FA1204600F054F8A9
:102CD0002068807C84F82200012070BD0CA1204671
:102CE00000F04AF82068C07CF4E7000056555555BE
:102CF00020270008D02F00081815AD19FF0000008C
:102D00001815AC19FF0000001815C419FF000000C9
:102D10001815C019FF00000000010A0A14C80A3C77
:102D200000127A0000041E5014142525A000A000F3
:102D300010B50A46C46800231521A04710BD10B580
:102D40000A46C46800231621A04710BD10B51346DB
:102D50000A46C4681721A04710BD10B5C4680023F7
:102D600000221821A04710BD10B5C468002300221E
:102D70001921A04710BD000070B582B004460D4671
:102D80000AE000BF15F8010B8DF800000023024691
:102D9000E6682046B04700BF15F8011BA1F11502F7
:102DA000012AEFD9921E07D0521E012A0FD9E63A06
:102DB00010D002B070BD00BF15F8011B8DF80010D7
:102DC0006B46E668012217212046B047E4E700235E
:102DD0000022DDE715F8010B8DF8000002462921DD
:102DE0002046FFF7F4FBD7E7F0B504460F46A7F1FE
:102DF0001400052881B015461E461BD8DFE800F0F8
:102E00001203030E12120021204600F017F8294683
:102E1000204600F01AF8012001B0F0BD0121204643
:102E200000F00CF82046246933462A463946A0476C
:102E300001B0F0BD002001B0F0BD000010B50A46A1
:102E4000046900232021A04710BD12B581B0046998
:102E500001AB01221721A04702B010BD00B52839EF
:102E60002D2981B033D8DFE801F02417242424244D
:102E70003232323232323232323232323232323232
:102E80003232242424242424242424241D272424EA
:102E900024242424242424241046FEF7F3FF0120B4
:102EA00001B000BD002A14BF26494FF0C04126489A
:102EB0000160012001B000BD244812B94FF08061CB
:102EC000F6E74FF480620260012001B000BD0121ED
:102ED00080F82710012001B000BD30B5143981B051
:102EE00029D0C91E07D0491E012924D9083925D067
:102EF000002001B030BD10001DD012F003001249B7
:102F000005D00C6813F8015B2570401EF9D19208BA
:102F100011D0086813F8014B0470521E0C6813F8A6
:102F2000010B2070086813F8014B04700C6813F84B
:102F3000010B2070EDD1012001B030BD4A21FFF717
:102F400046FBF8E7000001607857002018000240B7
:102F5000F0B4044601F007072068049D067C802039
:102F6000F840C908676B06FB021189B23944CDB934
:102F700094F89250012D03DC0A78024381F8002076
:102F800094F89250012D02D00A7842400A7040080D
:102F900005D05B1E9AB2002AEAD1F0BC70478020AF
:102FA000491CF6E794F89220012A03DC0D780543CA
:102FB00081F8005094F89220012A02D00D78454003
:102FC0000D705B1E9AB2002A3144EBD1F0BC704701
:102FD0001815E2FE0A15E9152B152415811596150D
:102FE000A415A615C415A115D115D5158415C81598
:102FF0001015DA15F4152515F6155A15F5150015E1
:10300000F7159F15F81589154015501590150015E1
:103010008415F1159F15F2150015F315A015AC19BF
:10302000FF00000030B4002412E050F8043BDA073F
:1030300044BF4B445B1E091F042943F8044BFAD2DA
:103040001A468D0744BF1C80921CCB0748BF1470E2
:1030500050F8041B0029E8D130BC704710B500F0CF
:1030600013F8020000230024E4431068A04203D0B8
:1030700011000220ABBE13605068A04203D0111DA6
:103080000220ABBE536010BD00487047944A002038
:1030900010B5034A7A440832024C7C44A41D03E074
:1030A000400000005C00000004E01168101D1144A5
:1030B00088470246A242F8D110BD00004EF6885162
:1030C000CEF20001086840F470000860BFF34F8F33
:1030D000BFF36F8F4FF00170E1EE100A70470000F0
:1030E00045FFFFFFE00C00009C4A002000000000AC
:1030F00007E9FFFF04020000D001000000000020EB
:1031000000F00DF8002801D0FFF7C2FFAFF30080F8
:103110000020AFF30080FDF7ABFF00F002F80120C4
:10312000704700F001B800000746384600F002F88A
:10313000FBE7000080B5FFF791FF024A110018205D
:10314000ABBEFBE7260002000548014603B4684613
:1031500080F30988AFF30080FFF7B0FFFFF7D0FFDF
:10316000A5EDF5FEFEE7FEE7FEE7FEE7FEE77047AA
:103170007047704700F000B8024842680178511863
:1031800041607047844A0020014880470148004759
:1031900099310008493100080249086840F470007C
:1031A0000860704788ED00E09B2500089D25000819
:1031B000BD250008FFF7FEBFFFF7FEBFFFF7FEBF0C
:1031C000FFF7FEBFFFF7FEBFFFF7FEBFFFF7FEBF33
:1031D000FFF7FEBFFFF7FEBFFFF7FEBFFFF7FEBF23
:1031E000FFF7FEBFFFF7FEBFFFF7FEBFFFF7FEBF13
:1031F000FFF7FEBFFFF7FEBFFFF7FEBFFFF7FEBF03
:10320000FFF7FEBFFFF7FEBFFFF7FEBFFFF7FEBFF2
:10321000FFF7FEBFFFF7FEBFFFF7FEBFFFF7FEBFE2
:10322000FFF7FEBFFFF7FEBFFFF7FEBFFFF7FEBFD2
:10323000FFF7FEBFFFF7FEBFFFF7FEBFFFF7FEBFC2
:10324000FFF7FEBFFFF7FEBFFFF7FEBFFFF7FEBFB2
:10325000FFF7FEBFFFF7FEBFFFF7FEBFFFF7FEBFA2
:10326000FFF7FEBFFFF7FEBFFFF7FEBFFFF7FEBF92
:10327000FFF7FEBFFFF7FEBFFFF7FEBFFFF7FEBF82
:10328000FFF7FEBFFFF7FEBFFFF7FEBFFFF7FEBF72
:10329000FFF7FEBFFFF7FEBFFFF7FEBFFFF7FEBF62
:1032A000FFF7FEBFFFF7FEBFFFF7FEBFFFF7FEBF52
:1032B000FFF7FEBFFFF7FEBFFFF7FEBFFFF7FEBF42
:1032C000FFF7FEBFFFF7FEBFFFF7FEBFFFF7FEBF32
:1032D000FFF7FEBFFFF7FEBFFFF7FEBFFFF7FEBF22
:1032E000FFF7FEBFFFF7FEBFFFF7FEBFFFF7FEBF12
:1032F000FFF7FEBFFFF7FEBFF2FF0001F1FF01F194
:10330000FF01F1FF01F1FF01F1FF01F1FF01F1FF09
:1033100001F1CE01F001FF39300001F1FF01F1FFB1
:1033200001F1FF01F1FF01F1FF01F1FF01F1FF01E7
:10333000F1FF01F1FF01F1FF01F1FF01F1FF01F1E7
:10334000FF01F1FF01F1FF01F1FF01F1FF01F1FFC9
:1033500001F1FF01F1FF01F1FF01F1FF01F1FF01B7
:10336000F1FF01F1FF01F1FF01F1FF01F1FF01F1B7
:10337000FF01F1FF01F1FF01F1FF01F1FF01F1FF99
:1033800001F1FF01F1FF01F1FF01F1FF01F1FF0187
:10339000F1FF01F1FF01F1FF01F1FF01F1FF01F187
:1033A000FF01F1FF01F1FF01F1FF01F1FF01F1FF69
:1033B00001F1FF01F1FF01F1FF01F1FF01F1FF0157
:1033C000F1FF01F1FF01F1FF01F1FF01F1FF01F157
:1033D00040015E012341221008500224F400FF0145
:040000050800314975
:00000001FF
