:020000040800F2
:10000000A8050020E1130008BD130008BF13000875
:10001000C1130008C3130008C51300080000000046
:10002000000000000000000000000000C7130008EE
:10003000C913000800000000CB130008CD1300080E
:100040000114000805140008091400080D14000824
:100050001114000815140008191400081D140008D4
:100060002114000825140008291400082D14000884
:100070003114000835140008391400083D14000834
:100080004114000845140008491400084D140008E4
:100090005114000855140008591400085D14000894
:1000A0006114000865140008691400086D14000844
:1000B0007114000875140008791400087D140008F4
:1000C0008114000885140008891400088D140008A4
:1000D0009114000895140008991400089D14000854
:1000E000A1140008A5140008A9140008AD14000804
:1000F000B1140008B5140008B9140008BD140008B4
:10010000C1140008C5140008C9140008CD14000863
:10011000D1140008D5140008D9140008DD14000813
:10012000E1140008E5140008E9140008ED140008C3
:10013000F1140008F5140008F9140008FD14000873
:100140000115000805150008091500080D1500081F
:100150001115000815150008191500081D150008CF
:100160002115000825150008291500082D1500087F
:100170003115000835150008391500080000000089
:100180003D1500084115000800F064BB00000000A8
:100190001221DFF85406DFF8543601740022DFF82C
:1001A000501641604274012180F825104FF08442BE
:1001B000DFF84016416182601222DFF83C16C1610F
:1001C00080F82420122180F838100222DFF82C1643
:1001D000016380F83920122180F84C100322DFF8E7
:1001E00020160164C360122180F8601080F84D2051
:1001F0000422DFF81016DFF8103681650362122141
:1002000080F8741080F861200522DFF80016DFF80E
:100210000036C1664363122180F8752080F888108B
:10022000DFF8F035DFF8F025DFF8F015836442667B
:10023000C0F880100622DFF8E835C365122180F887
:10024000892080F89C100722DFF8D835DFF8D81510
:10025000036780F89D20C0F89410DFF8D035DFF8F0
:10026000D025C0F884301221B3EE040A9FED1C2A79
:10027000C0F88C2080F8B01080ED000A80ED062ACE
:1002800080ED112A80ED150ADFED160A9FED161A92
:10029000F2EE041A9FED152AB1EE040ADFF8943548
:1002A000DFF89415C0ED0A0A082280ED0B1AC0EDA4
:1002B0000F1A80ED142AC0ED1A0A80ED1E0A80ED97
:1002C0001F0A80ED242AC0F8983080F8B12080ED14
:1002D000281AC0ED291AC0ED2A1AC0F8AC107047D0
:1002E000000020420000C8420000A042000002437B
:1002F0002DE9F0472DED0A8B00F0B2FA00F022FA5A
:1003000000F0CAFA00F00AFB00F080FB00F0AEFB40
:100310004FF4FA7000F05AFC812000F09FFB962009
:1003200000F09CFBFFF734FFFFF72EFFB7EE008ACB
:10033000DFED058A9FED059ADFF8AC94DFED049AB6
:100340009FED04AA804681E0000020C30100204305
:10035000CDCC4C3DCECC4C3DB6EE000A20EE800A12
:1003600060EE2A0A97ED001A30EE811A87ED001A26
:1003700020EE0B0AD7ED011A70EE211AC7ED011A13
:1003800095ED001A71EE600AC5ED000AD5ED011A6F
:1003900031EEC00A85ED010A1435641E40F0068175
:1003A00034461437082C40F3F5804F460925787CF5
:1003B000D7ED011A97ED000A97F810A009EB800617
:1003C000B6EE001AD6F80421D6F8DC10D6F8B40040
:1003D000F6EE000A31EE811A70EE200AD3B2FDEE7D
:1003E000C1AABDEEE0BAD2B2C9B2C0B200F0B8FB49
:1003F0006424002000F036FB002000F033FB0020D6
:1004000000F030FB641EF4D11AEE900AC1B21BEE6C
:10041000100A53465246C0B200F0A2FB6424FF20EB
:1004200000F020FBFF2000F01DFBFF2000F01AFB76
:10043000641EF4D114376D1E86ED2DBAC6ED37AAB1
:10044000C6F804A1B3D1322000F0C0FBFFF79CFE38
:10045000A0EB080100EE101AF8EE400A9FEDB80A72
:1004600080EE801AB5EE401AF1EE10FAEED9B4EE35
:100470004A1AF1EE10FAA8BFB0EE691A8046494652
:100480005FF00900D1ED021A91ED000A01EE810A38
:1004900081ED000AD1ED030A91ED010A00EE810A17
:1004A00081ED010A91ED000AB5EE400AF1EE10FA75
:1004B00024D40A7C91ED000A00EE902AF8EE600A3E
:1004C00030EE800AB4EE490AF1EE10FA80F2228092
:1004D00091ED010AB5EE400AF1EE10FA00F132801A
:1004E00000EE902AF8EE600A91ED010A30EE800AE3
:1004F000B4EE490AF1EE10FA46DB2FE0B1EE400A05
:1005000081ED000A91ED020AB1EE400A81ED020A86
:10051000CFE700BF00EE102AD1ED000AB8EE400A86
:1005200030EE200A30EE280AF8EE001A40EE210ADA
:10053000C1ED000A91ED020AB1EE400A81ED020A16
:10054000C6E700BFF1EE400A91ED030AC1ED010AD2
:10055000B1EE400A81ED030AC2E700BF00EE902A27
:1005600091ED010AF8EE600A70EE800A70EEA80ABA
:10057000F8EE001A00EEA10A81ED010A91ED030ADE
:10058000B1EE400A81ED030A1431401E7FF47AAFC8
:1005900000244F46661C082E3FF702AF04EB840090
:1005A00009EB800000F11405C4F10804387C97EDD4
:1005B000000A95ED001A00EE900AF8EE600A70EE5F
:1005C000800AB4EE601AF1EE10FABFF6E5AE287CB0
:1005D00000EE900AF8EE600A30EE811AB4EE410A9D
:1005E000F1EE10FABFF6D8AE387C97ED010A95ED22
:1005F000011A00EE900AF8EE600A70EE800AB4EE7E
:10060000601AF1EE10FABFF6C7AE287C00EE900A31
:10061000F8EE600A30EE811AB4EE410AF1EE10FAFB
:10062000BFF6BAAE387C97ED001A00EE100ABBEEAA
:10063000670A30EE011A00EE900A287C97ED010A55
:10064000FBEE670A30EE800A01EE900AFBEE671AB5
:10065000D5ED000A71EEA01A02EE100ABBEE672A71
:10066000D5ED010A71EE61BA72EE200AF0EE6BAAC6
:1006700030EE60CAF5EE40AAB0EE4CBAF1EE10FAD8
:1006800004BFB5EE40BAF1EE10FA55D02AEEAA0A30
:100690000BEE0B0A00F0B0FACAEE80AA8BEE00BA9D
:1006A00097ED020AD7ED030AD5ED021A95ED031A6C
:1006B00097ED032A20EE2A0A00EE8B0A61EEAA0AC1
:1006C00041EE0B0A30EEC01AD7ED021A41EE2A1A9B
:1006D00001EE0B2AC7ED021A87ED032A30EE600AFD
:1006E000D5ED020A95ED031A40EE2A0A00EE0B1A28
:1006F000C5ED020A85ED031A397C287C401800EE0E
:10070000900A287CFAEEEF0AB0EECC1A70EEC10A1D
:10071000401801EE100AB0EEEB0ABAEEEF1A31EE15
:10072000400A00F08DFAF0EE400AF5EE400AF1EED4
:1007300010FA7FF731AE0FE6F0EE48AAA6E7000008
:1007400000007A4430B53D4A81B0D2F80004052358
:1007500063F30200C2F80004D2F8000400F00700BE
:100760000528F9D1364C216841F480412160106898
:1007700040F48030106010688003FCD55568314823
:10078000314905400D435560556825F440355560A5
:10079000106840F08070106010688001FCD56068BF
:1007A0004004FCD5916821F0F0019160042190682B
:1007B00063F38C209060906861F34F30906002206A
:1007C000916860F301019160906800F00C000828C6
:1007D000FAD11E4800F04AFA0F2000F04DFA08B195
:1007E00072B6FEE701B030BD1C00002000000442DC
:1007F0000000F041000070420000C0C100007041E4
:100800000000F042000090C100005842000040414A
:10081000000070C20000F0C1000048420000E0414A
:1008200000008442000034C20000A0C10000284241
:1008300000000C43000010C2000096420038024045
:10084000007000400080BFFF042A4000007A030AC5
:1008500072B6FEE701484068704700BF0000002004
:1008600000B50C4881B0016841F400710160026874
:1008700042F480620260016841F4807101600320EB
:1008800000F01EFA0F2000F0F7F900F067FA0020E0
:1008900001B000BD003C024000B587B01821002225
:1008A00001A800F077FA1B48026842F0800202605B
:1008B000016801F080010091009B026842F0100283
:1008C0000260016801F010010091009A036843F092
:1008D000080303600123016801F008010091009AF8
:1008E000016841F0010101604FF08062006800F092
:1008F000010000904FF480610098074882610191E7
:100900000022029303920492059201A900F076FA64
:1009100007B000BD303802400000024000B587B08B
:100920001C210022684600F035FA33484FF0204180
:1009300001F58272426001600022C2604261C261C0
:100940004262C26202634263826342640021816048
:1009500001618161016201230B22019302924FF434
:10096000805181620F23102203930492022100918F
:100970001123002205930692694600F0C9FA08B1D6
:10098000FFF766FF07B000BD00B587B01421002255
:1009900001A800F0FFF91949086850BB01220A605C
:1009A00000904FF4F0621648016841F001010160C7
:1009B0000221006800F001000090009B11480192A4
:1009C000029100220392032104910C22059201A9B5
:1009D00000F0CCFA02210291002203924CF6B300FF
:1009E0000321019004910C22059201A9064800F010
:1009F000BDFA07B000BD000048010020A0010020A2
:100A00003838024000100240000C024010481149E2
:100A100000B5016081B000F09FFB20B101B05DF82E
:100A200004EBFFF715BF01B000BD81B002680949B2
:100A30008A420BD1002000900748016841F48051A0
:100A40000160006800F480500090009801B0704789
:100A50009801002000300240303802404FF0C04181
:100A600008707047DFF854110870704770B50520A2
:100A700000F0ACF8DFF848414FF4806525601420A1
:100A800000F0A4F84FF080602060F126142000F000
:100A90009DF82560C82000F099F84FF0C044E2208E
:100AA00020709F25642000F091F8E92222702B210C
:100AB0002170242020708123DFF808212370A420D6
:100AC000117821702070A6232370C4222270A121E6
:100AD0002170D1202070D523237084222270C82158
:100AE000217010202070DA232370F4222270252137
:100AF0002170F62020705A232370F52222700021E5
:100B00002170F72020709F232370F8222270892102
:100B100021704020207050232370902222700021E9
:100B200021708420207026702570F223237021709C
:100B3000A020F32121702070602323707022227086
:100B40001221217005202070A0211C4B0022512071
:100B5000401E1A70FCD1491EF9D1AD20207070BD25
:100B6000F0B4194D184E80FB054505F125004FF0F6
:100B7000C044F42525702070F5252570217082FB76
:100B80000656F627351827706A1E22705B18F72262
:100B900022705F1E277000F00F030009237040F0E1
:100BA0001000207001F00F0040F060000909207073
:100BB00041F070012170F0BC70470000000001603E
:100BC00018000240180000205655555530B581B028
:100BD0000546FFF73FFE15F1010F044602D0054917
:100BE00008782D18FFF736FE001BA842FAD301B093
:100BF00030BD00BF00000020B5EEC00AF1EE10FAD3
:100C000002D4B1EEC00A70476FF0004C00EE10CA7B
:100C1000AFF3008070470EE002684368024408307A
:100C20005FEAC37C44BF4B445B1E52F804CB43F8DD
:100C300004CB091FF9D150F8041B0029ECD17047EF
:100C400010EE100AF5EE400AF1EE10FA09D604BFD4
:100C5000C04207E0B4EE600AF1EE10FAB8BFB0EEA1
:100C6000600A704728BFB0EE600A7047014908600B
:100C7000704700000C00002030B50F4D0F4A297856
:100C800004464FF47A731068B3FBF1F181B0B0FB06
:100C9000F1F000F049F858B9102C09D20022214691
:100CA0004FF0FF3000F016F8AC60002001B030BD0E
:100CB000012001B030BD00BF000000200C0000206A
:100CC00022490A6860F30A2240F2FA5060F31F4298
:100CD0000A60704770B41D4D2C68C4F30224C4F13F
:100CE0000703052B2FBF0F2501259D406D1E261DD7
:100CF000072E34BF0024E41E2940A140012303FA3B
:100D000004F4641E224011430A01010003D4104B75
:100D10005A5470BC70470F4801F00F01014401F8AC
:100D2000042C70BC70470000401EB0F1807F01D3DE
:100D30000120704708494860F02081F8130D002217
:100D40008A60072008600020704700000CED00E07A
:100D500000E400E018ED00E010E000E081B00020C9
:100D600000900B48416841F480414160416801F4C2
:100D7000804100910021009B0091026842F0805266
:100D80000260006800F080500090009801B0704749
:100D90004038024062F30F2262F31F42401810F005
:100DA000030308D0C91A1FD3DB0748BF00F8012D81
:100DB00028BF20F8022D130030B414461546103910
:100DC00028BF20E93C00FAD8490728BF20E90C00D9
:100DD00048BF40F8042D890028BF20F8022D48BFE5
:100DE00000F8012D30BC7047C91818BF00F8012D5C
:100DF000CB0728BF00F8012D704700002DE9F04116
:100E00000246086890FAA0F3B3FA83F50F23012491
:100E1000E84000F07A800E6804FA05F0304007D10F
:100E200008686D1CE840F6D10020BDE8F08100BFE5
:100E300090FAA0F6B6FA86F7D1F804E07E004FF0FB
:100E4000030C0CFA06FCBEF1010F6FEA0C0C19D171
:100E5000D1F80880D2F808E00CEA0E0E08FA06F87D
:100E600048EA0E08C2F80880D2F80480D1F80CE0F5
:100E700028EA00080EFB00FE4EEA0808C2F80480CB
:100E800004E000BFBEF1020F3FF4E2AFD1F81080E2
:100E9000D2F80CE00CEA0E0E08FA06F848EA0E0842
:100EA000C2F80C80D1F804E0BEF1020F08D04F6800
:100EB00010680CEA000007FA06F606431660AFE772
:100EC000D1F814E0082F0DD2D2F82080B80003FA30
:100ED00000F728EA07070EFA00F040EA070EC2F80A
:100EE00020E0E4E7000A90FAA0F0B0FA80F0D2F82F
:100EF0002480800003FA00F728EA07070EFA00F0C2
:100F000040EA070EC2F824E0D1E70020BDE8F081F6
:100F100070B504000D46164601D1012070BD94F84D
:100F2000490028B9002184F848102046FFF72CFD1D
:100F3000206804F1080100F01FF9A2682068294622
:100F400000F04BF9236BA2686068314600F060F94D
:100F50002068A26850F8221041F0010140F82210E8
:100F6000012084F84900002070BD00002DE9F04FF9
:100F700081B0002700220023DFF8B081DFF8B091B4
:100F80004FF00F0A01240D68BC4004EA050EA64587
:100F900040F0C280032595404E686FEA050C06F0CC
:100FA0000305012D1CBF06F00306022E0FD1856834
:100FB000CE680CEA0505964035438560456825EA0C
:100FC00004044D68C5F30015BD402C4344600C7902
:100FD00004F00304032C1CD0C5688C680CEA0505DA
:100FE00094402543C5600D7905F00305022D10D10D
:100FF000FC0800EB840403F01C05D4F820B00AFAC6
:1010000005F62BEA060B0E6906FA05F545EA0B050F
:10101000256204680CEA04050C7904F0030494408A
:1010200044EA050CC0F800C04C6814F4403F73D08B
:10103000002400944FEA970CD9F8005045F48045FD
:10104000C9F80050D9F8004004F480440094009D91
:10105000384C54F82C6003F00C040AFA04F5AE4343
:10106000354DA84217D0354DA84216D0344DA84270
:1010700015D0344DA84214D0334DA84213D0334D6F
:10108000A84212D0324DA84211D0324DA84214BF0E
:10109000082507250CE000250AE0012508E00225C7
:1010A00006E0032504E0042502E0052500E006250E
:1010B00005FA04F41F4D344345F82C406FEA0E0442
:1010C000D8F808C04D6804EA0C0CEE0248BF4EEA9E
:1010D0000C0CC8F808C0D8F80CC04E6804EA0C0C18
:1010E000B50248BF4EEA0C0CC8F80CC0D8F804C0D2
:1010F0004E6804EA0C0CB50348BF4EEA0C0CC8F865
:1011000004C0D8F800C04D6804EA0C04ED0348BFE1
:101110004EEA0404C8F800407F1C1B1D921C0F2FD0
:101120007FF630AF01B0BDE8F08F0000003C014019
:1011300044380240083801400000024000040240E8
:1011400000080240000C024000100240001402405F
:1011500000180240001C024010B5040001D101201B
:1011600010BD607920B9002121712046FFF75DFC98
:1011700001206071002010BDF0B40B6850F82320EE
:101180005208520040F823208D68082D0CBF4026DD
:1011900000260C6850F824702E4A4B6817403E43D6
:1011A0001E43CA680B69354315434A691D43CB6921
:1011B00015430A6A1D434B6A15438A6A1D43CB6A6D
:1011C00015430A6B1D438B69C96B15431D430D43C2
:1011D00040F824500020F0BC704730B40B684D68D4
:1011E0008C6843EA0513CD6843EA04230C6943EA9B
:1011F0000543641E43EA04534C698969A41E43EA0B
:10120000046300EB82000B434360002030BC704756
:1012100070B4B3F5804F15D150F822500E4B0C68C6
:101220004E681D4025438C688B69C96845EA0615E0
:1012300045EA04251D4345EA014540F822500020B7
:1012400070BC70476FF0704140F82210002070BCF5
:10125000704700008000F0FF0000F0CF30B40024A1
:1012600012E050F8043BDA0744BF4B445B1E091FF1
:10127000042943F8044BFAD21A468D0744BF1C8058
:10128000921CCB0748BF147050F8041B0029E8D10A
:1012900030BC704710B500F013F8020000230024A2
:1012A000E4431068A04203D011000220ABBE1360DB
:1012B0005068A04203D0111D0220ABBE536010BD88
:1012C000004870471000002010B5034A7A440832E5
:1012D000024C7C44A41D03E04000000060000000BC
:1012E00004E01168101D114488470246A242F8D15B
:1012F00010BD00004EF68851CEF20001086840F49F
:1013000070000860BFF34F8FBFF36F8F4FF0017015
:10131000E1EE100A7047000045FFFFFF8801000062
:101320001C00002000000000EFF8FFFF1C00000080
:1013300070000000000000200000000000F00DF828
:10134000002801D0FFF7C0FFAFF300800020AFF30B
:101350000080FEF7CDFF00F002F80120704700F09A
:1013600001B800000746384600F002F8FBE700002D
:1013700080B5FFF78FFF024A11001820ABBEFBE7D4
:10138000260002000548014603B4684680F3098838
:10139000AFF30080FFF7AEFFFFF7D0FFA5EDF5FE3E
:1013A0000100000000000000100000000024F40014
:1013B000FFFFFFFFFFFFFFFFBF000000FEE7FEE7AC
:1013C000FEE7FEE7FEE770477047704700F000B8A1
:1013D00002484268017851184160704700000020BF
:1013E0000148804701480047F113000885130008B1
:1013F0000249086840F470000860704788ED00E01A
:10140000FFF7FEBFFFF7FEBFFFF7FEBFFFF7FEBF10
:10141000FFF7FEBFFFF7FEBFFFF7FEBFFFF7FEBF00
:10142000FFF7FEBFFFF7FEBFFFF7FEBFFFF7FEBFF0
:10143000FFF7FEBFFFF7FEBFFFF7FEBFFFF7FEBFE0
:10144000FFF7FEBFFFF7FEBFFFF7FEBFFFF7FEBFD0
:10145000FFF7FEBFFFF7FEBFFFF7FEBFFFF7FEBFC0
:10146000FFF7FEBFFFF7FEBFFFF7FEBFFFF7FEBFB0
:10147000FFF7FEBFFFF7FEBFFFF7FEBFFFF7FEBFA0
:10148000FFF7FEBFFFF7FEBFFFF7FEBFFFF7FEBF90
:10149000FFF7FEBFFFF7FEBFFFF7FEBFFFF7FEBF80
:1014A000FFF7FEBFFFF7FEBFFFF7FEBFFFF7FEBF70
:1014B000FFF7FEBFFFF7FEBFFFF7FEBFFFF7FEBF60
:1014C000FFF7FEBFFFF7FEBFFFF7FEBFFFF7FEBF50
:1014D000FFF7FEBFFFF7FEBFFFF7FEBFFFF7FEBF40
:1014E000FFF7FEBFFFF7FEBFFFF7FEBFFFF7FEBF30
:1014F000FFF7FEBFFFF7FEBFFFF7FEBFFFF7FEBF20
:10150000FFF7FEBFFFF7FEBFFFF7FEBFFFF7FEBF0F
:10151000FFF7FEBFFFF7FEBFFFF7FEBFFFF7FEBFFF
:10152000FFF7FEBFFFF7FEBFFFF7FEBFFFF7FEBFEF
:10153000FFF7FEBFFFF7FEBFFFF7FEBFFFF7FEBFDF
:04154000FFF7FEBFF4
:040000050800138557
:00000001FF
