:020000040800F2
:10000000700400206D530008555300085753000832
:10001000595300085B5300085D53000800000000BE
:100020000000000000000000000000005F53000816
:100030006153000800000000635300086553000886
:10004000995300089D530008A1530008A5530008C8
:10005000A9530008AD530008B1530008B553000878
:10006000B9530008BD530008C1530008C553000828
:10007000C9530008CD530008D1530008D5530008D8
:10008000D9530008DD530008E1530008E553000888
:10009000E9530008ED530008F1530008F553000838
:1000A000F9530008FD5300080154000805540008E6
:1000B000095400080D540008115400081554000894
:1000C000195400081D540008215400082554000844
:1000D000295400082D5400083154000835540008F4
:1000E000395400083D5400084154000845540008A4
:1000F000495400084D540008515400085554000854
:10010000595400085D540008615400086554000803
:10011000695400086D5400087154000875540008B3
:10012000795400087D540008815400088554000863
:10013000895400088D540008915400089554000813
:10014000995400089D540008A1540008A5540008C3
:10015000A9540008AD540008B1540008B554000873
:10016000B9540008BD540008C1540008C554000823
:10017000C9540008CD540008D15400080000000004
:10018000D5540008D95400087BEE73CD6BAD73CD08
:10019000638D6BAC63AD73CE73CE73EE73AD638C56
:1001A000638C638C638C6BAE6B8A4A6B63AE73AD8E
:1001B0006BAD638B5A6B638C638C63AE6BAC638C7F
:1001C0006BAD6BAD626A5A6B5A4A5B8D638C63ADE3
:1001D000638B638B5A6B638B5A6C7C0F7C0F6A6CDE
:1001E0005A4B5A6D6A69422A4A4B73EE624A4A294F
:1001F000638D73CE6B8C638C5A6B5A6C638B526CB1
:100200006BAD6BAD6BCE73AC5A6A524B5A6B524BA3
:10021000526D626A526C6BCE73AD6BAC5B8B524BA2
:100220005B8B5A6B5B8C6B8C638C638C626B5249FF
:10023000524B5A29524B5A6B5B8C5A4A524A5A4B70
:10024000626A524B6BAD6BAE73AC5A49524942086D
:1002500039E84209524A4A294A284A6B73CE6B8CC4
:100260005A6B5A6B526B5B8B526D6BCD6BAD6BCE19
:1002700073AC524A524A5A6A4A294A4B5A6B638CA7
:100280006BCE73AD6B8B5A684209638C5A4A5B8C98
:10029000638C638C638C5A4A526B626B5A4A524A23
:1002A0005A6B5A6B5A4A526B5A6C638B524B5A6A4E
:1002B0004A4C73CC52294A494A0841E742094A2923
:1002C0004A294A284A2B638C638B5A4A5A6C5A6CC7
:1002D000626A538D6BCE73CD6BCE73AC5A49524A62
:1002E0005A4A52284A2A5B8B638C6BCF73AC5A6B89
:1002F0005A0429A5438D5A49524B5A6C638C5A6A49
:100300004A2A5B8D6BAC5A6B5A6A526B524B5A4AF3
:100310005A6B5A6C638B526B5249422A5B8B52095F
:100320004A294A084A0842294A294A294A28422A87
:10033000526B5A6C626B526C638C626A5B8C73CECC
:100340007BCE6BAD6B8A526A524B5A6A5227422956
:10035000526A5B8C6BAD6BAC5A6A5A2731C629CA9C
:1003600062694A2A5A6B626B5A6A4A295B8D73CC5E
:10037000526B638B524A526A5A4A5A6C5B8C638B3B
:10038000526A52494A094A294A4A52294A294A295B
:100390004A294A494A4A4A2942095A49526B638CB6
:1003A000638C638C626B5A6C6BCF7BCE6A6B5249E9
:1003B000524A5A6B5A6A52284229524A526C63ADC9
:1003C0006BAC5A4B5BAA39E839A5424C522A524AC7
:1003D000526A52494A494B8D6BAC524B5A6B524A46
:1003E000524A4A2A5A6B5A6C638C626A4A295229C9
:1003F0004A294A4B5A6A524A4A294A29524A524A77
:1004000052494A095A494A6C638C63AC6BAD6B8D97
:100410006BAD63AE73CE6B8A524A524A626B5A6BB3
:100420005A284229524B5A6C63AD6BAC5A6B6BAC79
:1004300042094A283A0B626A524A524A52294A28C9
:10044000424C638A4A2A526A522A52294A2A5A6BD1
:100450005A6C638D626B522A4A2942094A2A524ACF
:1004600052294A294A294A4A524A52494A095A496A
:100470004A4B638D638C63AD73CE7BCD638D6BAD67
:100480006B8B5A6B626C638C526C5A494A4B5A6B39
:10049000638D6BAD6BAD5A6C73AC5A294A4B5229C4
:1004A0004A6B5A6B526A4A2A52294A2952494A09C6
:1004B0004A4A4A494A29524A526B638C638B626B9F
:1004C0005A4A522842294A29524A52294A294A2933
:1004D0004A2A524A524A4A085A4A526B638D638DDD
:1004E0006BCD6BCF83ED5B8D638C63AD626C638D85
:1004F000638C5A6C5A6A5B8D6BAD6BAE73AD6BAD32
:100500005A6C6BAD6A69422A5B8B4A4B626A5249EC
:10051000524A52494A294A294209522952494A29EA
:100520004A294A4B63AC5A6A5A6B52294A294A29CA
:100530004A294A294A29420842294A294A4A524A0A
:100540004A295A4A63AD626B63AD73EE73CE7BED9D
:100550005B8C638C6BAD6BAD638D638C5B8C626A03
:100560005BAD6BAD6BAD6BAD6BAD626B6BAD73A922
:100570004229538C626A638B524C626B5A4A522AEC
:1005800052294A4A524A52494A4952284A2B638CB4
:100590005A494A4A52294A2A4A084A2942084208DC
:1005A00042083A094A294A2A5A6B5A6A5A6B63AD79
:1005B000626B638E7BEF73CE73CD5B8C638C6BADA4
:1005C0006BCE6B8C638B5B8C5A4A5B8C63AD73CD4B
:1005D0006BAD638C5A4B63AD6BCC4A094A6C6BAB09
:1005E000526C638C5A6C626A5249524A5A6B5A4A2C
:1005F000524A52494A4842095A6B522842084A29EB
:100600004A294A284A284A08420841E742084A0833
:100610004A4A5A6C626B5A6C63AD626B638E7BEFB5
:1006200073AE73CC63AD5B8D6BAD6BAD6B8C626B7E
:100630005A6B4A29524B63AD6BCF73AC5A6B526BFA
:10064000638C5BCF624A5B8D6BCD5B8C6BCD526BE9
:100650005A4A524A524A5B8C5A49526B522A4A2988
:1006600042084A494A2841E842094A2942294A2976
:100670004A4942083A073A0842084229526B626BDB
:10068000638D6BAC5A6B638D73CF73CE73CD6BADD3
:100690006BCD6BCE6BAD6BAC626B5A4A52294A2A5A
:1006A0005B8D73CE73CD626B5A4B638C638E7B8C88
:1006B0005B8D6BCD6B8C63EE526B522A4A2A524A89
:1006C0005B8C5A4A5A6B4A494A2A4A0842294A28A4
:1006D0003A0842084A2942294A294A494A284208EE
:1006E00039E841E842084A4A5A4B63AD6BAC5A6B51
:1006F0005A6C6BCE73CE73CD6BAD6BCD6BCE6BACDA
:100700006BAC626B626A524A4A4A538D73CD73ADC9
:100710006BAB5A6A5A6B5A4D83CD638C6BCE73ADFB
:100720006B8C73AB526842294A4A5A6C5A49524AF6
:1007300052294A494A2842294A094A0842094A286C
:100740004A4A52294A294A284A08420842073A088E
:1007500042294A2A63AD6BAC5A6A524A63AD73CEE2
:100760007BCD638C63AD73CD6B8B638C626C626B82
:100770005A6A526B5B8C6BAD6BAD73CC5A6A5A6A1A
:10078000538D842E6BAD6BCE73CF73AC6BEB422964
:1007900042294A2A5A6C5A494A494A094A294A2945
:1007A0004A294A294A29420842094A2A52294A29F9
:1007B0004A2842283A094A0742094A08420A638CF1
:1007C000638C5A494A295B8C6BAE73CD638C5B8C0E
:1007D0006BCE6B8B5A6B5B8C638B638A5A6C638CAE
:1007E0006BAC63AD6BCD624A5A4A53B0846E6BAD4D
:1007F00073CE73CF7BEE63AE5A4841E84209526C28
:100800005A4A4A294A094A2952494A2952294A290F
:100810004A294A2A4A4A52294A294A0842083A0990
:100820004A08420942083A095B8B5B8B52494209EC
:10083000524B5BAD73AD638B5A6B63AD638B5A6A7E
:10084000526C638C638B5A4B5B8D6BAC5B8C638D92
:100850006249524953B1944F4BCE6BCE7BEF7C1023
:100860007BAE622741E83A084A4B5A6B52294A2923
:100870004A29524A522952494A284A294A29524A5F
:1008800052494A2942084A083A084A284208420876
:1008900042095B8C5A6B52494A294A2A5B8D73CDB7
:1008A0006B8B5A6B63AD6BAB5A4A524A638D638C48
:1008B0005A4B5A6C63AD626C638C5A4A4A2953F4A2
:1008C000A593626F6BCE7BEE7C318C0D5A283A0972
:1008D00042084A4A526B526A4A0842294A4A4A29FD
:1008E0004A2942084A29524A5249524A5229420840
:1008F00042083A094A294208420842095BAD6BACFA
:1009000062494A494A294A6C6BAC638B5B8C63AE83
:1009100073AC5A494A2A63AD638B524A524C63AD59
:10092000626B5B8C5A6A52294BF49C72838D73EF15
:100930007BEF7BCF7C0F73A942094A294229526B76
:100940005A6A4A2842094A4A4A294A084208422918
:10095000524A4A294A2A522941E842073A084A2972
:100960004A284208420A638D6BAC62494A2A5229DE
:100970004A2B638C5A4B5B8C6BAD6BAB5A494A2A42
:100980005A6B5A4A52294A4A526B5A6B638C638A91
:100990005A494BB18432940E7C107C107BEE7BF074
:1009A00073CC4A294A2942094A4B626A52294A2988
:1009B0004A49522842084208422952294A284A09EB
:1009C0004A284207420842084A294A284229420A3C
:1009D0005B8C63AC5A494A2952284A2B5A6B522BDA
:1009E000638C63AD6B8C5A4949E8524A42094A29E3
:1009F0004A494A4A5A6B5BAD638C626A4BF07C127F
:100A0000944F84308410840F83F083ED5A494A292F
:100A100041E84A4A5A6A524A5A49524A5229422994
:100A20004A28422A52494A28420842094A0841E8CB
:100A3000420842294A0842094A0A5A4B5B8C6249D9
:100A40004A294A094A2A5A6A4A4B63AC638C638C26
:100A5000626A49E84A2839E84A2952494229524BF0
:100A60005B8C6B8C5A6B5C0F6BF195917C318C318C
:100A70008C308C0F8C0E5A494A4941E642294A2A49
:100A8000526B5A6A524A524A5A6B5A494A2A5A6A0D
:100A90004A084208422842084208420842094208DD
:100AA00042094A0A524B5B8C626A4A2942294A4AE5
:100AB000526A4A6C638D638C526C626A4A084207C0
:100AC0003A094A294A0839C84A4A5A6C6A6B626923
:100AD0006C2F741184738C729431943294518C50B5
:100AE000622D7BEE6A494A08422A5B8C626A524A4E
:100AF0005A6B5A6B5A6A524B5A4A4A0742094A2859
:100B000042083A084208420842083A094A0A526B27
:100B10005B8C5A6A538C5A4A524B5A6B5B8D638C6E
:100B20006B8C638C62694A0841E7422952494A0842
:100B300039E74A4A524B63AC63CC74508451859474
:100B40008C52945294749D928C506C108C329C52A6
:100B5000726A4A2A5A6B5A6A4A29524B5A6C626B19
:100B60005B8B5A494A0742294A28420839E842071A
:100B70004229420842084A2A5A6B638C5A4A63AD9A
:100B80006B8B5A6B5A6B638C638C638D6BAC622975
:100B90004A0739E7422A5A6B522839E7422A5A6BE8
:100BA0005BAF7B8F94329C51947484139C739D959E
:100BB000B5B27BCF843094539C2F73F07BAC63AC85
:100BC000524A4A28422B5A6B5A4B638B5A494A085D
:100BD0003A294A08420842094A0842294A28420852
:100BE0004A2B5A6B5A4A524A63AE73AC626B5A6BC9
:100BF000626B5B8B5B8D6BAC520739E739E84A4A15
:100C00005B8C5A2939C74A494A4D7BF08C0D859136
:100C10008C109594843394539D94AD9073EF8432EB
:100C2000B5B493CE73AE945063AD52494A07422A8D
:100C3000524A524B5A6B5A49522842084A29420892
:100C400042094A0842294A294208422B524A52493B
:100C50004A0A5BAE6B8D5A6B5A4A524B626B5A4BC7
:100C6000638B49C631E73A09526B5B8C5A4939C8E4
:100C70004A294A2B63F18453945294518C728433E1
:100C8000A473A5B3940D7C118C75BDB37BCF7BD2BF
:100C90009C0D6A4A526C520842094A294A29526CF0
:100CA0005A29524941E84A294A29422942084229F7
:100CB0004A294A094A2B4A4A4A494209524B5B8B04
:100CC000524A52284A2A5A4A5229524939C73A079F
:100CD0004229524B626B5A2839E84A294A4C6BCF59
:100CE0008C549C549C508D918453AD94ADB283F040
:100CF000843295B6B59073CF9D947A4C6B8B538F9D
:100D000083CD5A494A284A094A4B524A4A2841E85F
:100D10004A295249420731C631E631C64229522A90
:100D20004A4A52494A2A52294A494A4A4A294A4978
:100D3000524A4A0739E739E84A29522A526B5A6A15
:100D40004A0731E84A295B8963AE8D94AD939C7361
:100D50008434AC54B5B5B4728C528C33A5B79C2F87
:100D600073D1B5CF638C63AE73CE8C4F83CB4A28DF
:100D700042284A294A284A4A524A5A6B5A494A073B
:100D800041E739C631C532094A29524B5A6B526B79
:100D90005A4A522842294229526A52494206218619
:100DA0003A09524B5A4B524B524941E632094A0AD0
:100DB0005A2A5BD095939D94AD95A478B454ADD543
:100DC000A4729C729453ADD68BD07C35AC2D6BAB9A
:100DD0006BCF7BCE93CD7BCD73AD42294A09524B6D
:100DE00063AD63AC626B5A6A52494A2841E739E7FE
:100DF00031A74A29526C626B5B8C5B8C5A494A2939
:100E00004209524A522941E521A64229526B5A6AA7
:100E100052294A0741E84A2942094A294BB08C53D2
:100E20009C75A5D5A4759C75A5B484729C519474C9
:100E3000ADF573F085B683AE6B8D73AE743393AF3F
:100E40006B8D73D272295B8D73CD6BAC638C5A6BD7
:100E50005A6A52494A294A0739E521A84A095B8C4E
:100E6000638C5B8C638C638B52494A0952294A0814
:100E700039C531C74A4A524B5A49420839E74209F3
:100E80004A484A284A2A63D294109D91A5929C729E
:100E90008D938C317C329C329DB6BDD16C10A5F304
:100EA00073CD638E7BAE8D9473CE6BCE638E83AD2C
:100EB0007C1073AD6B8D6B8C638B5A4A522841E763
:100EC00041E839A529C739E9538D6BAD5B8C63AD1A
:100ED0006BAD624A4A29420841E731A632094A4AC3
:100EE000524A4A0839C531E7422A524942294A4AF8
:100EF0005B8C840F9C31AC709D918C2F83F18C3274
:100F00009452ADD5BD8E7C34B5907BCC63AE74115C
:100F1000A5B07BED6C127BAB6BF083EE6BAD73AD6C
:100F20006BAC638C5A695A483A0839E831A639E6FD
:100F300039E95B8D6BAC5BAC63AE73CD6A694A28F3
:100F400039C631A529A53A09526B522941E631A586
:100F500032084A2A4A294A094A2A5A6E94305BB111
:100F60009C4E84118C318C329C729453ADF7A44EFC
:100F700095B6B42F7BAC6BAE7C73A42F73CF944F1C
:100F800083CC63CE73CE73CE73AD6BAD638D62696C
:100F900042094A69422731E631E739E8638C6B8BB5
:100FA000638D6BAE73CE6B8B522939A5218529A633
:100FB0003A0A5A6B522839E629A53A2942094A29A0
:100FC0004A294A2B53D18C2D53AE740D84518C3247
:100FD00084339D939C74B5D79BF0ADF69BEF83ADA6
:100FE0006BCF95938BCD6411AC6F7BAC6BCE7BEFED
:100FF00073CE6BCE73AC638C5A294A4B62494A2834
:1010000039E731E739E8638C6B8B63AE6BAD6BAD61
:101010006BAC624939A5218529C63A2A5A6B4A0721
:1010200039E629C742294208420842294209540F99
:1010300073CC538E73F09C51943194129D939D9573
:10104000B5D48BF2B5F4942E73CF73F2A59173CE11
:101050008453A470624C73AF840F7BCE73CE6BCD80
:10106000638B524B638C626A520941C639E741E98E
:10107000526C626B63CE6BAD638D6BCD638941C582
:1010800029A531E742295A6949E731C73A094A296E
:101090004A2842294A0841E86C0D624A6BF08452A2
:1010A0009C5294519432A593A595BDB283F2BDF2A2
:1010B0008C6D6BEE7455A44F7C0F959494527A4AC4
:1010C0006BEF8410840F73AE7BCC524C63AC63AD7A
:1010D000626B522831A739E83A0A526B5A6B63AEF9
:1010E0006BAC63AD73EE6B8B49E629A531E84A29F9
:1010F0004A2839E731E7422A5A4A4A2952494A08D6
:1011000039EA6BCC526E8C5294729C5394549C73FB
:10111000A5B5AD96BC729C14C5F08C2E740F859647
:10112000A4107C14AD949432838C63CF841083EF2D
:101130007BEF73AB526C6BAC73AD6B8B49E421E707
:101140004207422A626B5A6B63AD6B8D6BAD73EED7
:101150006BAC5A27318429E8420841E631C639E8A8
:10116000422A5A6A526B5A494A283A2C638B5BF2DC
:101170009C729C739C739C55B5D4ADD5A596BC71DF
:101180009457C58F83EF7C0FA5D693F08C56AD9303
:1011900094318C0F6BD08C3183F0840F638C638D12
:1011A0006BAE73AE6A6A39A42A084207422A5B8B87
:1011B0005A6B638B63AE73AD73CF73CD6247298374
:1011C00021E739E739C529C639E84209526C626C12
:1011D0005A4A52284B8C524F84539473A4739DB433
:1011E0009D95B5F6B5B5A5B6A4317C58BC5073AE87
:1011F0007C12BE147C0F8DD7A47394328C50741162
:10120000942F7C1073AF6BAD6BAE73CE73AE5A4838
:1012100039E63A2842083A0A5B8C5A6B5A6B63AE3D
:1012200073CE73CE6BCD626831C429C639E629A569
:1012300031C742074209524B638C5A4A4A49526BA2
:10124000626F8C3294539D9294759C55ADB6B5B532
:101250009DD794337D9AAC106BAE6C76C5F17BF163
:10126000A5F6A472945284507C3294317BEF7BAE0D
:1012700073AE73CF7BCE73AC526952074A094A08EA
:10128000420A5A6B5A6B5BAC6BCE7BCD6BAE6BACD0
:101290005A4941E739E739E629C742084229522825
:1012A0004A4A638C5A4A5A4A526D73CE8C518C12F8
:1012B0009C328453A415AC35B5B5ADD794328DF7B7
:1012C0009C0F6BF09DF8BC7083F5BDD4A472945153
:1012D0008C30845294726BD07BCC7C0F7BCF73EEBE
:1012E0006B8B5A4A5A2A4A294A29422B524A524B54
:1012F00063AD6BCD73CD6BAD6B8B524B522A4A28CD
:10130000420839E942294A4A52484A4A524A5A6AE4
:10131000524B5B8D7410843083F19C4F840F9C5230
:10132000B454ADB6B5B89432AE359BEE6BF2BDF8A1
:10133000B3F18477B5D59C529C5294318453A45018
:10134000738D7BCF94327BCE73CD6B8A4A2A524AFF
:1013500052494A294A2B4A2A4A2B63AD73AD73CDB1
:10136000638C626A526C638B5A6A4A294A094A2B17
:101370005A6A4A4A4A4A524A524A4A4B6BAD63AF8A
:101380007BF18410859283EE9590A4759C74BDD8F2
:10139000A435B61583AD7435BDF89C1195F7B5D558
:1013A000A4728C528BF08453A45073AC6435943186
:1013B0007C107BCD638B4A2A4A6B4A2A5A6A522B8D
:1013C00042084A2A63AE6B8D638D626B626B5B8EE3
:1013D0006B8C638B52494A09526B5A6B52294A4AA9
:1013E000526B522A5B8C63AE73AD7BEF7BF183F261
:1013F00094507D919475A450AE18B437C61473AD53
:101400007DB7BDF58451ADF6ADD5A591945283EF6E
:1014100084129C5283AC9DD5B5D3AC507BAD626A2F
:10142000624A538B524B526B524B42084A49638C6F
:10143000624B5B8D626B5A6B5BAD6B8C63AC5A48D5
:101440004A2963AB5A6A52294A6C5A4B5A2A6BACE6
:10145000638D7BCC73CE73CF840E8C518453A59552
:10146000B433B5F7AC38CDF27BF09E17B5928BF361
:10147000BDF6ADB39C729C717C128C1294328C14AC
:10148000CE16C5D6A46F6A6D6A296B8A526B5A6AEA
:101490005A6B5A4B42294A2A5B8B5A4B5A6C638BC4
:1014A0005A6B5B8C626B6BAD5A494A2B63AC5A6BBF
:1014B0005A6B5B8C626A62696BAC63AE7BCE6B8C81
:1014C0007BEE7C2E7C2E8433B5F6B42FB616A43575
:1014D000BDB37C34B637A4728C56BDD6AD929C5247
:1014E0009C508D917C1184328C77CE59C5F483EE5B
:1014F00063AC63CD5BCD524B524A5A6B5A6B520967
:101500004A2A524B526B5A6B626B524B524B5A4B9C
:1015100063AC5A494A4C6BAD5A6B638C638D6B8BD1
:101520005A6B638A73EE83CE73AF8BEC6BEF6C10E8
:101530008C749D96AC6E9DF6A476AD937DB7CE125D
:101540009DD4A618B5D5AD949C7494119C2F84306D
:101550008C319597CE5BCE159C34A5D283ED63ADCF
:101560004A4A5A6B524B5B8D522A526A522A5A6B24
:101570005A6B5A6A524A524B522A5B8C52294A4C35
:101580006BAC5B8B626B638D626B638D53CC7C4DFC
:101590007C0D73EE8C717BAD7BD18DB69476B432BD
:1015A000ADD6ADD69C727DD9CC51ADF7CDF5AD930E
:1015B000A474A4739C5283F18431943195D9CE38AC
:1015C000C65ADE5AC5F593F0738B520A526A524AD4
:1015D0005B8D4A4C5B8B5249526B5A6B5A6A524A2A
:1015E000524A4A294A2942094A4B638C5A6B638BF7
:1015F0005A6C5B8D6B8C63D395B18C306BEC53F272
:10160000946F74728DB6A597B4719DB5ADF5845283
:101610008DD7A454BE19C594A5949DD794539C729C
:10162000943084128C10A5D6BE39D67CDE59BDD537
:101630009C3073AB4A2A526B52295B8D526C638B80
:10164000524A524A524A526A5A4A5229522739E851
:101650004207424A63AD626B638C5A6B5BAE624C6D
:101660007415B5F8A45373D163AE63F18DF495F599
:1016700095B6A5B17C54ADF47C3195B6ADB6D635F2
:101680008C33AD93BE559594AD9394519432941090
:101690009476CE18CE39D63ACDF6A40D4A4D4A09E5
:1016A000524A5229526D638D6B8B526A5229524AAB
:1016B000524B5A494A294A0742294A07422A5B8C17
:1016C000638D638C626A538B638C8DD8D67ABD929E
:1016D0008BCE8B8E6B8C7454AE137D98A5B37454E3
:1016E000ADD384129DD7BDD7CDB09475AC37BC3384
:1016F000CDD5AC738C728C529C2F7C76CDF6C639CE
:10170000CE3AD618AC4E5A4C62084A494A2A524B35
:101710006B8B624A5A6B52494A2A4A2A52294A29F1
:101720004A28524B49E7422953AC63AC63AD638A04
:101730005A6C6C129E19CE59C5F7AD929C7183CD2F
:101740006BF4CE348597ADB47C12A5F38435A6171F
:10175000BDF8B4319DB595B46C78B5949C519D920B
:101760009453944F6C549DB9CE19C618CE569BAB6A
:101770005249624842094A49524B6A6A5A4A538B53
:101780005A494A29524A52494A294A295A6C51E827
:101790004A29538C63AD638D6B8B526D7C56BDD8DB
:1017A000CE5ACE7CDE36ADB6AC307391AE368C13ED
:1017B000BDD48C14ADD37D95B5F6B6168C11B5D4C9
:1017C000AC6DA5F38D9284539C7394529C506BF036
:1017D0008D95B5D7C639C5929BC84A2B52283A0871
:1017E0004A4A522A5A2A63AD5A6B62694209524ADE
:1017F00052494A29522A5B8C520952295A6B638CEE
:1018000073AC6B8E6B8E8413B5B5BDF7CE3BEFBB5F
:10181000CDF7B5D6A43085DAABEEADF38413ADD2F7
:101820007C56C5D5B5B17455BDF6AC76A3F09C4FCA
:1018300084329C72A4739C7073CE73D1B5F3ADF6F1
:10184000A3ED7BC93A6C5A2842084A4A52095A2CDD
:101850008452724B5A694209524B52294A29524AC0
:101860005B8B4A29526A526B5B8A5BCF73CE7BCD0E
:101870007BEFA5928C54BE19DFBEEE79C617C61851
:10188000B5FAD5D07DB68C12AD918C76BDB69BF2F3
:10189000B5F8BDD6ADD37BCE95949C329C55AC5358
:1018A00094318BAC73D0ADF39DD37BAE5A4A424B8F
:1018B0005A494A294A2A4A095BB19455A3EB524A2C
:1018C0004A2A4A2A4A294A29526B5A4A4A4B626A88
:1018D000526B5A6B63F18C0F7BCA640F8C0F7C3494
:1018E00083AE9E1BF7BDE658CE5BE65BE7B87C5740
:1018F0009415B58E85B7B5D17C77C619B475B593F7
:101900007C55A5B4AC529453A5938454938E841003
:101910009595A5B26A6B6269526B5A6B52494A2916
:101920004A095C139C55ABEB524A52294A294A2971
:10193000422A5B8C5A49524C638A4A2A524A6412A0
:101940009432940D3A4F73CE844C2841198CA61DC5
:10195000F7DDE79CEF9DEE7BB4179C16B58F8DD617
:10196000AC509E18C6379D96B5B29D9183F08C31D0
:101970009474AC53AC7073CD73CC8475A471526BFA
:10198000626A5A6A5A6B5A4A42294A0A5A6E95B68C
:101990009389522A5A4842084A28420963AD62494B
:1019A0004A4C638B4A294A4C6BF39C538C1169EA6D
:1019B000624B82421984298211AA9E5DEFBBDFBC73
:1019C000DE56CD96A415B4709DD69C11B5F8D654AC
:1019D00095D9C595BC0F8C3184328C538C139BCC1C
:1019E0006B8963AD741294126A0A524B5A4A5A4A6E
:1019F000626A4A294A0A5A2B84738B894A4A524896
:101A00004208422841C7538C62494A2A5A6B524ABB
:101A10004A6E841194728BCEAC07320A28651986FF
:101A200039C5302011D3CE16C658BE59C637A43694
:101A3000B412AE1883F6CE38B593A5F9BD959C5077
:101A40008C1084108C508C51840E6B8B5B8B5BD014
:101A500073D38B894A4B524A4A4A526A4A284A29C6
:101A6000626B6B8C738A4A2A4A284208422839C71B
:101A7000426C5A294A294A4A5A6A526D7C1084316A
:101A80007BCFA65452034C4421C72987280200016A
:101A90004C75B5F7C618C61595B7A3F3B6327DBA1F
:101AA000B5939435CE58ADF683F183EF83F083F090
:101AB0008C1083EE738A524B5BAE7BB0838B5B8B57
:101AC00052494A294A4A4A29422A63AC5A49524A47
:101AD0004A294A284207420731C7424A52074A293F
:101AE0004A2A5A6B5A4D7C0F7BF07BCE95FAABC4D9
:101AF000EC2011A519A52800000001F2ADB4CE39E3
:101B0000C5B39DB69C34BC4FA61395B7C639CDF46A
:101B1000B637A47383CF83CF83F08411738C6B8922
:101B2000424B638D73AD6A6B5A6A524A4A294A29FD
:101B30004A08420963AD624A524A4A294A29420781
:101B400031C641E74A2942074A4A4A095A6B5A6B49
:101B50006BEE73CE73CD7C37D438F06139A421A4F9
:101B600039A01042082CAC11D799AD95B4569436D3
:101B7000B452B5B5D7DEF7B893F0942F8C53A5B413
:101B80007C148BEF840F73CE5A6B526B638C63CED5
:101B90006B8A526A52494A294A294A294A2A63AD1C
:101BA000638C624A420A4A29420829A74A084A29FC
:101BB0004208526A4A295B8B524C6BCD73AD73AEAF
:101BC0007458C45EB810EB8119863A25204110483C
:101BD000A433D658AC52A5B48475A432B639D7DE36
:101BE000EE78B5B48BF07BAC8473943273EF840ED3
:101BF00073CE6A6B626B5B8C6BAE738C526A4A4AB3
:101C00004A294A2A5A4A4A2A638B63AC62484229C3
:101C10004A284A0831C8422941E84209526B5229F0
:101C20004A6C5B8D6BAD6BCE73AF7C59B59E881AD9
:101C3000FBA12063322419A109848474C6149594ED
:101C400085D294739453BE19DFBEF7BDE67AC5D52D
:101C5000945183EE73AF8C3183EF7BEE6B8B524AE2
:101C60005A4B638C6BAC62694A4A52294A4B5A4AB6
:101C70004A2A626A5BAC5A2742294A08420839E973
:101C8000522839E7422A5A6B522A524A63AD638D71
:101C900073AD73CF7C38B5DE800C81A421E829E3D5
:101CA00009A200667D94BDD29D92ADF29D95AD9343
:101CB000BE1ADE7CF7DEEF9BCE18BDF5AC5084314A
:101CC0007C127C107BEE6BCC4A4B5A4B6B8B526C6C
:101CD0005A694A4A4A294A4A5A4A4A296249526C26
:101CE0005A294A2949E742084A294A273A08422AF2
:101CF000526B52294A4B5A6D6BAD6BAE73D083F465
:101D0000B5DE90011065224C2982086300457DB341
:101D1000CD92A431BD92A5B4A5D5BE38D67BDFBD8A
:101D2000F7DDD65BCE17BE1494529DB2947183AC8E
:101D300063AB524A526B5B8B526B524A52494A29EF
:101D40004A2A4A294A295A4A524A524A524A4A0770
:101D5000420842284A2842294A294A494A09524CFB
:101D60005A4B63AD73CE73D08C55BDDEA8000824EA
:101D700029A529A3118308646474D5929454A453AB
:101D8000AC72ADD4AC75CE5BDE7AE7DEF7DEF7BBC6
:101D9000DE59BDB5A5959C317BCC5A6A4A29526A59
:101DA000526A524B524A52494A294A294A295229CF
:101DB0005A4A52294A4B5249422942084229422949
:101DC0004A4952294A083A094A4B638D638B63ADED
:101DD0006BCF8C55C43DD02000002183218310207F
:101DE00000457476BC528D939C71BDD4A4748C153F
:101DF000B61BCDB7B5FADF9EF7DEF7DEE658C6189C
:101E0000BDD3942F7BCD52495249538B4A2A524A13
:101E100052294A294A294A4A524A524A42084A2AD7
:101E20004A49422A4A07420842084A2A52294A078E
:101E30003A294A6D63AD63AC5B8C6BEF7C35CBD6D6
:101E4000F1E0000008632982000000068D98A414C8
:101E5000AC729C52BDB394727D97A5D36BB373D112
:101E6000A61ADFBEF7DEF7DDEE7BDE38B4518BCC91
:101E70006269424C5A6C524A522A4A294A294A29D2
:101E80004A4A524B4A2941E73A094A2952494A28C3
:101E900041E7422842094A294A273A0A5A4B63AD88
:101EA0006BAE73CD6BEF6BF6E5B1F4200000000074
:101EB0000820000110668DB89436B4329436AC74A4
:101EC0009C508C308C0A7C0B2065322A8DDCF7BD4F
:101ED000F7DEEFBDDE39B47162273A0942095A4B89
:101EE0005A2952294A294A2952294A2A526C4A28EF
:101EF00041E84A28422A52494A0841E84208420930
:101F00004A2A4A284209626C740E7BED73F083EF13
:101F100073D2CF8EBF870000000000000002206552
:101F20007E158C73A4718C36A595A4518BEC6BAE89
:101F30007A4321A30000198A8DBBDF9DF7BEEF9B7A
:101F4000C5D3824842084A294A4A524A52294A0875
:101F50004A2A522842094A4B4A0841E84A08422A7A
:101F600052484207420842084209526B52284A2806
:101F7000422B6BCE7BF07BF1943173F1CFAE5E7868
:101F800028000000000000021824861294728C734E
:101F90008412B5D59C4F9BE953AF306532030021C5
:101FA0000000118DBE3BDE7BE7BDDDEF6A6941E7D6
:101FB00039E94A4A4A4A5208422842294A283A07F5
:101FC0004A2A52294A094A283A09522841E842082D
:101FD0004207420A5B8C5A6A4A294A2B73CF83D044
:101FE00094308C3293CEA6594398B1E008621041E8
:101FF000082100288C71941394517C32ADD3942E17
:102000008BEA53EB106431E1002000000863443890
:10201000C63BDE5BE5D16A6A41E84208422C5A4B76
:1020200052294A293A09420941E74209524A4A09D2
:102030004A2842094A284208420839E83A0A638C89
:102040005A6A5249538B63EF7C0E84518432940F49
:10205000861E81B0BD8A184310410000006BAC722F
:102060008BF2B42D85928432940E722653820865C9
:1020700029A608030840002529B0B599E637D5D32D
:102080007B883A0842294A2A6A4B5A4A52493A29D5
:102090004229420842094A4A52284A0841E841E78F
:1020A0004208420742084209526B524C6269424B55
:1020B0006BF07BF07C118C328BF18D99E4256C7187
:1020C000620630600002220FAC5284319BCD9472C4
:1020D000841273D17209518771A321E938651043C5
:1020E000002339878D94BE17ADD693A83A084229AC
:1020F000522B6A6C6B8B5A29524842294A2841E874
:102100004A4A4A284A294A2941E742083A074A29BD
:1021100042084A29526C638A49C76BF0841083EFE6
:1021200084738BEF8478F7B431EA73AD59E639EAFA
:1021300063B3945195928BEE8C71944F6C1372290A
:10214000383CFA40198838442004100211E54C74D8
:102150009D96A59483AC49E74208420C626C638C5F
:10216000526A4A0942094A2942085A4952284A29C8
:102170004A494A273A0739E9526A4A08422B638C8E
:102180006B8C5A2A6BF0840F73AE84539C307C5551
:10219000CFDEABCC438B63CF8C515C358C719C6FA5
:1021A000840F74109C3083F071E62077D1E339C638
:1021B00038232821180009A52BB18C519C508C0F75
:1021C00051E739E8422A5B8B5A6C5A684228420828
:1021D0004A294A29624A4A294A4B522A5A494208FC
:1021E0003A0A5A6A52283A4B638C638B638C6C327E
:1021F0008C10738E84329C528C32AE5EF7DBADD481
:10220000B5F7D5EC7D918C518BCE8C3173D0940F7A
:102210006BEF4186084528666A2428222040184032
:102220000004320F83F184117BEF620639E84A2AF9
:102230005A6B626B52095A294A284A4A4A29626AE9
:102240004A4A524A524B624A5229422A5A6A4A27F9
:102250003A2C638B5B8B526B5BD08BCF7BCE843203
:102260009C73AC3295BAE7DEF7BEEF9AAA6CA5B1C3
:10227000944F73F27C117C0D842C744F51830001B8
:1022800011A641E52822206010610008418A73EF01
:1022900083AE6A6A41E73A084A4A638C626C5A4BD9
:1022A00052294A294A4A522A5B8B5A6B524B5A6B23
:1022B000626B524B4A0952494A083A0A5A6B5A4AC7
:1022C0005B8D73AE840F73F18C529473A4718D97F0
:1022D000C67EF7DDEE754BD3945293CF7C517BF1E4
:1022E0007C0C840C63AE40420000018510662062C5
:1022F00010211841001160454A6C83C95A484208B0
:1023000039E84A2A5A6B5A4A5A69422A5249524A69
:10231000524B5A6B638B524C626B5A6A5B8C5228DD
:102320004A2941E73A09524B5A4A4A4D6BCE7C3012
:102330007BEE7412A45294739593BE1AD5D9E46BB4
:1023400075947C127BB0942F8BF073CD73ED63AEDC
:102350003841000000241985184100000822019727
:10236000898529A75BE93A0739E739E84A2A524BB8
:10237000526C624842294A294A2A522A526B638B7C
:10238000524B5A6B524A638C5A294A2841E74209F8
:102390004A2A524B63AD5BD2940F7BF0840F9D941D
:1023A000ADB6AC539475AD96B3CFAD9173F07C11CF
:1023B000840F8BEE6BD07C0D63EE38610000000063
:1023C000084210000000000003FA81A939852A495B
:1023D00031E731C739E84A29524B526C638C624B62
:1023E000522942094A2A524A5A6B526B5A6A522A55
:1023F0005B8B5A4942294208422942094A4A63AF43
:1024000083ED74107BCF8C739433AE18C594B47382
:10241000B5D495D79C2F7C518431840E83CE738F95
:1024200083EB6BCE49A40000000000000000000117
:1024300018403DF75A128BAC520941C6420841E997
:102440004A2A5A4A5B8B638A538B5A2842084A2A83
:102450005229526B5A6B5A295229526B52294A29D6
:102460004A0842084208524C5A4A524C842F73CEB2
:1024700073F19C71A5D5CE56BE16ADB4B5D483F01C
:1024800084318C318BED83EF6BAE7BAC73AF4987BE
:10249000284100000000000000242003A5D243F4DE
:1024A000BDF38A6949E739E741E74229524B638C1A
:1024B000626A4A2A524942094A2952095A6A5A6B9F
:1024C0005A494A294A2A52494A294A273A0A6BACA8
:1024D00063AE7C0F7BD0A4748BCD73AC74549475B5
:1024E000B63AC5F7B5F8BD93A430841084107BEFDD
:1024F0007C0E63CF840E638D406C686118410000D0
:10250000000000620072BC2B7C75AC516A68420707
:1025100031E839E839E94A4B638D626B4A2A52281F
:102520004209420A524B626A5A6B626A4A2A522A2A
:10253000524A52494A295A6B53B1947394309DD8E8
:10254000AD99DE10638D6BB09D97CE17BDF8BDF8C9
:10255000C5D4AD9083EF840F7BF17BED63CE840C0B
:1025600063CD51EDABE310431062102108003C55E0
:1025700091E9A5B293EC6228422839E739E842098B
:10258000422A5A6B5B8B52294A2842294A09626BBC
:102590005A6B5B8D6B8B522A5A4A524B5A694A4985
:1025A0003A2D7C328C0E63AC51E874739D9AC590C1
:1025B0006BCD85B5CE39B618CE16C5F6AC507BF0CE
:1025C000840F7BEF7BCE6BAE6BCF73AD638CAE3382
:1025D00049A418420800006A958F2A52942D73ED81
:1025E0006B893A0841E742074A49526B5A4A524BB3
:1025F00052294A294A294A096B8C522A5BAD6BCD74
:102600005A4A526A526B5A6A420B74107A694A4BA0
:10261000524B63B09D916A6EA5D29C4F7C33ADB98D
:10262000D638BE39BDF8AC3073EF7BEF73EE73AEC6
:102630006BAD6BCF8C0F7A29963CA38C624939C75E
:102640004BF2838775F69BED73EE624932083A08C8
:102650004229524A5B8D6BAD638A4A294A29524905
:102660004A2A6BAC4A0A5B8D73CD5A49524A5B8C3D
:10267000522A5BAE62073A29526C5A484391ADB573
:10268000AC4B5C128C559433AE18DE39DE5CDE192F
:10269000A3CE7BEF7BEE73CE73CE6B8D6BCF8C3086
:1026A0007A288E1DE6114A6C6BAC626A4A75E67533
:1026B0008BCE73CE6A496A4741E84A2A5A6D638DC8
:1026C0006B8B5A49420942294A294A2B6BAB524B20
:1026D0005B8E83CD5A294A2A6BAC6B8B62673A09B1
:1026E0004229422A5A6C7C33A474AD9293ED843112
:1026F00095B4A639E7BCF7DDF7DC93AE7BEE73EE5D
:1027000073CD73CC5B8E741084527B8B863EF7DD69
:10271000AC0E626A73D1B79EC5B483AE73CF7BCE65
:10272000622739E8524A5A6A524A5A4A52273A07A5
:1027300042084208422B63AD6BCD63CF7BEC5A4914
:102740004A2A63AE62494A4A520731EA63AD6BAE28
:102750008D95A5B6A4329DF79C707599C5DAEFDE0C
:10276000F7DFF7DDA38F6BAE73CE73CD6BAA5BCDB6
:1027700073F084518BCC863CF7DEF7DDE7BAEFDCF3
:10278000EE369C2F6B8E7BCF7C0B3A07422A524A47
:1027900052494A294A2839E639E739E739E7420AEE
:1027A00063AE7BEF73F083CC638A4A2A5A6B4A2A62
:1027B0004A49422B5A2A7C539C52A5D6B5F9CDF4EE
:1027C0008C15C593AC77E658BFDFF7DEF7DEC3B1F3
:1027D000AC4C63CF6BAD62695B8D74128C518BCC4A
:1027E00085D9CF9EF7BEF7DDEE55AD9173D183CD80
:1027F00063AE6BAB4A0842094A294A284A29524823
:1028000031C739E739E739C73A09638E7BEF7BF087
:1028100083ED6B8B524A52285228422B5A2B740F4D
:102820007BF07BCF9DB5A595B5F6AD908DB5BDF58B
:10283000DFDDCDFBF7DEEFBEE3F1CE566B8D6BAD8A
:102840005A07526C6C538452840C75B6BDD6D63A76
:10285000C5F6B5939C4F73AD7BEE6BAE626A526A60
:1028600042294A4A52294A295A4941E739E839E86E
:1028700039C73A09638D73EF73CF83EE6B8B52497F
:102880004A084A6B5A6C740C5BAA318521ED94722C
:102890008C32A5D7B5D494539E3AD79EF679D7BE3D
:1028A000EFDEF60F4C18C3EF7B8C41885A6D7D9498
:1028B0009472840E7476AC719D939C7395939C0B6B
:1028C000742F73AC6BAC5A6A5A6A5228422A4A492E
:1028D0004A295A6B49E8420839E8420742096BAD78
:1028E00073CE6BCF83ED626B5A49420A5BAC6BAD22
:1028F0007BC929A7420842519C539D96B5D7B5D5AF
:10290000B593A5B9EFDCE7DCD7BFFFDEF7D65BB246
:10291000B5D7C5B041C94A6EADB494727C10845429
:10292000A47493F08C3293AB8C506BCE638C73ABEE
:102930005B8C5A2A524A4A284A2A538B5B8C52296A
:102940004A0842084A0842096B8D6BAE6BCE7BCCBD
:102950005A6B5A294A4C624C626939C8420842088B
:102960004B91A5D6B5D5B5B6AD94AC72AC74C65E78
:10297000F7DEF7FEF7DFF7DC8C5295B15C5041C60D
:1029800043F3C6159DB57C10947083F2A595A453AE
:1029900093CB6BF15A2C6BAD7C0F7BAD6B8B5A6C70
:1029A000626A524953CA5BAD5A494A0842094A28E9
:1029B000420A638C6BAD6BAE6B8B638B52494A2AB8
:1029C0004A4939C74208422942085C57C5F4A5B5AF
:1029D000ADB6B5B494528DB7AC77DF9EF7DEF7DFB6
:1029E000F7DEABD39D85162F3390A5FAD659AD9659
:1029F000A4318C13959284549C728C717BCF83EF9D
:102A00007BCD6BF083AA526B626953CF6B8C73AB37
:102A1000638D62294A084A294A08420A5BAD638BE2
:102A200063AC5A6C638B5A6A52494A2739E74207AA
:102A3000422939ABA5D69C539D95ADB4A4739C5146
:102A40008C5ADE36DE7CEFDEF7DEF7DEDBF0B465D7
:102A50006DD5B65CF7DDEE79AD92A5D5B4739DD892
:102A60009C319452947394509D92838C6BCF73AC31
:102A7000638A5BAC524D6BAE5A4C63AC73894A08A7
:102A80004A4A4A28422B63AD6B8C626B5A6D6BAC21
:102A9000638B524A4A0739E739E742273394A43215
:102AA000A5B4A5B6AD939D949C529596DFDAE7DE6A
:102AB000F7DEF7DEF7DDEDCB6BF1BE1DF7DEF7DEFF
:102AC000F7BBB594A5B38C53ADD7BDD39DD6A59513
:102AD000A45173F07BED526D842E6A69526E83A906
:102AE0004A6B5B8C638C6BCC4A094A2A4A29524C4C
:102AF0006BAD6B8C638C63AD6B8C638C5A294A070E
:102B000039E741E839E96C0F8474AD94ADB5A5940B
:102B1000A594A4728DBACF9EF79EF7DEEFDEF7BDC7
:102B2000E668661BF7DEF7DEF7FFFFDDDDB4BDD636
:102B3000ADB7BDB38C54ADD49C5294526A6C6BAE9D
:102B400073AC63EF73AC52295BEE6B8A5B8C638D65
:102B50006B8D5A295249526B5A6D638B5B8C6BADEE
:102B600073AD6B8C63AD6249420731C74207320BCC
:102B7000626F94739C74ADB4A5949C74A4718457D3
:102B8000DF9CE7BEF7BEF7DEF7BDE62BB7DEF7DE6C
:102B9000F7DEF7DEF7DEE615A5B48BAA6BEE84331D
:102BA0009C739C739DB4840C538E840F6A2A6BCEE5
:102BB00073AC5A4C6BAC638C6BAD6BAC5A4A524ADB
:102BC0005B8C63AE6249538C6BAD6BCE6B8B5B8D54
:102BD0006A6939E639C63A0739C65BF28C529D9567
:102BE000AD94A473947394529431B67DE79DF7BD70
:102BF000EF9EEFDCE431EFBEF7DEF7FEEFBEF7DE6F
:102C0000F656AC7184309594ADB3A4738C12945184
:102C10008C0D5A6C6BAD6BCD5A6B63AC638C524CA4
:102C2000626C6BAD6BAD626A524A5B8D6BAD5A4A9A
:102C3000526C638C63AC626A526C6A6939E739E73B
:102C400039E631EB74308C33A474A47394529452EB
:102C500094518C1095BBEF9BE7DEDE3DF79CD3943F
:102C6000F7BEF7DEF7DFF7DEDF9BDE13A44F73B0AE
:102C70008BEF8C2F7C0F7BAB6B8D738D638C63AC78
:102C80005B8D626A5A6C638C6A6B5B8C6BAC6BCDD0
:102C90006A6A524A5BAE6B8C5A4A4A4B5A4A538B09
:102CA0005A6A4A4B5A493A0941E739E84A4A643074
:102CB00084319472945294739C539451843294133B
:102CC000CFBCE79BE79DF67AAB93F7DEF7DEF79C88
:102CD000F7DEEE59CE179DB68BAB49E84A4A638BB7
:102CE000538C63AD63AD6B8D6A6B5A6C5A4B5B8CC6
:102CF000626C5A6B5B8C6BAD63AE6B8A4A4A526CEA
:102D0000626B5A494A4A5A494A4A524A52294A4ADD
:102D10004A294A0839E941C87C3083F094308C72E2
:102D20009D939C5394307BEF84318DB8E79ADE7B82
:102D3000DE38ABD5F7DEF7DEF7BAEFDDDE7EEE5834
:102D4000D658B474A5926A074B8C626C626D73ADF1
:102D5000638C626B624B6BAC5B8D6A6A524A5B8CB4
:102D60006BAD6BAD6B894A294A2A522952294A2AEE
:102D7000524A4A29524A4A2A524A4A294A2941E78A
:102D8000422E8C1183F17BD08C329C539C51840F4A
:102D900073CF8C318C12AE1BCE39CDF5ABB6EFDED6
:102DA000F7BDEFDEEFBED67BCDD4B5B06BAC7435DE
:102DB000BDF461E8524A624A63AC6BAB526B5A6A2B
:102DC00063AD6B8B63AC626A5B8D6BAD73AE6B8A0C
:102DD00042294A284A2A5229422A52494A09524A31
:102DE000526A4A4939E94A494229538F8431840F4A
:102DF0007BEF7C1194518C3083EE7BF08C109451DE
:102E00007C35BE17C5939275EFBDEFBDDE5DEFBAA1
:102E1000C65ACE37BDF6A3EB31844C15C5F149A592
:102E20003229538B5BAC4A2A526C5B8D626B5B8D93
:102E3000638A526C6BAD6BAD738B52294229422A67
:102E40004A294A294A284209522A5A6A4A073A0A0A
:102E50004A4A522A4B8F843084107BEF73F08410DF
:102E600084107BEF7BF08C1294508C53C657C5D5E1
:102E7000A456DF9CE7BEE65DDE78ADF7B5B8C5D4F5
:102E80009DB384359C11AFBDC59173ED41C9622BD3
:102E900062295A6C638C6B8B5A6C626C5B8C6BAD69
:102EA0006B8D6BAB52294209420A420952294208F2
:102EB0004209522A5A6A5208422A5A4A52295BEF58
:102EC00083EE840F7C0F7BCE73CE7C0F7412841242
:102ED00094349C539C51B67BD659C637C63AEE59AA
:102EE000E7BDDE77A5D483F3B591622B538E73AA29
:102EF0004A065D9EFD8E83EE724763CB5A6C638CEF
:102F00006B8A5B8B5A6C626D6B8D6BAD6B8C5228D0
:102F10004208420942294A4941E8420A5B8B5A6AFF
:102F200052494A29524B5A496BCE7BCF83EF8C0FC3
:102F300073CD638E7C1173CF74118C328C53945289
:102F4000AE5CE79BDF9BD619E678C637CE39BC73FB
:102F5000ADB29C74A42D51E532261842102475D4CC
:102F600052707C10726C5B8B626A5A494A4C5B8C63
:102F7000638D73AC63AD6B8B52494228420A4A2A77
:102F8000522941E8424B63AC522B5A6A522A526D85
:102F90005A4C6BAC6BCE73EF83EE6BAE6BAF738D35
:102FA0007C129D95AD949C739C52B65ADF9CE79C15
:102FB000E79ABDD7D63395D7ADB5BDD39432ADF42E
:102FC0008454942F7BAE7BA711F4C3C3338E73EE6E
:102FD00072695A49422A4A4B638B5BAD6BAC63AD55
:102FE0006B8B52284A294A2B52294A2842094A4BBC
:102FF0006BAC522B638B524A63AD5A6D6B8D6B8DEC
:103000007BCF83EE7BEE73CD63B1ADF7BDF7BDF63D
:10301000BDD5B5D19D99DE7BDE7BDFDCC5B3BDD7E9
:10302000A5959DD6B4529C4D5BD08C33BDF283AC3C
:103030007DB6A3C256785986424D73894A29422AE1
:10304000524A5B8D5B8D6BAD638D6BAA4A084A4A11
:10305000524B522942073A095249538B524B638CC7
:10306000626A5BAD5A6D73AD5A6D73CF7BF18BEEB7
:10307000738D8DB7ADF7BDF6BE16BDB4ADD49478E3
:10308000D63AD67BDE7CE676AD92A5B6ADB5945148
:10309000940E49E874107C59A26A486763CF5B9824
:1030A000DC074A6939EA4A28422A524B5B8C638D15
:1030B0006BAD638D6BAB41E84A4A524A4A284207DE
:1030C0003A2952284A2A4A4C638D6A6A538C5B8D8E
:1030D0006BAC538D73CE7C0F6BAC6BF38454A5B685
:1030E000B5D7B5B6AC728C529593B63AC67ADE5A5D
:1030F000DE7BBD939595A45294307BCE7BAA31ACF8
:1031000083EC858F6BE929A86BAB979861C94A2836
:103110003A29422A5A6B5B8C638D6BAD6BAD6BACFD
:1031200041E8424B5A2A4A29420842294A284A2958
:10313000526B5A6C638A4A6B5B8C63AB5B8D638C9E
:103140005A6B522C8DB46BF3A5959476ADB5A45003
:103150007C728BCDAE36CE79DE19D618BC4F84305A
:103160008C52940F73AA63CE73A7338D4BF4826C89
:103170007A4739C74273ABC74A493A0A4A295A6B58
:10318000526C6B8D6BAD6BAD6BAC49E8422A5A2922
:103190004A294A284A2A4A29524A524A524B6389A2
:1031A0004A4B5B8C626B626B522939E74A729C73A3
:1031B0007434A5948C55A5B49C519DB4938CB47271
:1031C000DE38DDD7D5D49C2F8C317BEE638D6A6BD6
:1031D0004A295BCF69E97A279DAE5C0E39E941C582
:1031E0005DAF4A0942094A4A5A6B626C6BAD6BAEDD
:1031F0006BAD6BAC5228422A524952494A294A2A9D
:10320000522B638C5A4A526C6B8A4A4B5A6B522A25
:103210004A0839E731C554139472843395938C343A
:103220009C749432ADD593EE9BD5BDD8CDB5B45238
:10323000ADF49C739BCD51E63209424941E96C0DD6
:103240005C0F3395926D79E64A2932128A284A2911
:10325000524B5A6B6B8C6BAD6BAD6BAD6BAD52481B
:1032600042094A29524A4A294A49526B638C638B64
:103270005B8E6BAB4A6C522831C731C631A62985AB
:103280006C539C717BF19472845394738C13ADB422
:1032900093F073D4A596AC529475CE379BF0838A85
:1032A00051A421A842095A4B524F8C128225758B8A
:1032B0003BCC420941E7842B420A524C5A6B638C47
:1032C0006BAD73AD6B8D738E62283A094A09626BE0
:1032D00052294A2A526C638C638B5B8D6B8C5A6AC1
:1032E00041C529A529A3218418676C339C7073F00C
:1032F0008C727C5394528C12ADB48BEF742E9472FA
:103300008BEE75BAD5F3738A5269298631A531EAF5
:10331000626C638B5BD09BA929D061CC79E741E8D3
:1033200033D25A095A6B626C638D6BCE6BCE6A6C6A
:103330006BAC620842095229626A4A29524A5B8C84
:103340005A6B5A6B5A4A638A49E731A42984198413
:10335000218421A65C32945073F194527C329452B1
:103360008432A5B383EE7BED8C0D73AA63CE942CCF
:103370006C0E6BCD520531E7422B626C626C622C95
:103380007C6C41E45C064C0931C841CE93895A6B90
:10339000638C638D6BCE6BCE738B6BCB5A274209DC
:1033A0004A2A5A4A524A524B638C5A4952494A6BEA
:1033B0005A0631C52984218421A529A428656C32A7
:1033C000942F74119451741294518432A5927BED10
:1033D000738A6A6B62484A496BF2A5D58BA95388F8
:1033E0003A2B63AE73AB6B8C626943B451A71A136B
:1033F00061CE59A74227744B526B5B8B63AC6BADAC
:103400006BCD6BAC63CD526842084A4B5A494A2A8D
:10341000526C638C5A2941E9524839C621A4186577
:10342000298421A4218429A86C318C2E73F1843045
:1034300074118C1184129C5173EC638621A94A0982
:103440004A51A596B5D47B8B63CF6B8D73EF7C0E01
:1034500073AB622949EB91A341A69BC36B863A2AC1
:103460003BD1524C5B8C638C6B8D6BAD63AC63ADAD
:103470004A493A094A6C52294A2A524B638C5A48A3
:10348000424A39C521831983198429A519851985CB
:1034900029A76C30840E6BAF7C0F74107C107C31CC
:1034A0008C5073CE5A48000529A54BF1A5D6BDB264
:1034B0007BD0A5939C3183EF843183EE72284A053B
:1034C000446722051431126E3A0A522F8A2B626B1E
:1034D000638C6BAD6B8D626B6BCD52283A09524B8E
:1034E00052294A2A526B5A6C626A522731A31863D6
:1034F000206421A4218429A529A52987740F7BEEA6
:10350000638D73EF6BF07BEE7C108C2F73AD5A26BE
:10351000100121A43BB1A5D6BDB17415B5D6B5B582
:103520009BF08C3194307A6842081B933186206F6F
:10353000998972085A697C095B8C638D6B8B626D0B
:103540006B8C6BCE59E63A09522A5249524B5A6A51
:10355000524B5A6A41C62862186319842184218417
:103560002185298529C9740F73CE6B8C6BAE6BCE08
:1035700073AE7BEF840F726B6225102111843BF3D5
:10358000A5D6B5918455B61ACE368C33A4739C73E8
:10359000942A31C8386C81E321A264664C09526ACE
:1035A0004BCF526C638C626A5A6B726D6BAD622545
:1035B00031E942095249524B5A6B524A522731A3C0
:1035C00010632183198421842064298421A529A7DB
:1035D00063EE6BCD638B5B8D73AC6BAD73CD7BCECC
:1035E00072694A25082100465C13A5B5AC719D950A
:1035F000BE19CE128DD7B5D6ADD6B5B049E741A527
:10360000638819A513B2420E5A2A522E7A4A6A6B5F
:103610005A4B538B6B8C6BAD5A4839E841E9524A8F
:10362000526B5B8B524A39A5284218642063206490
:1036300021842184298429A421854BCD6B8C638A24
:103640004A4C738A538D6B8C6BAD6A6A39A2082120
:1036500008266C52A594AC73ADD6BDF7BC51B61814
:10366000BE17BE19C5B3726739A34229406539EB4D
:1036700082287269524A6BC95B8A526A526B5BAC90
:103680006BAC4A29420841C8524A5A6C638C626743
:103690002184184318631863186429A421842185A0
:1036A00029A421843A0A6B8C5A6A4A4A638A4A4B93
:1036B0005A4C63AD624A20411021080274529C7436
:1036C0009C54B5D6BDF69415C638BE16B5F8CDD403
:1036D0008BAA39C41A25520441E65BEC3BAC424B41
:1036E000538D526A524A538C5BAD63CC4A084228D0
:1036F00041E8524A5A6D6BCE61C420631863186367
:103700001863186421A4218429A521A429A4298649
:10371000526B5A4A4A495B8B4A294A6B5B8C5A0561
:10372000102108211003641294539455B5B6BDB20C
:103730008C76C5F6A474A5D9C5F593EC520619A9E3
:103740001A6831C7438E59ED59EA524C6A4A5A4AAF
:10375000538D63AE63AD5207420841E8524B63AEEE
:103760007C2D3185186318631863186321832184C5
:10377000218529A529A529A521A4322949E952494C
:10378000526B52282A2A39C6306008221022102192
:103790004BD094318C73ADD6AC509DF7BDB3941221
:1037A000ADF7C5F59C0D62693869318B31A74A4C7C
:1037B0006A675B894A6B638B5A6C5B8C63AE6BADDB
:1037C00059E6420841E8526C6BCF8C0721A418439C
:1037D0001863186321841984218421A429A529A6AA
:1037E00031A6318529A529A63A2A52494A2619A483
:1037F00010021021082108221021120E84308C5250
:103800009DB59C329DD5A5939434BDD6BDF5A40C31
:103810006B8C5A08486659C74229526B43AE4A4CD2
:103820005B8C63AD638C6BAF738E6A06420839E8BC
:10383000526C73F18A2429A3104318431863198327
:103840002184218421A5298529A529A531C521A562
:1038500029A631C9420839E5284108210821084133
:103860000841104101A86C108C329D938C319DB39E
:10387000A5939456BDD6B5D5A40B638C62694A0551
:103880004A2742083A4A626C6A4C638C5BAD6BAC67
:103890006BCE7BAD6A273A0839C95A6C74125064F2
:1038A000206310631042186318642063218421850B
:1038B00029A429A421A529A531A529C529A531C651
:1038C00031A628630821082108211041102108226F
:1038D00043D084129C518C0F9D93A5939D95B5B5B3
:1038E000B5B49C2B638C638A526B422839E73A0A41
:1038F0005BCA63CB638D6B8D6BAD6BCE73CD5A485A
:10390000420839C9524B63EC2063184218631843CC
:1039100018641863198421842185298529A529C55E
:1039200029A431A531A531A531A629A629831022C4
:103930000821082108221021100033CF7C12943175
:10394000840E947295939D95A594A5929BCB6BAD97
:103950006BAB4A4C62494208320A5A4E53AD5B8DFA
:103960006B8B6BAD6BAE6BAF6229422731E9524A6C
:103970005B862183184218421863186319842064F7
:103980002064218529A429A529A529A529A6298658
:10399000298539A529A429C52041082108410842C3
:1039A00008220802338F7C118C307BEE84329432F3
:1039B0009594A5939C748B8B638C6BCC522A5A6A1A
:1039C00052294209524B624D626D73AB5BAD73AECF
:1039D00073AD7268420731C8524962252062106394
:1039E000104220631863186421842185218521A455
:1039F00021A521A629A531A621A629C529C529A524
:103A000029A5286108210821102108421021238FAF
:103A100073F08C0E7BCD7C3184329594A4729C52D1
:103A2000620C638C6BAB5A4B5A6B524A51E9526928
:103A3000526A6B8C73CC526D73CE7BAC6A683A075A
:103A400039E8524A59C52042106218431863186376
:103A5000186421842184218429A521A5218531A5EB
:103A600031A531A531A521A529C529A52981002187
:103A700008210842186318402BAD73D083EE7BAC4D
:103A80007C0F7C319473A432A42D51E66BAD638C12
:103A9000524B6389526B522A52294A2A5B8B6BCC58
:103AA0005A4D73AE73AC626839E739E9524B3985C8
:103AB00018421862186320631983218319842184B2
:103AC0002185218529C529A531A629A429A529C58E
:103AD00021A631A639C629A4082108410823186364
:103AE0001862222E6BEF7BCF7B8B73EE7C108C5297
:103AF00094329C0E52054BAC63AD51E85269424B77
:103B0000526B49C84A294A6A63CC524C6B8D6B8C04
:103B1000624839E632095A6A21A41023184318640E
:103B2000186318632183218421852985298529C566
:103B300029C531C529A631A521A729A529A531C5A2
:103B400029A4184110220822186421841A0C6BED54
:103B50007BCF7A6B73CE73F0841194329C2E4A091A
:103B60003A6E6BAD52085B8C522B5A6939E7422989
:103B7000524B63AC5A4B626C638C5A4839C631E97C
:103B80005A66198310431843186310631863198326
:103B90002184218429A421A52185298621A531A656
:103BA00031A631A531C529A529A529A5206108215E
:103BB00010222184218529A563CE73EF738A63CDFA
:103BC0006BCF7BF18452941051A849EC6BAC520836
:103BD0005B8B626B62483A084A4A524B5B8C5A6A6A
:103BE000626B6BCE5A4839E739C75A44206210637A
:103BF0001063186318631864186421A4218429844D
:103C000029A429A5298529A529A529A529A529A565
:103C100031C531C631A5298210210822198529858F
:103C20002866520A6BEF626963AC6BAD74107C312D
:103C3000840F6A2941C973AC5A295B8B538C6B89F9
:103C400042094A4B5A6B638D626B5A6B63CF6A2889
:103C5000320731C75A0420411063104218631863B9
:103C60001864206321A421852185298429C521A5E3
:103C700029A731A531A531A531C529A639C529C640
:103C800029A418420822198429C621A629A54BCBAC
:103C900042095A4A5A6E7BEF8430840F5A094A0609
:103CA0005BCD638D6BAC63AE6BAB4A29524C6BAB97
:103CB0006BAD638B5A6D63AF726839E739C751C317
:103CC000206218631863186319831864218421849F
:103CD00021842184218529A529A529C529C531A5A6
:103CE00029C629A6318529A529C729A520631042FF
:103CF000198429C629C521A5322829E739E74B8E21
:103D00007BCF8C3083EE484552273BAD638D73AC3F
:103D1000524B638C52295B8E73EE73CE73AC5A6D2B
:103D20006BAF726839E739C651A320421862186335
:103D300018631863198319842184218421842184C0
:103D400031A429A429A429C529A529C629A629A5BC
:103D500029C631A531A529831862218531C631C60E
:103D600031C529C631A631A7438D73D083EF7BCBF4
:103D700038434A493A2E638C6B8B524B6BAC522AB8
:103D800063AE6BF083EE7BCD5B8E73CF6A4831C739
:103D900039E849841843186310631863186318637B
:103DA000198421842184298421842185298529A5B8
:103DB00031C629C629C529E631C731C529A531C66D
:103DC00029A52063198529A629A5318531C531A6E4
:103DD00039A6322B6BEF7C0C41E71001426951EBA5
:103DE0006A6C6B8C626C638C626B6BCD6BCF840F77
:103DF0007BEE63CF73D0722739C7420950631842F4
:103E00001842186318631863218320632183218477
:103E10002184218421A529A529A631A631C629C539
:103E200031C529C631A531C531C629A629841985D0
:103E300029C629C631A629C629C631E631EA63AEAC
:103E400073A710210020226A49E76B8D63AD626B76
:103E50005B8C638B63CD6BCE7C0E63CF6BEF7BD0C3
:103E60008268420742095843104218431863186396
:103E70001863218320632064218421A4218529A43F
:103E800021A521A529A531A629A629A631E731E733
:103E900021A6298531A629A4218529A531C531C5A9
:103EA00031C631C731E631E84B8849E408210820A2
:103EB0000A4A3A0553AC5A6C624A5B8C638C638D38
:103EC0006BAD7BED5BCE6BEF7BEF83AA4A083A09C3
:103ED00060631043186318631863186320631863E2
:103EE0002184198321A4218421A529A529A529A5F7
:103EF00029A531C529C631C631E631A529C531A567
:103F000029A529A529A631C421C621A539A629C6D6
:103F100031E63A0428610821084201CB4A0533AD55
:103F20006BAC5A29526B63AC5A6D63AD7BCC5BAD05
:103F300073F083EF7BEA4A084209586418631863F8
:103F4000204318631863186318631864186429847D
:103F50002185218421A5298529A529A529C631C620
:103F600039C431C531A431E529C529A529A529A51B
:103F700029A529A629A631C631C639E531C7204170
:103F800008210863004B4A08226F6BAB4A294A4D4F
:103F900073AC5A4B638D6BAD638D73CF840F7BEB2A
:103FA0003A294A0A58641863186318631863186337
:103FB0002063206319842184218421842185218523
:103FC00029A421A5298529A531C631E629C629A517
:103FD00029A631A5298529A529A529A629A529C666
:103FE00029C629A629C731E82861082108441007F5
:103FF0005A0931CE6B8A4A2963AE6B8D5A4B638C5A
:104000006BCE6BAE73D084107BAD4A2A4A095984BB
:10401000184318631864186318631863218319839D
:1040200019821984218421852984218421A521A52F
:1040300029A531C529A631A529A629A529A5218506
:104040002184298429A529A529C631A631C529C7D6
:1040500039C631C40821082428236248398B7B8C57
:10406000524C6B8C638C5A4B638C73CE73CD73F054
:1040700084107B8C5A294A0861A320631863186353
:10408000186321831863186318642063218321A5B2
:10409000218421A521A5298421A529A531A529A50A
:1040A00029A529A421A529A429A421A5298529A5D3
:1040B00029A6318531E629E629C531E639C52860CA
:1040C000082331803A6941877B8A524A538C63AD19
:1040D000626A5BAD7BCF7BEE73EF7BEE7BAB5249CD
:1040E0004A0859A220631863186318631864186398
:1040F000186319841984186321852184218429C6B1
:10410000298529A529A529A6298521A529A42984A8
:1041100021A521A429A521A5218529A529A631C745
:1041200031A429C631A739A63183080331E3226AB5
:1041300041A45B894A4B626C6BAD6A6A638D73CF35
:1041400083EE73EF7BED7BCC52294A0951C2218467
:104150002063186319831863206319831864186433
:104160001864186421A421A5218529A421A531C69C
:1041700029C631A631A529C5298421A421842184F9
:1041800029852985298429A6306531A529A631C527
:1041900031E631C5184331E61A0B39A4326A5B8B1C
:1041A0004A6D63AD6B8C638D73D07BEF7BEF7C0EC0
:1041B0006BCE52094209622420631863206318639E
:1041C00018631863186418632064186321842184B9
:1041D00021A529A4218529C631E539E631E639C66C
:1041E00031C531A529A421842184298429842184ED
:1041F00021A431C429C631A531C639E63A06218445
:1042000021C829EA41A4224D6A6A53AC5BAC5BAB7E
:10421000538D6BF073D07BEF7C0E6B8F5A28420965
:1042200063852183198318631863186320641864F5
:104230001863186418631984218431A5298429A678
:1042400031C739E631C631E631C731C629A629A5BD
:1042500029A5218421842184218521A531A529A591
:1042600031A539A531A639C731A529C841C949A504
:1042700019EC52695B896B8A638B5B8C6BEE6BCF3D
:104280007BF07BEF738C6A28420952661984218384
:104290001863186318631063186320631863186445
:1042A000198421852985218429C631C739C631C69B
:1042B00031C629A631C529A531A529C531C529840D
:1042C00020631064218429A5298531C529C629C602
:1042D00039E639E729C7420A418529895A29524BCB
:1042E0005A4C626B626B63AD63AD7BF083CF7BAB8B
:1042F000622841E84A4819842183206318631863BF
:104300001863186318631863206320642064218590
:10431000218531C631C739C629C631C629A529A587
:10432000298531C529A631C5298529A3198310649A
:1043300021A421A529C629A529C731E6320729C804
:104340004A0A39842987520A5A4A4A6C5B8C5A4B6A
:104350005A6C5A4C6BEF83EF7BAB52084208524BBE
:10436000318529A529A421A52985218529A429A547
:1043700029A521A529A529A531E629C73A083A0882
:104380003A0739E73A0739E631E631E739C639E71E
:1043900031E731C631C631C521A421C629C631C78E
:1043A00039E63A083A07420742084A2A41A639E65E
:1043B0004B8D5A4B638C6BAC638C63AB538D6BF042
:1043C0008C3083AC5A294A2B816170470A04826180
:1043D00070475FF0C04108707047514908707047DE
:1043E00010B50400200000F057F910BD10B50520ED
:1043F000FFF7F6FF4B4C4FF480612000FFF7E4FF1E
:104400001420FFF7EDFF4FF480612000FFF7DEFF7F
:104410001420FFF7E5FF4FF480612000FFF7D4FF81
:10442000C820FFF7DDFFE220FFF7D3FF6420FFF78E
:10443000D7FFE920FFF7CDFF2B20FFF7CAFF24208D
:10444000FFF7C7FF8120FFF7C4FF37480078FFF769
:10445000C0FFA420FFF7BDFFA620FFF7BAFFC420CE
:10446000FFF7B7FFA120FFF7B4FFD120FFF7B1FF9F
:10447000D620FFF7AEFF8420FFF7ABFFC820FFF781
:10448000A8FF1020FFF7A5FFDA20FFF7A2FFF42016
:10449000FFF79FFF2520FFF79CFFF620FFF799FF0E
:1044A0005A20FFF796FFF520FFF793FF0020FFF754
:1044B00090FFF720FFF78DFF9F20FFF78AFFF8207E
:1044C000FFF787FF8920FFF784FF4020FFF781FF78
:1044D0005020FFF77EFF9020FFF77BFF0020FFF7C3
:1044E00078FF8420FFF775FFF120FFF772FF9F2010
:1044F000FFF76FFFF220FFF76CFF0020FFF769FF67
:10450000F320FFF766FF9F20FFF763FF00F00EF830
:1045100000F04CF8AF20FFF75CFF10BD000000007A
:1045200000000160000002400900002080B560200A
:10453000FFF74FFF7020FFF74CFF1220FFF749FFF6
:104540000520FFF746FF01BD2DE9F84F04000D00DF
:104550000026002714F00F082000C0B2000950F018
:1045600010008DF800004046C0B2FFF732FF9DF802
:104570000000FFF72EFF5FF0000A5FF0000915F062
:104580000F0050F060008DF80000AB465FFA8BFB27
:104590005FEA1B1B5BF0700B9DF80000FFF719FF33
:1045A0005846C0B2FFF715FFBDE8F18F38B50025BA
:1045B000A02D0AD200200400512C04D20020FFF7C5
:1045C0000CFF641CF8E76D1CF2E731BDF8B505007F
:1045D000002600212520FFF7B7FF0027A02F14D2C7
:1045E00000200400352C09D26A21600001FB07017C
:1045F00005EB010000F00AF8641CF3E7791CC9B26E
:104600002520FFF7A1FF7F1CE8E7F1BD10B50400EE
:104610002078FFF7E2FE6078FFF7DFFE10BDF8B507
:1046200004000D0016001F00F420FFF7D2FE20004A
:10463000C0B2FFF7CEFEF520FFF7CBFE2800C0B2D8
:10464000FFF7C7FEF620FFF7C4FE3000C0B250FAF5
:1046500084F0401EFFF7BDFEF720FFF7BAFE3800DA
:10466000C0B250FA85F0401EFFF7B3FEF1BD0EE078
:1046700002684368024408305FEAC37C44BF4B448D
:104680005B1E52F804CB43F804CB091FF9D150F854
:10469000041B0029ECD1704770B5040000F010F83D
:1046A0000500260016F1010F02D0044800783618E4
:1046B00000F006F8401BB042FAD370BD080000209D
:1046C00001480068704700BF68000020F8B5002668
:1046D000002300240025102D80F00681012717FA01
:1046E00005F216000A6832401300B34240F0FA8027
:1046F0000A7912F00302012A04D00A7912F00302A7
:10470000022A1FD1D0F808C05FF0030E2A00D2B2EF
:1047100052001EFA02FE3CEA0E0CD1F80CE02A0010
:10472000D2B252001EFA02FE5EEA0C0CC0F808C0BB
:104730004268AF40BA434F68C7F30017AF403A43EF
:10474000140044600A7912F00302032A14D0C768E7
:104750005FF0030C2A00D2B252001CFA02FC37EAC6
:104760000C07D1F808C02A00D2B252001CFA02FC91
:104770005CEA07073C00C4600A7912F00302022ACF
:104780001ED12A00D20800EB8202176A5FF00F0CDC
:1047900015F00702D2B292001CFA02FC37EA0C07AD
:1047A000D1F810C015F00702D2B292001CFA02FC38
:1047B0005CEA07073C002A00D20800EB8202146280
:1047C00007685FF0030C2A00D2B252001CFA02FC08
:1047D00037EA0C0791F804C01CF0030C2A00D2B28F
:1047E00052001CFA02FC5CEA07073C0004604A68BD
:1047F00012F4403F76D000220092DFF8F0201768D4
:1048000057F480471760126812F480420092009AB1
:10481000374F2A00920857F822C05FF00F0E15F0AC
:104820000302D2B292001EFA02FE3CEA0E0C314A9A
:10483000904201D1002423E02F4A904201D101246B
:104840001EE02E4A904201D1022419E02C4A9042E7
:1048500001D1032414E02B4A904201D104240FE03B
:10486000294A904201D105240AE0284A904201D108
:10487000062405E0264A904201D1072400E00824DE
:10488000E4B215F00302D2B29200944054EA0C0C48
:104890002A00920847F822C01E4C22689A434F68AB
:1048A000FF0200D51A4322601B4F3C689C43D1F89D
:1048B00004C05FEA8C2C00D51C433C60174A176883
:1048C0009F43D1F804C05FEA8C3C00D51F431760BA
:1048D000134A14689C43D1F804C05FEACC3C00D56D
:1048E0001C4314606D1CF6E6F1BD00004438024024
:1048F0000838014000000240000402400008024065
:10490000000C024000100240001402400018024057
:10491000001C0240083C01400C3C0140043C0140AA
:10492000003C01406649086850F4803008607047D8
:1049300063480068400C10F001007047614A11683C
:10494000890889000143116070475E48006810F0D3
:104950000C0070475B4A116831F0F00101431160AF
:104960007047584A116831F4E051014311607047B3
:10497000544A116831F46041014311607047504955
:10498000086850F08070086070474D480068400E1D
:1049900010F00100704770B44B4D2E684B4C264010
:1049A00006430E4356EA82162E602C6834F44034D7
:1049B0001C432C6070BC7047454A1168C908C90087
:1049C0000143116070474248006810F007007047CB
:1049D000404A116831F480410143116070473E48FC
:1049E0000068800B10F00100704780B500F07CF883
:1049F00000F025F800F0A0F800F0CCF800F056F92F
:104A0000FFF7F4FCFFF7D2FD4FF4FA70FFF744FE16
:104A10008120FFF7DEFCDC20FFF7DBFC7F237F2219
:104A200005210520FFF7FBFD06210620FFF78CFD81
:104A30002A48FFF7CBFDA720FFF7CBFCFEE780B5A8
:104A40000520FFF7B9FFFFF7BEFF0528FBD14FF4A4
:104A50008040FFF7BDFFFFF765FFFFF769FF012803
:104A6000FBD10023A82204215FF48000FFF793FF0D
:104A7000FFF785FFFFF789FF0128FBD1FFF7AFFFA5
:104A80000028FBD00020FFF765FF4FF4A050FFF790
:104A900068FF4FF40040FFF76BFF0220FFF74EFF67
:104AA000FFF753FF0828FBD10D4800F023F90F2032
:104AB00000F026F9002801D000F014F801BD000034
:104AC0000038024008380240043802400080BFFF2E
:104AD000003C024000700040047000408801000863
:104AE000007A030A72B6FEE780B50B48016851F4FC
:104AF00000710160016851F480610160016851F446
:104B000080710160032000F087F90F2000F0F8F8B1
:104B100000F0B2F9002002BD003C024081B01B4A07
:104B2000116801431160116801400091009901B0C2
:104B300070470A048261704710B586B018210022C0
:104B4000684600F0B9F98020FFF7E8FF1020FFF772
:104B5000E5FF0820FFF7E2FF0120FFF7DFFF0C4C25
:104B60004FF480612000FFF7E4FF4FF48060009075
:104B7000012001900020029000200390002004906A
:104B80006946200000F04CFA06B010BD30380240F3
:104B90000000024000B587B01C210022684600F0EA
:104BA0008BF93C485FF0204101603B4941600021A6
:104BB00081600021C160002101610021416100216B
:104BC00081610021C16100210162002141624FF435
:104BD000805181620021C162002101630021416393
:104BE00000218163002141640F2100910521019181
:104BF000052102910F2103911021049111210591AA
:104C0000002106910022694600F052FA002801D0E6
:104C1000FFF768FF07B000BD80B586B01421002201
:104C200001A800F049F91D49086800282BD101208E
:104C30000860002000901A49086850F001000860E0
:104C4000086810F00100009000984FF4F0600190A7
:104C50000220029000200390032004900C20059075
:104C600001A91048FFF732FD4CF6B3000190022075
:104C7000029000200390032004900C20059001A9CD
:104C80000948FFF723FD07B000BD10B50400FFF78A
:104C9000C3FF10BD0C000020040100A06400002030
:104CA0003838024000100240000C024080B50E4827
:104CB0000E49016000F02DFA002801D0FFF712FF25
:104CC00001BD81B0026809498A420BD100210091DF
:104CD000074A116851F480511160116811F4805134
:104CE0000091009901B070475C0000200030024044
:104CF000303802400149086070470000040000207D
:104D000010B504004FF47A700D490978B0FBF1F04A
:104D10000C490968B1FBF0F000F099F8002801D0C7
:104D200001200CE0102C09D2002221005FF0FF309E
:104D300000F078F804480460002000E0012010BD75
:104D400008000020040000200000002010B410F033
:104D50000702DFF808311C684FF6FF010C4054EAE7
:104D60000224DFF8FC100C431C6010BC7047DFF815
:104D7000EC000068C0F302207047000010B402008D
:104D800052B2002A05D40C01364B020052B29C5498
:104D900008E00A01344C03005BB213F00F03234414
:104DA00003F8042C10BC704770B4030013F0070420
:104DB000D4F10700052801D3042001E0D4F1070055
:104DC000251D072D01D2002600E0E61E012515FA5B
:104DD00000F0401E0140B14015FA06F6761E324042
:104DE0001143080070BC704710B50400601EB0F19C
:104DF000807F01D301200EE0611E1C4801600F215D
:104E00005FF0FF30FFF7BAFF00211948016007216A
:104E100018480160002010BD10B504002000FFF705
:104E200095FF10BD2DE9F04180460C0015000026CD
:104E3000FFF79DFF07002A0021003800FFF7B4FFAD
:104E40000100404640B2FFF799FFBDE8F08110B580
:104E500004002000FFF7C8FF10BD00000CED00E0CB
:104E60000000FA0500E400E018ED00E014E000E0C6
:104E700018E000E010E000E081B0002000900C4954
:104E8000086850F480400860086810F48040009082
:104E90000098002000900749086850F08050086092
:104EA000086810F080500090009801B0704700BF73
:104EB000443802404038024062F30F2262F31F423E
:104EC000401810F0030308D0C91A1FD3DB0748BFEE
:104ED00000F8012D28BF20F8022D130030B414462D
:104EE0001546103928BF20E93C00FAD8490728BFE9
:104EF00020E90C0048BF40F8042D890028BF20F8A5
:104F0000022D48BF00F8012D30BC7047C91818BFEA
:104F100000F8012DCB0728BF00F8012D70470000D5
:104F200030B4046891FAA1F3B3FA83F30325DBB23A
:104F30005B009D40AC4391FAA1F3B3FA83F3DBB27B
:104F40005B0012FA03F31C43046030BC704710B4DA
:104F500044688C4302FB01F31C43446010BC70475F
:104F600030B4846891FAA1F3B3FA83F30325DBB27A
:104F70005B009D40AC4391FAA1F3B3FA83F3DBB23B
:104F80005B0012FA03F31C43846030BC704730B4FA
:104F9000C46891FAA1F3B3FA83F30325DBB25B0093
:104FA0009D40AC4391FAA1F3B3FA83F3DBB25B000B
:104FB00012FA03F31C43C46030BC704730B4046A77
:104FC00091FAA1F3B3FA83F30F25DBB29B009D4066
:104FD000AC4391FAA1F3B3FA83F3DBB29B0012FA6C
:104FE00003F31C43046230BC704730B4446A0B00C6
:104FF0001B0A93FAA3F3B3FA83F30F25DBB29B00EA
:105000009D40AC430B001B0A93FAA3F3B3FA83F35E
:10501000DBB29B0012FA03F31C43446230BC7047BE
:10502000F8B505000E0000200024316891FAA1F1C6
:10503000B1FA81F73068F840002836D03168012095
:10504000B84001400C00002C2DD07068012802D01F
:105050007068022809D1B26821002800FFF780FF9C
:10506000F26821002800FFF772FF32692100280052
:10507000FFF78DFF7068022810D194FAA4F0B0FAFF
:1050800080F0082805D2726921002800FFF796FFFA
:1050900004E0726921002800FFF7A7FF7268210071
:1050A0002800FFF73DFF7F1CC4E70020F2BD000091
:1050B00070B504000D001600002C01D1012027E07E
:1050C00094F84900002805D1002084F84800200009
:1050D000FFF7DBFD14F10801206800F02DF8A2684D
:1050E0002900206800F062F8236BA2683100606834
:1050F00000F078F82168A06851F8202052F00102F1
:105100002168A06841F82020012084F8490000208F
:1051100070BD10B50400002C01D101200AE06079B7
:10512000002804D1002020712000FFF7CAFD0120D3
:105130006071002010BD000070B40200086852F8D1
:1051400020305B085B00086842F820308868082837
:1051500001D1402300E000234C681C4388680443CD
:10516000C86804430869044348690443C8690443A0
:10517000086A0443486A0443886A0443C86A0443CB
:105180000D6B254388690543C86B0543254C54F4D2
:10519000806454F4E024086852F82060A6432E434B
:1051A000086842F82060002070BC704710B403000B
:1051B0000C68486854EA0014886854EA0024C868F7
:1051C00054EA00440869401E54EA00544869801EAD
:1051D00054EA00648869044303EB820044600020C1
:1051E00010BC704730B40400B3F5804F13D154F8AD
:1051F00022500D48054008680543486855EA0015E7
:10520000886855EA002588690543C86855EA00455D
:1052100044F8225003E07FF0704044F82200002060
:1052200030BC70477FFB08000000F0CF30B4002492
:1052300012E050F8043BDA0744BF4B445B1E091FE1
:10524000042943F8044BFAD21A468D0744BF1C8048
:10525000921CCB0748BF147050F8041B0029E8D1FA
:1052600030BC704710B5034A7A440832024C7C4483
:10527000A41D03E0400000006000000004E011688D
:10528000101D114488470246A242F8D110BD00000B
:105290004EF68851CEF20001086840F470000860B4
:1052A000BFF34F8FBFF36F8F4FF00170E1EE100A25
:1052B0007047000079FFFFFF600000000C00002035
:1052C00000000000ABF3FFFF0C000000C000000076
:1052D000000000200000000000F00DF8002801D0C0
:1052E000FFF7C0FFAFF300800020AFF30080FFF7AF
:1052F0007CFB00F002F80120704700F001B80000CC
:105300000746384600F002F8FBE7000080B5AFF32F
:105310000080024A11001820ABBEFBE72600020005
:105320000548014603B4684680F30988AFF300805E
:10533000FFF7AEFFFFF7D0FFA5EDF5FE03480168CC
:10534000034A127889180160704700BF6800002086
:1053500008000020FEE7FEE7FEE7FEE7FEE77047F5
:105360007047704780B5FFF7E9FF01BD01488047EE
:10537000014800477D53000821530008024908688E
:1053800050F470000860704788ED00E010000000E5
:105390000024F40001BF0000FFF7FEBFFFF7FEBFCF
:1053A000FFF7FEBFFFF7FEBFFFF7FEBFFFF7FEBF31
:1053B000FFF7FEBFFFF7FEBFFFF7FEBFFFF7FEBF21
:1053C000FFF7FEBFFFF7FEBFFFF7FEBFFFF7FEBF11
:1053D000FFF7FEBFFFF7FEBFFFF7FEBFFFF7FEBF01
:1053E000FFF7FEBFFFF7FEBFFFF7FEBFFFF7FEBFF1
:1053F000FFF7FEBFFFF7FEBFFFF7FEBFFFF7FEBFE1
:10540000FFF7FEBFFFF7FEBFFFF7FEBFFFF7FEBFD0
:10541000FFF7FEBFFFF7FEBFFFF7FEBFFFF7FEBFC0
:10542000FFF7FEBFFFF7FEBFFFF7FEBFFFF7FEBFB0
:10543000FFF7FEBFFFF7FEBFFFF7FEBFFFF7FEBFA0
:10544000FFF7FEBFFFF7FEBFFFF7FEBFFFF7FEBF90
:10545000FFF7FEBFFFF7FEBFFFF7FEBFFFF7FEBF80
:10546000FFF7FEBFFFF7FEBFFFF7FEBFFFF7FEBF70
:10547000FFF7FEBFFFF7FEBFFFF7FEBFFFF7FEBF60
:10548000FFF7FEBFFFF7FEBFFFF7FEBFFFF7FEBF50
:10549000FFF7FEBFFFF7FEBFFFF7FEBFFFF7FEBF40
:1054A000FFF7FEBFFFF7FEBFFFF7FEBFFFF7FEBF30
:1054B000FFF7FEBFFFF7FEBFFFF7FEBFFFF7FEBF20
:1054C000FFF7FEBFFFF7FEBFFFF7FEBFFFF7FEBF10
:0C54D000FFF7FEBFFFF7FEBFFFF7FEBFB7
:04000005080053217B
:00000001FF
