:020000040800F2
:1000000040120020813700085D3700085F37000884
:1000100061370008633700086537000800000000FA
:10002000000000000000000000000000673700082A
:1000300069370008000000006B3700086D370008C2
:10004000AD370008B1370008B5370008B9370008E8
:10005000BD370008C1370008C5370008C937000898
:10006000CD370008D1370008D5370008D937000848
:10007000DD370008E1370008E5370008E9370008F8
:10008000ED370008F1370008F5370008F9370008A8
:10009000FD37000801380008053800080938000855
:1000A0000D38000811380008153800081938000804
:1000B0001D380008213800082538000829380008B4
:1000C0002D38000831380008353800083938000864
:1000D0003D38000841380008453800084938000814
:1000E0004D380008513800085538000859380008C4
:1000F0005D38000861380008653800086938000874
:100100006D38000871380008753800087938000823
:100110007D380008813800088538000889380008D3
:100120008D38000891380008953800089938000883
:100130009D380008A1380008A5380008A938000833
:10014000AD380008B1380008B5380008B9380008E3
:10015000BD380008C1380008C5380008C938000893
:10016000CD380008D1380008D5380008D938000843
:10017000DD380008E1380008E5380008000000001C
:10018000E9380008ED380008E0000303050504061F
:1001900006161CFEFB12FB1200025B04E40E152087
:1001A000060020C8022109422A78E207110122092B
:1001B00066ECCBC212CA0223244A26C86E329BCCFC
:1001C0002633916C249B4C0E07936826121D0E96C5
:1001D000B5C94C3413C946B2C90C002427EAA6C7D6
:1001E000520E9143C4B643643619D62173C81C32EB
:1001F00087D0E99039440E31DA468798590E9143F9
:100200008400251B4926C86676BA9CC463B9782C3D
:100210001ECBC563916842994822A2DB00261D6966
:1002200026C88E685A914DE4F2F1985894CC241364
:100230009284743B51469343CC00270963E87B6268
:10024000128A0028144532D84A36198D444B326D33
:10025000A3996C341B490029104432C842241A89DE
:1002600046FA6545B214022A100869DB4E2C3A485A
:100270004C96434C1493012B0CE728B94EAA74B842
:100280004945002C0762E87782122D0747A8B9E29A
:10029000012E0742287882002F13482AC85A752A4F
:1002A0005D95AE4AA7D255E9AA180030124926C872
:1002B0008E76A11CA9FCD7A26434399200310B457B
:1002C0002EC84EE960D3FF0332164926C88E76A1A8
:1002D0001CA945E2743C5D9E2E4FC7870301331471
:1002E00069E6C7E281BC3A164FA965BA5E6407D2D7
:1002F000350834174926C86E2C178FE5E265B948D2
:100300003452131D0E54B9260035154926C8E2C1D2
:10031000AEFD7488CCAA72756AD134399200361752
:100320004926C88E76A11CE9EAA7436466A4B216E2
:100330004D9323090037154A26C8E24354229C08EE
:10034000E773F9BA7CBB7CBB1400381A4926C88E07
:10035000762119A9D4A26434395D66462AB52819D4
:100360004D8E240039184926C88E762119A9AC452E
:10037000D3E410BACBA945C9687224013A0842A94E
:1003800078820E253B09626978820EA5043C0D66D1
:10039000EDC852365A120AB74A033D0BC8E8C8E204
:1003A000418E7438083E0F66EDC8222A1D2ECA26DB
:1003B000A399300A3F146926C88E769A1CA972F157
:1003C00094BA2CD71DA35C064032D1E636F70E391D
:1003D0008C2D363A690E9ACC4CA6534D34A3A9D134
:1003E000D4686A34359A1A4D8D36A1980E941985C1
:1003F000364799C3EDE003FD3002411C4A26C8523E
:100400000E19F35C344E8422A148281A1D428790AD
:10041000502414098D0342184926C8C27688C8267C
:10042000C22AE38172924D84558EB543C5064312AC
:100430004926C8AA76A11CA974FDB5689ADC4A00B1
:1004400044104926C8E27488C8ACFC3F1E28270027
:1004500045204A26C8E2431C2287C82172881C22F4
:1004600087DC6E72881C2287C82172881C7238183B
:1004700046224A26C8E2431C2287C82172881C22D1
:1004800087DC6E72881C2287C82172881C2287C86C
:10049000210047134926C8AA76A11CE9BAB9722DD2
:1004A0005A2887D001480D4926C842CA5F0F0F510C
:1004B000FE2A4908422A78E20F014A0E4926C85E00
:1004C000FF776AD1343992004B1D4926C842D8368D
:1004D000118D4423C9AC58A4528B45C94C34128D9C
:1004E00064136171004C244A26C8420E9143E41003
:1004F00039440E9143E41039440E9143E4103944D9
:100500000E9143E41039E470304D194926C8625801
:10051000B39D2E87C8E16132A14C4812528814A2C3
:10052000F22A4E154926C862D868B39D4E1411654B
:10053000429290DE1CBB0A4F114926C88E76A11C40
:10054000A9FCD7A269722B0150124926C8C276882D
:10055000C88C558E07CA49AEDF0151114926C88E95
:1005600076A11CA9FCD7A26972081D521A4926C897
:10057000C27688C88C558E07CA493492896413D9CB
:10058000442811B60A53154926C8AA76A11CA9E524
:100590003999BE9D5A344D8E2400540C4926B8E238
:1005A0008128D7FF6F00550E4926C842CAFFD7A23F
:1005B00069722B01561B4A26C86238114E8422A14B
:1005C00068265A13CD44429170226D25B36F0357AC
:1005D000224A26C862E838118A8422A14828922833
:1005E0004994244A87D02174081D4287D021B40B36
:1005F00000581D4A26C84638118A66A235917022D5
:10060000B492B91A2742916CB426124A860359193A
:100610004A26C86238118A36094542C9B05A26CFDF
:10062000E7F275F9BA1C005A164926B8E2813C1661
:100630008FC563F1EA782C1E8BC78703015B0B46DD
:100640002EC8E251FF8F87025C15492AC8423E57E7
:100650009FCBC773F9782E9FCBC773F9005D0C450C
:100660002EC8E230D3FFDBA1005E0966ECCC8672B7
:1006700008095F084CA0C7E2C300600984B0CC42FF
:10068000269209611BCB25D88E6C1CCD8432A11C0F
:1006900024BC1D423491542415311D462501621598
:1006A0006926C842AE17D221423952F95AB41C2ADF
:1006B0001212006311C925C88E76A11CA9745D8B26
:1006C00016CAAD0464136926C85E6F96436472A4AB
:1006D000F2B568A11C42076514C925C88E769A1C1C
:1006E000A9D4C3435C3E8CB0DC4A0066136926C8BB
:1006F0009268B38964728D87C82128D71F01671C4F
:1007000069E6C6CE72884C8E546A5132A19C6CF256
:10071000F1E550A4D6268790050068106926C842E6
:10072000AE17D221423952F9AF02690D642A7842DC
:1007300024878BF49F96046A1007EFD6561DABFEF4
:10074000BFD22A131305006B176926C842AEC7B67D
:10075000894C241AA949666EA7916845581C6C0CEF
:1007600065267842A6FFDF66A4016D20D0253843B8
:1007700042231D0E118AE538A44AA952AA942AA53B
:100780004AA952AA942AA54AA90A6E0FC925C842A5
:10079000423A4428472AFF55006F11C925C88E7672
:1007A0009A1CA97C2D5A28B71200701569E6C6421A
:1007B000423A4428472A5F8BA603454292EB0E71CA
:1007C0001469E6C6CE72884C8E54BE1625A3C92184
:1007D00066D703720EC72598427238444A54FD2BDF
:1007E000007313C825B88A6619D988E562B948B478
:1007F0004C6C2400740F66268846A8DBA122D41F07
:1008000087B401750FC925C842CA7F2D4A46934354
:10081000CC00761BCA25C86238114E8422A16826F6
:100820005A13CD4442917022B456C934007729D16D
:10083000253863B8225C110E45429A6854138D4ADC
:100840003391443413494442916422B44C84A62A1F
:10085000AD4A23D368007817C929C842581489467D
:100860008A45F22AB52692892642897000791C6A47
:10087000E6C66636928D64DA26B3C95032944825AE
:10088000D266F27CA36466A5027A10CA25C8E2C1CA
:100890003E5E1F6F1FAF1F0E067B12A7AEC77246CC
:1008A000A20DA5BAD1A4AB7A9D12077C08E2B6C707
:1008B000E21F087D11A7AEC742BAAAD76DA4A15402
:1008C000C7196D087E0B6A64C926283A880E027F14
:1008D000060020C80280060020C80281060020C849
:1008E0000282060020C80283060020C80284060097
:1008F00020C80285060020C80286060020C802879C
:10090000060020C80288060020C80289060020C808
:10091000028A060020C8028B060020C8028C06004E
:1009200020C8028D060020C8028E060020C8028F53
:10093000060020C80290060020C80291060020C8C8
:100940000292060020C80293060020C80294060006
:1009500020C80295060020C80296060020C802970B
:10096000060020C80298060020C80299060020C888
:10097000029A060020C8029B060020C8029C0600BE
:1009800020C8029D060020C8029E060020C8029FC3
:10099000060020C802A0060020C802A1060020C848
:1009A00002A2060020C802A3146926B88E685A1154
:1009B0004AE43A9F6E729DC7870301A4060020C8CF
:1009C00002A5060020C802A6060020C802A723D35D
:1009D0002568773C17CFC77362B5669C8C26B391A8
:1009E0004D342B1EA946AA917ABA944C576209003D
:1009F000A8060020C802A92D512638F70E3950D973
:100A0000E6A091AC26199D2CA3514928A3436474F8
:100A1000888C2494552823B7C98836A2D32CE68322
:100A20001C5606AA060020C802AB122925B94E168C
:100A30009A6C118DD426B3D1923016AC060020C822
:100A400002AD060020C802AE060020C802AF0600B4
:100A500020C802B00B84687C461212452400B106FF
:100A60000020C802B2060020C802B3060020C80257
:100A7000B4060020C802B5104926C742CA7F2D9A85
:100A80000E97435C3B00B6060020C802B706002064
:100A9000C802B8060020C802B9060020C802BA067B
:100AA0000020C802BB152925B922269BCC26B3916C
:100AB0004C249A9826A2512C08BC060020C802BDDE
:100AC000060020C802BE060020C802BF060020C8DB
:100AD00002C023EA26C84E0E9283E410399A1C32D3
:100AE000E6B9689C0845429150343A840E21A148E9
:100AF00028121A07C11FEA26C876AE1D550E19F333
:100B00005C344E8422A148281A1D42879050241438
:100B1000098D03C222EA26C8524E9608457224392E
:100B200064CC73D138118A8422A16874081D4242B2
:100B3000915024340EC3060020C802C41EC926C822
:100B40004A2294C8318D97A9C446895032938C4665
:100B5000A291E821223316A902C5060020C802C6C8
:100B60002C501AC8FA303E8CE9C03A5022074AE4A9
:100B7000B0891C26928346C7D1512687CCE4904386
:100B80001C72880FE552F1F4403D04C7060020C8EE
:100B900002C828EA26C84E0E9943E42039F8F0101E
:100BA00087C82172881C2287C821B79B1C2287C84E
:100BB0002172881C22871C0E06C926EA26C8562EDA
:100BC00087C8E528878738440E9143E41039440EDE
:100BD000B9DDE41039440E9143E41039E47030CAB1
:100BE00027EA26C8524E95086572E8E1210E914326
:100BF000E41039440E91436E3739440E9143E410AA
:100C000039440E391C0CCB26CA26C84A2295C83155
:100C10001D1EE21039440E9143E41039E4769343EB
:100C2000E41039440E9143E490C3C100CC0DE4328A
:100C3000C842A61615E9FF5F00CD0DE532C86AA4CB
:100C40001D24D3FF3F01CE10E72EC84A4893A8C900
:100C50004152FDFF1B00CF0EC532C84242910365D1
:100C6000FAFF2700D0060020C802D1060020C802E3
:100C7000D216E926C84E3E9743E470DA8572A4F294
:100C80005F8BA6C9AD04D316E926C8562C17CB91A5
:100C90006817CA91CA7F2D9A26B71200D417E92681
:100CA000C8524C94C8D4C1B40BE548E5BF164D9367
:100CB0005B0900D5114926C88E76A11CA9FCD7A2D4
:100CC00069722B01D616C926C84A2294C831D12E82
:100CD000942395FF5A344D6E2500D7060020C80294
:100CE000D8060020C802D913E926C84E3E9743E42F
:100CF0004029FF5F8BA6C9AD04DA13E926C8562C3C
:100D000017CBC152FEBF164D935B0900DB14E926D9
:100D1000C8524C94C8D46152FEBF164D935B090073
:100D2000DC13C926C84A2294C891A5FC7F2D9A26B7
:100D3000B71200DD060020C802DE060020C802DF70
:100D4000196926C88A685A114A8412D94444115133
:100D50006456FE66A2884600E0226B26D84E0E93AB
:100D600083E4303922D9389A0965423948783B847E
:100D70006822A9482A623A8C4A02E1226B26D85698
:100D80000E9143E4A0383AD9389A09654239487837
:100D90003B846822A9482A623A8C4A02E2216B26E7
:100DA000D86E4E9748657234B2713413CA8472900B
:100DB000F07608D144529154C474189504E30600A7
:100DC00020C802E4204B26D84A2296C871211B472E
:100DD00033A14C2807096F87104D241549454C87CE
:100DE000514900E5060020C802E620CE25188BED0B
:100DF0005019916C33B1502C141D2A87834C2C143C
:100E00000B85A5CAE450239100E7142966C78E76A6
:100E1000A11CA9745D8B9209E54896B201E81A6994
:100E200026C84E0E91CB217238ED423952A98787E0
:100E3000B87C1861B99500E9186926C872AC1E47DC
:100E4000A39D26472AF5F010970F232CB71200EA2E
:100E5000196926C86E4C94C8D4C1B4D3E448A51E01
:100E60001EE2F26184E55602EB194926C84A229433
:100E7000C831D14E9323957A7888CB8711965B0938
:100E800000EC0D65267862265496E9BFAD09ED0E9B
:100E9000642A784A22928845FA4F4B02EE11672263
:100EA000786A465291C94152FDD7550900EF0E6547
:100EB000267842429123C9F4DFD604F0060020C808
:100EC00002F1060020C802F217E926C86A2E87C878
:100ED000E5F889769A1CA97C2D5A28B71200F314DC
:100EE0006926C856AC1E47A39D26472A5F8B16CAA3
:100EF000AD04F4166926C86E4C94C8D4C1B4D3E4CA
:100F000048E56BD142B99500F511C925C88E769A8E
:100F10001CA97C2D5A28B71200F6154926C84A226A
:100F200094C831D14E932395AF450BE55602F70E89
:100F300047A9B84A2A473BDC91A43200F81A69262F
:100F4000C8CE72884C6E354F27094942115144274B
:100F50009B9B64427902F9146926C84E0E91CB21FD
:100F600072A094FF5A344D0EA103FA116926C8727B
:100F7000AC1E874BF9AF45D3E4103AFB136926C882
:100F80006E4C94C8D46152FE6BD13439840EFC127D
:100F90004926C84A2294C891A5FCD7A26972081DA7
:100FA000FD060020C802FE060020C802FF06002041
:100FB000C80200000004FFFF00000000DFF828174F
:100FC000086840F4803008607047DFF81C0700684C
:100FD000400C00F001007047DFF810271168890805
:100FE00050EA810010607047DFF80007006800F0E9
:100FF0000C007047DFF8F426116821F0F001084377
:1010000010607047DFF8E426116821F4E0510843CE
:1010100010607047DFF8D426116821F4604108435E
:1010200010607047DFF8C016086840F080700860F4
:101030007047DFF8B4060068400E00F0010070470A
:1010400070B4DFF8AC562E68DFF8A846264030436F
:10105000084340EA82102860286820F440300343A7
:101060002B6070BC7047DFF890261168C90850EA01
:10107000C10010607047DFF88006006800F00700CC
:101080007047DFF87826116821F48041084310602A
:101090007047DFF86C060068800B00F001007047B5
:1010A00080B513469BB2009313469BB20A4692B298
:1010B000014689B2DFF84C0600F062FB01BD00F08A
:1010C00083BB0000DFF84006002141741121017448
:1010D000B3EE040A80ED000AF3EE0E0AC0ED010A39
:1010E000DFF828168160DFF82816C16000F12402BD
:1010F000012151701D211170DFF818164161DFF8D0
:1011000018168161DFF81416C161DFF81416016248
:10111000022151750C2111759FED371A82ED011ACC
:10112000DFED361AC2ED021ADFF8F815D1609FED37
:10113000342A82ED042A00F14C0103234B700D2365
:101140000B70F2EE042AC2ED062A9FED2E3A82EDD4
:10115000073A82ED083ADFF8D035536204224A7527
:1011600016220A759FED283A81ED013A81ED020AB7
:10117000DFF8B825CA60DFF8B8250A6100F174020B
:10118000052353700E231370DFF8A8358B6181EDB2
:10119000071ADFF8A4350B62DFF8A0354B62062191
:1011A00051751E211175B1EE040A82ED010A82ED1E
:1011B000020ADFF88C15D160DFF8881511619C30C8
:1011C0000721417013210170DFF87C15916182EDD8
:1011D000073A82ED082ADFF874155162082141753B
:1011E0000A210175C0ED011AC0ED022AC0ED030A03
:1011F000DFF85C15016170470000C8420000A042A2
:10120000000070C20000F04200000243027C00EEC9
:10121000102AB8EE400A90ED001AD1ED001A70EED7
:10122000010AF4EE601AF1EE10FA1FDA0A7C00EE01
:10123000902AF8EE600A70EEA11AB4EE611AF1EE8F
:1012400010FA13DA90ED011AD1ED011A30EE010A0D
:10125000F4EE401AF1EE10FA08DA30EEA10AB4EE1C
:10126000401AF1EE10FA01DA0120704700207047B1
:1012700038B52DED068B04460D46B6EE008A207C6F
:1012800000EE100AB8EE400A20EE080AD4ED000A7B
:1012900030EE201AD4ED010A30EE200A287C00EE50
:1012A000900AF8EE600A60EE880AD5ED001A70EE3A
:1012B000A11A95ED012A70EE820A71EE619AF0EEA4
:1012C000698A30EE60AAB0EE4A9AF5EE408AF1EEF5
:1012D00010FA06D1B5EE409AF1EE10FA01D1F7EE10
:1012E000008A28EEA80A09EE090A00F073FAC8EE8F
:1012F000808A89EE009AD4ED021A21EEA80AD4ED74
:10130000030A00EE890AD5ED020A60EEA80A95EDFF
:10131000031A41EE090A30EEC01A41EE281AC4ED54
:10132000021AD4ED031A41EE091AC4ED031A30EE85
:10133000600AD5ED020A40EE280AC5ED020AD5ED95
:10134000030A40EE090AC5ED030AB0EEE90A207C63
:10135000297C081800EE900AF8EEE00A60EE880A90
:1013600030EEC00AB0EECA1A70EEC10A00F080FA80
:10137000B5EE400AF1EE10FA1DDD20EE080A60EE2F
:10138000280A94ED001A30EE811A84ED001A20EE3E
:10139000090A94ED011A30EE011A84ED011A95ED57
:1013A000001A71EE600AC5ED000AD5ED010A30EEB3
:1013B000C00A85ED010ABDEC068B31BD2DE9FE4F5B
:1013C00000F06CFA00F044F900F090FA00F0BAFA7C
:1013D00000F036FBCC4C04F1B405DE4BDE4ADF49AD
:1013E000284600F053FB284600F0B9FB00212846B0
:1013F00000F0BCFB284600F0D5FBB421284600F0E5
:10140000C3FB0021284600F0FCFDD549284600F02A
:10141000A5FE0221284600F037FF0121284600F0F2
:10142000F0FD0021284600F0A8FB284600F034FF1C
:10143000CC48019040200090802328221421284687
:1014400001F01CF8284600F05FFF4FF4FA7001F03D
:1014500041F8FFF737FEFFF732FE06462CE007FBA8
:1014600008F02044437C027CD0ED010AB6EE000A6D
:1014700030EE800ABDEEC00A10EE101AD0ED000A60
:10148000B6EE000A30EE800ABDEEC00A10EE100A79
:10149000FFF706FE08F10108B8F1080FDFDD00BF15
:1014A000B3A319220821284600F011FE284600F0B7
:1014B0002BFF012001F00EF8FFF701FE811B00EE6B
:1014C000101AF8EE400A9FED830AC0EE801AF5EE7E
:1014D000401AF1EE10FAEFD99FED7F0AF4EE401AB0
:1014E000F1EE10FA01DBDFED7D1A0646002081E007
:1014F0004743E119D1ED020A91ED000A00EEA10A7D
:1015000081ED000AD1ED030A91ED010A00EEA10A76
:1015100081ED010A91ED000AB5EE400AF1EE10FAF4
:1015200009D5B1EE400A81ED000A91ED020AB1EE53
:10153000400A81ED020A9FED6A1A0A7C00EE102A29
:10154000F8EE400A91ED000A30EE800AB4EE410A4E
:10155000F1EE10FA17DB91ED000A00EE902AF8EE9A
:10156000600A70EE800A9FED5F2A30EE822AF8EE64
:10157000000A02EE200A81ED000A91ED020AB1EEA6
:10158000400A81ED020A91ED010AB5EE400AF1EE42
:1015900010FA09D5B1EE400A81ED010A91ED030A76
:1015A000B1EE400A81ED030A00EE102AB8EE400ABF
:1015B000D1ED010A30EE200AB4EE410AF1EE10FA44
:1015C00017DB91ED010A00EE902AF8EE600A30EE8A
:1015D000801ADFED440A31EE201AF8EE000A01EE1F
:1015E000200A81ED010A91ED030AB1EE400A81ED76
:1015F000030A401C142708287FF77AAF4FF0000831
:101600001AE007FB08F004EB000B07FB0AF004EB01
:10161000000949465846FFF7F9FD002803D049461E
:101620005846FFF725FE0AF1010ABAF1080FE8DD76
:10163000CDF8008008F10108B8F1080F02DC08F1CC
:10164000010AF2E7284600F027FE4FF0000823E7E2
:1016500080B50520FFF707FDFFF70DFD0528FBD13D
:101660004FF48040FFF70DFDFFF7A8FCFFF7ADFC3E
:101670000128FBD10023A82204214FF48000FFF7AA
:10168000DFFCFFF7CFFCFFF7D4FC0128FBD1FFF70D
:1016900000FD0028FBD00020FFF7ACFC4FF4A05069
:1016A000FFF7B0FC4FF40040FFF7B4FC0220FFF757
:1016B00093FCFFF799FC0828FBD12B4800F01EFF94
:1016C0000F2000F021FF002802D0BDE801404DE0CE
:1016D00001BD000000007A44CECC4C3DCDCC4C3D49
:1016E00001002043000020C30038024008380240B7
:1016F000043802400080BFFF003C02400070004000
:10170000047000404C0D0020980C00200000C042E6
:10171000000004420000704200002042000090C21D
:1017200000005842000034420000F0C1000058C2DE
:10173000000084420000484200001042000034C211
:101740000000A8420000284200000C43000010C224
:1017500000009642EB34000857350008A037000817
:1017600088010008782D0008007A030A72B6FEE7A7
:10177000553847322055433136393855000000007E
:101780002DE9FC4105460E4617469846089CE0198F
:1017900080B2009008EB06039BB2284600F0EEFEF4
:1017A00000280BD10EE00020009043463A4692B24A
:1017B0003146284600F018FD7F1C641E204680B28A
:1017C0000028F0D1BDE8F38101484068704700BFB0
:1017D00000000020B5EEC00AF1EE10FA02D4B1EE1E
:1017E000C00A70476FF0004C00EE10CAAFF30080E3
:1017F0007047F0B40446049D2068067C802001F008
:101800000707F840676BC90806FB021189B2394423
:10181000002D18D194F89220012A02DC0A780243A4
:101820000A7094F89220012A02D00A7842400A7085
:10183000400801D18020491C5B1E1A4692B2002A42
:10184000E8D1F0BC704794F89220012A02DC0A78B3
:1018500002430A7094F89220012A02D00A7842408A
:101860000A7031445B1E1A4692B2002AEBD1E8E7B7
:1018700010EE100AF5EE400AF1EE10FA09D604BF98
:10188000C04207E0B4EE600AF1EE10FAB8BFB0EE65
:10189000600A704728BFB0EE600A704780B50B48F9
:1018A000016841F400710160016841F480610160E8
:1018B000016841F480710160032000F0C4FE0F2034
:1018C00000F022FE00F0D8FE002002BD003C0240E5
:1018D00081B01A4A116801431160116808400090F4
:1018E000009801B0704709048161704710B586B057
:1018F00018210022684600F0DBFE8020FFF7E8FF99
:101900001020FFF7E5FF0820FFF7E2FF0120FFF7B7
:10191000DFFF0B4C4FF480612046FFF7E4FF4FF4EC
:1019200080600090012001900020029003900490BC
:101930006946204600F042FF06B010BD3038024034
:101940000000024000B587B01C210022684600F06C
:10195000AFFE35484FF0204101603449416000211D
:101960008160C160016141618161C1610162416267
:101970004FF4805181620021C16201634163816340
:10198000416402210091012101910B2102910F215B
:1019900003911021049111210591002106910A461D
:1019A000694600F049FF002801D0FFF7DFFE07B0CD
:1019B00000BD80B586B01421002201A800F078FE99
:1019C0001B49086800282BD10120086000200090E6
:1019D0001849086840F001000860086800F001003C
:1019E000009000984FF4F0600190022002900020D7
:1019F0000390032004900C20059001A90E4800F0EC
:101A000049FF4CF6B30001900220029000200390A1
:101A1000032004900C20059001A9084800F03AFF2B
:101A200007B000BDC5E70000E00D0020040100A0E4
:101A3000380E00203838024000100240000C0240EE
:101A400080B50F480F49016001F014F8002803D059
:101A5000BDE80140FFF78ABE01BD81B001680948B9
:101A600081420BD1002000900749086840F4805063
:101A70000860086800F480500090009801B070473A
:101A8000300E002000300240303802403EB505469E
:101A90000C4600931346DFF82420DFF8241001F0F1
:101AA00011F801A801F024F80094DFF818309DF82F
:101AB00004200146284601F02FF837BD6D34000898
:101AC000D5320008F31700080160897C80F82210E5
:101AD000704738B5044600231A4628216569A8478F
:101AE00000231A4614212046E568A84701224B210D
:101AF000204601F0BFF8206802792921204601F034
:101B0000B9F800224B21204601F0B4F82068027990
:101B10002921204601F0AEF801224B21204601F098
:101B2000A9F82068427929212046BDE8384001F013
:101B3000A1B81CB58DF805108DF806208DF804307D
:101B4000049900916B4601220F218468A04716BDBD
:101B500010B500231A4609218468A04710BD10B5AE
:101B600000231A460A218468A04710BD10B50A4612
:101B700000230B218468A04710BD10B50A4600233E
:101B80000D218468A04710BD10B50A4600230E2120
:101B90008468A04710BD10B500231A461021846840
:101BA000A04710BD10B5044600F0C5FB204600F06C
:101BB000D0FB0028FAD100212046BDE8104000F0FB
:101BC000ACBB0EE002684368024408305FEAC37CA5
:101BD00044BF4B445B1E52F804CB43F804CB091FAF
:101BE000F9D150F8041B0029ECD17047405C7047D4
:101BF00001440878497811EB0020704738B5054654
:101C00000C4600212046FFF7F1FF287001212046F5
:101C1000FFF7ECFF687002212046FFF7E7FFA8708E
:101C200003212046FFF7E2FFE87004212046FFF77A
:101C3000DDFF287105212046FFF7D8FF68710621D6
:101C40002046FFF7D3FFA87107212046FFF7CEFFFC
:101C5000E87108212046FFF7C9FF287209212046B4
:101C6000FFF7C4FF68720A212046FFF7BFFFA87282
:101C70000B212046FFF7BAFFE8720C212046FFF740
:101C8000B5FF28730D212046FFF7B0FF68730E21C2
:101C90002046FFF7ABFFA8730F212046FFF7A6FFF2
:101CA000E87310212046FFF7A1FF28741121204678
:101CB000FFF79EFF688213212046FFF799FFA88255
:101CC00015212046FFF794FFE88231BD30B402466B
:101CD000137B15682878D840CC18E4B2082C09DBAF
:101CE0006D1C15602D78C3F1080305FA03F3034357
:101CF0001846083C1473012202FA01F1491E0840FB
:101D0000C0B230BC704710B50C46FFF7DFFF0122B0
:101D1000611E8A40801A40B210BD002B03D0022BF6
:101D200005D002D305E0801804E0401802E0801AD4
:101D300000E0401A80B27047002B03D0022B05D080
:101D400002D305E0401804E0801A02E0401A00E0E7
:101D5000801880B270472DE9FE4F00F1640B9BF9AB
:101D600004709BF9056004468DF804200D4605E0DB
:101D7000A5EB0805EDB20027761CF6B29BF90680AC
:101D8000A8EB07085FFA88F8C146454500DAA9467E
:101D9000BBF80200ADF800009BF80C30324652B29E
:101DA0003946BBF80000FFF7C7FF82469BF80C30AE
:101DB000324652B23946BDF80000FFF7AEFF024688
:101DC0009DF8040000280CD09BF80A0084F89200CB
:101DD0009BF80C0000904B465146204600F004FA58
:101DE0000FE09BF8090000280BD19BF80B0084F84A
:101DF00092009BF80C0000904B465146204600F0A4
:101E0000F3F94545B4DAED198BF804508BF8056009
:101E1000BDE8F78F38B5044604F16005296000205D
:101E20002873297E2846FFF751FFA872697E28464D
:101E3000FFF74CFFE87294F89200A873401E8041AF
:101E4000C00FE87331BD00002DE9F8430446FFF7E9
:101E5000E1FF04F1640797F90750B97D04F16000D0
:101E6000FFF751FF8046F97D04F16000FFF74BFF5B
:101E70008146397E04F16000FFF745FF064697F979
:101E8000060001286DDBA944C9F100093B7B4A46E5
:101E900052B241463888FFF74FFF38803B7B4A46B5
:101EA00052B241467888FFF738FF78803988024679
:101EB0000B469646387B032820D8DFE800F002075F
:101EC0000E1897F906001B18AE4417E0491B491C71
:101ED0005B1C97F90600864410E097F90600091A82
:101EE000491C5B1C521B521C0EF1010E06E0EB1844
:101EF00097F90600121A521C0EF1010E1FFA8EFEFF
:101F0000CDF800E09BB292B289B2204600F036FBD9
:101F1000002826D0002038717871B97C04F1600067
:101F2000FFF7D4FE8146F97C04F16000FFF7CEFE96
:101F30008046002249462046FFF70DFF0122414618
:101F40002046FFF708FF012104F16000FFF7BEFE05
:101F50000028EED197F90500A842DEDBB87A84F8B4
:101F600092003046BDE8F28370B5583002681732EF
:101F70000C46B4F5807F13DA612C02DB008E02443C
:101F800005E0412C03DBC08D024400E002445078A0
:101F9000002820D014780B469C42F7D1901C70BDCD
:101FA000408E15182E4600213046FFF721FE0544CD
:101FB00002213046FFF71CFE361DA042F3DB2978D4
:101FC000687850EA012006D0A04202D0A8780544E3
:101FD000F5E7E81C70BD002070BD38B5044600254B
:101FE00004F164000180428019462046FFF7BCFFDF
:101FF000010003D02046FFF727FF0546284680B2A0
:1020000032BD80F86D107047F8B504460D4616468F
:102010001F4604F15C01087D032816D8DFE800F0B4
:1020200002070C1120460968884786190DE02046F2
:10203000096888472D1A08E0204609688847361A3B
:1020400003E020460968884745193B46324692B26C
:10205000294689B2204601B0BDE8F040BDE7000046
:102060002DE9F04180460C4615461E4600F008FE5C
:10207000002701E02D1AC71931784046D8F804200E
:10208000904702464FF6FF718A4218D0761C4FF6F1
:10209000FE718A42F0D003462A4692B2214689B2A6
:1020A0004046FFF7B1FF98F870100329E3D8DFE846
:1020B00001F0040A0C03DEE7DCE70419DBE738462D
:1020C00080B2BDE8F0814519D5E7241AD3E718B4EA
:1020D000DFF8A840446001B010BCC1E700F158022D
:1020E0001168002900D1704770B400F18D0392F897
:1020F0002910597092F82A1099701978002926D061
:1021000093F90140012910D190F9834090F98E1084
:102110008C4200DA0C465C7090F9841090F98F00C4
:10212000814200DD0146997011E092F9281092F980
:1021300026500E467619B44201DA4919597090F9C1
:10214000801090F98F00814200DD0146997070BCCB
:102150007047002070470A49C165704710B50446B2
:10216000A06D884208D0A16504F17400FFF746FD18
:102170002046BDE81040B1E710BD0000892C0008E2
:1021800053210008F0B404880D882D192F462646E7
:10219000BFB2B74206D227461E46B74201D25D1EE5
:1021A00000E0144627461E46B74204D217462E4684
:1021B000B6B2B74201D300200AE0A24200D22246C2
:1021C000ADB2AB4200D92B4602809A1A0A80012098
:1021D000F0BC70471CB59DF810400094C48F121BD2
:1021E00092B2C46AA04713BD7FB5054695F88C002E
:1021F000002848D01846002845D0089C022810DB4B
:102200002046022805D11846091A491CADF80410C9
:1022100007E0032805D111461846091A491CADF8F4
:10222000081004F0010405F13006200010D1BDF8BB
:102230000810B08B814226D3F08B814223D2738B5E
:10224000328B03A901A8FFF79DFF002810D17FBDA5
:10225000BDF80410308B814215D3708B814212D2AD
:10226000F38BB28B03A902A8FFF78CFF00280AD0DA
:102270000094BDF80C30BDF80820BDF804102846C5
:102280003468A468A0477FBD80F89210032902DB60
:10229000012180F89210704700220168097C90F8B3
:1022A000383013FB01F1C900406B00F001BA38B5BA
:1022B00003681B7C446B1D4611FB05F1C90089B204
:1022C000214400910021FFF734FC31BD2DE9F0419C
:1022D0000446002504F1380006784778206890F815
:1022E00011803A46D2B22946C9B22046FFF7DFFF35
:1022F0006D1C7F1C2846C0B2B04203DA3846C0B21B
:102300004045EEDBBDE8F08110B50446FFF7DEFF87
:102310002046BDE81040FFF73EBC38B5044604F146
:102320003005697229680968884720462968496824
:10233000BDE83440084710B5044694F893000028DF
:1023400002D02046FFF7A8FF00212046BDE810403C
:10235000E3E738B50446FFF7B9FF04F138014878E0
:102360000D782D1828462168497CC0B2884204D3D4
:102370002046FFF710FC002032BD94F8930000289F
:1023800002D02046FFF788FF2946C9B22046FFF752
:10239000C4FF012032BD2DE9FE4F82460C46154692
:1023A0001E460AF1910797F8018041460846401EF3
:1023B0008041C00F8DF80400681C80B20090331972
:1023C0009BB22146504600F0D9F8002854D04FF077
:1023D000010BDDF830900DE087F8018000200090BF
:1023E0009BB22A461846E31A1946034689B250465C
:1023F000FFF7FAFE304680B200283BD099F8001073
:102400000BEA01010023584609E05B1C641C4000F4
:10241000C0B2002802D1012009F10109761E32461E
:1024200092B2002A10D099F800C000EA0C0C0029E2
:10243000624603D1521E9241D20F03E0521E9241D6
:10244000D243D20F002AE0D183460029C4D1387884
:102450000028CFD19DF804007870002000909BB236
:102460002A461846E31A1946034689B25046FFF732
:10247000BBFEBFE787F80180BDE8F78F2DE9FC4779
:102480000746884691461C460A9DDDF82CA0E61DAD
:10249000B6B205EB090080B2009004EB08039BB2D2
:1024A000384600F06BF800280ED111E0CDF800A0FE
:1024B00023464A4692B241463846FFF76CFF0AEB84
:1024C000D60A09F101096D1E284680B20028EDD117
:1024D000BDE8F38738B50546FFF776F9044615F1F0
:1024E000010F02D0044800782D18FFF76DF9001B8A
:1024F000A842FAD331BD00BF0000002001490860A6
:10250000704700000C00002038B504460E4D4FF413
:102510007A712878B1FBF0F00C490968B1FBF0F052
:1025200000F0A1F8002801D0012032BD102C08D203
:10253000002221464FF0FF3000F086F8AC6000200A
:1025400032BD012032BD00BF000000200C00002081
:1025500010B414468C42194607D2884201D2012099
:102560000AE093428041C00F06E0884203D29342C2
:102570008041C00F00E0002010BC704770B50E46CF
:102580001C46049B00F14805E988A888FFF7E0FF96
:10259000002801D1002070BD234632466988288872
:1025A000BDE87040D4E700002F490A6860F30A22B2
:1025B00040F2FA5060F31F420A6070472A480068F0
:1025C000C0F30220704700000A01010002D427482E
:1025D00042547047264801F00F01084400F8042CCB
:1025E000704710B400F00700C0F10703052B00D3BB
:1025F0000423041D072C01D2002000E0C01E01248A
:1026000004FA03F35B1E1940814004FA00F0401EF7
:102610001040084310BC704738B505466D1EB5F133
:10262000807F0AD2134C65600F214FF0FF30FFF717
:10263000CBFF0020A06007202060B5F1807F8041A3
:10264000C043C00F32BDAFE770B506460C46154615
:10265000FFF7B4FF2A462146FFF7C3FF0146304685
:10266000BDE87040B0E7D7E70CED00E000E400E023
:1026700018ED00E010E000E081B0002000900B4871
:10268000416841F480414160416801F4804100911A
:10269000009900210091016841F0805101600068BB
:1026A00000F080500090009801B070474038024020
:1026B00062F30F2262F31F42401810F0030308D0A8
:1026C000C91A1FD3DB0748BF00F8012D28BF20F827
:1026D000022D130030B414461546103928BF20E9E6
:1026E0003C00FAD8490728BF20E90C0048BF40F851
:1026F000042D890028BF20F8022D48BF00F8012DC5
:1027000030BC7047C91818BF00F8012DCB0728BF8F
:1027100000F8012D7047000010B4036891FAA1F190
:10272000B1FA81F14C000321A1408B43A2401A432E
:10273000026010BC704743688B43514319434160AA
:10274000704710B4836891FAA1F1B1FA81F14C009D
:102750000321A1408B43A2401A43826010BC704702
:1027600010B4C36891FAA1F1B1FA81F14C000321D0
:10277000A1408B43A2401A43C26010BC704710B402
:10278000036A91FAA1F1B1FA81F18C000F21A14005
:102790008B43A2401A43026210BC704710B4436AD4
:1027A000090A91FAA1F1B1FA81F18C000F21A1403F
:1027B0008B43A2401A43426210BC7047F8B50546ED
:1027C0000E46306890FAA0F0B0FA80F72EE0FFF7DE
:1027D000E5FF25E00124BC400C4026D070680128AC
:1027E00001D0022809D1B26821462846FFF7A9FF87
:1027F000F26821462846FFF79EFF326921462846A7
:10280000FFF7AEFF706802280AD194FAA4F0B0FA7C
:1028100080F00828726921462846D8D2FFF7AFFF1A
:10282000726821462846FFF777FF7F1C316808460B
:10283000F840CFD10020F2BDF8B504460D4616464B
:10284000002C01D10120F2BD04F14807787800285E
:1028500004D1002038702046FFF7E4F804F10801A5
:10286000206800F019FAA2682946206800F046FAAC
:10287000236BA2683146606800F05BFAA0682268AA
:1028800052F8201041F0010142F820100120787028
:102890000020F2BDF8B500232DE04FF0080C05E054
:1028A000DFF8A4C16045F8D14FF0070C0CFA06FC24
:1028B0004CEA070C44F825C0644CA668D5432E406A
:1028C0004F68FF0200D51643A660E6682E404F68A9
:1028D000BF0200D51643E66066682E404F68BF030E
:1028E00000D51643666026682E404D68ED0300D57E
:1028F000164326605B1C0F2B00F2A58001269E402C
:102900000A683240B242F5D15C000325A540ED4390
:102910004F6807F0030CBCF1010F03D007F0030769
:10292000022F10D187682F40D1F80CC00CFA04FC9C
:102930004CEA070787604768B7434E68C6F300163E
:102940009E40374347600E7906F00306032E05D0FC
:10295000C7682F408E68A6403743C7600E7906F0DF
:102960000306022E16D11E46F60800EB8606D6F8A0
:1029700020C09F0007F01C074FF00F0E0EFA07FE55
:102980002CEA0E0CD1F810E00EFA07F747EA0C0C0F
:10299000C6F820C006682E400D7905F0030505FA3B
:1029A00004F4264306604C6814F4403FA2D000248F
:1029B0000094274D2C6844F480442C602C6804F467
:1029C00080440094009C1D46AD08224C54F82570AC
:1029D0009E0006F00C064FF00F0C0CFA06FC27EADE
:1029E0000C07DFF874C0604502D14FF0000C5DE7C2
:1029F000DFF868C0604502D14FF0010C56E7DFF800
:102A000060C0604502D14FF0020C4FE7DFF854C0C0
:102A1000604502D14FF0030C48E7DFF84CC0604539
:102A200002D14FF0040C41E7DFF840C0604502D10D
:102A30004FF0050C3AE7DFF838C060457FF430AF5F
:102A40004FF0060C32E7F1BD001C0240003C014093
:102A500044380240083801400000024000040240AF
:102A600000080240000C0240001002400014024026
:102A70000018024010B5040001D1012010BD60799A
:102A8000002804D1002020712046FEF7E6FF012037
:102A90006071002010BD000000207047002101601F
:102AA00007498160C1600161416100F12301002299
:102AB0000A70CA708261FF20487048717047000038
:102AC000992A00082DE9F04180460C4615461E461D
:102AD000069FFFF7E3FFC8F80840C8F80C50C8F895
:102AE0001060C8F814704046BDE8F041FFF730B8F8
:102AF00014210170DFF80400704700001800002066
:102B000000F1300100220A848A844FF6FF724A8461
:102B1000CA8409684968084770B50446049804F1F6
:102B2000380500262E62E36261632A7031466970BF
:102B300004F16D05297004F18D0132460A710A70A5
:102B400001224A718A7120632046216B09688847F7
:102B50002046FFF7D5FF2046FFF7FDFA3046E87024
:102B600070BD70B4016838300278D20082800A7C6F
:102B7000D20042804678F600C680027843784C7CCA
:102B80009D18AC4201DA2246D21A0681468106EB34
:102B9000C20646818A8A8281C98AC18170BC704717
:102BA00038B5044604F14805E88900906B89AA8984
:102BB00029892046FFF7E2FC002803D1002084F891
:102BC0008C0031BD012084F88C00B4F85010B4F8AA
:102BD0004800814200D201462980B4F85210B4F86E
:102BE0004A00814200D901466980B4F85410B4F813
:102BF0004C00814200D20146A980B4F85600B4F8D6
:102C00004E10884200D90846E88031BD10B5044610
:102C1000FFF7A7FF04F144002168898A41802168F9
:102C2000C98A018010BD00F1400200211181538842
:102C30009188994201D3CB1A13810B4611885B1AF4
:102C4000538100219181D188D181A9E738B51446FB
:102C5000049DB0F84420511A4A1E002D03D1D21A07
:102C6000521C012100E00021009192B22146FFF7A1
:102C7000B1FA31BD10B500234469A04710BD000072
:102C8000002180F826107047080001D00A2801D1E1
:102C90004FF6FF707047000070B40B6850F82320A7
:102CA0005208520040F823208C68082C01D140259E
:102CB00000E000250B6850F823602D4A164035438C
:102CC0004A6815432C43CA6814430A6914434A6985
:102CD0001443CA6914430A6A14434A6A14438A6A49
:102CE0001443CA6A14430A6B14438A691443C96BB8
:102CF0000C4340F82340002070BC704710B40B68B0
:102D00004C6843EA04138C6843EA0423CC6843EA22
:102D100004430C69641E43EA04534C69A41E43EA4D
:102D2000046389690B4300EB82004360002010BC00
:102D3000704710B4B3F5804F13D150F822400D4BBB
:102D40001C400B681C434B6844EA03148B6844EA3C
:102D500003248B691C43C96844EA014440F82240BB
:102D600003E06FF0704140F82210002010BC704763
:102D70008000F0FF0000F0CF000000000000000025
:102D80000000000000000000000000000000000043
:102D90000000000000000000000000000000000033
:102DA0000000000000000000000000000000000023
:102DB0000000000000000000000000000000000013
:102DC0000000000000000000000000000000000003
:102DD00000000000000000003C8007000000000030
:102DE00000F80000000000003C8007000000000028
:102DF00000FE0300000000003C800700000000000F
:102E000000FF0300000000003C80070000000000FD
:102E100080CF0700000000003C8007000000000099
:102E200080830700000000003C8007F800000000DD
:102E300000810700000000003C8007FC031C003EEE
:102E40001CC00300000000003C8007FF077F80FFDC
:102E50003FE00100000000003C8007FF8FFFC1FF42
:102E60003FF00000000000003C8087FFDFFFC1C38F
:102E7000077C0000000000003C80870FFEFFE3811C
:102E8000031E0000000000003C80C707FCE3E38154
:102E9000070F0000000000003C80C707F8C1E78171
:102EA00087FF0700000000003C80C703F080E7C3F5
:102EB00087FF0700000000003C80C7037080C7E761
:102EC00083FF0700000000003C80C7037880C7FF35
:102ED00003000000000000003C80C703F8C087FF2B
:102EE00001000000000000003C80C707FCC1C77F54
:102EF00000000000000000003CC0870FFEFFE3015F
:102F0000000000000000000078C083FFDFFFE30343
:102F10000000000000000000F8F103FF8FFFE1FF58
:102F20000700000000000000F0FF01FE0FFFC0FFDF
:102F30000F00000000000000E0FF00FC037CC0FF69
:102F40001F00000000000000803F00F80100E001C9
:102F50001E00000000000000000000000000F00063
:102F60001E00000000000000000000000000F00053
:102F70001E00000000000000000000000020F0C75C
:102F80000F00000000000000000000000060E0FFF3
:102F90000F00000000000000000000000060C0FF03
:102FA0000300000000000000FCFFFFFFFFFF01FF27
:102FB0000000000000000000F8FFFFFFFFFF03001B
:102FC00000000000000000000000000000600000A1
:102FD0000000000000000000000000000060000091
:102FE0000000000000000000000000000060000081
:102FF0000000000000000000000000000060000071
:103000000000000000000000000000000060000060
:103010000000000000000000000000000060000050
:103020000000000000000000000000000060000040
:103030000000000000000000000000000040000050
:103040000000000000000000000000000000000080
:103050000000000000000000000000000000000070
:103060000000000000000000000000000000000060
:103070000000000000000000000000000000000050
:10308000000000000000000040242000000846026C
:103090000080C040000000000C6E6AC0A44804AA72
:1030A000AC8CAAAC000000006AA4AA20EAA4646662
:1030B000AA464A8A000000004CA4AA20AAA2442AD8
:1030C000AA28AA4C00000000E8A86CC4A442EE2A7A
:1030D000CC266CE8000000000600000000000000A4
:1030E00000000006000000000000000000000000DA
:1030F00000000000000000000000000000000000D0
:1031000000000000000000000000000000000000BF
:1031100000000000000000000000000000000000AF
:10312000000000000000000000000000000000009F
:10313000000000000000000000000000000000008F
:10314000000000000000000000000000000000007F
:10315000000000000000000000000000000000006F
:10316000000000000000000000000000000000005F
:1031700000000000000000002DE9F84305469146DC
:103180001C460E2900F095800F2940F0A08000F029
:103190002AF96179C900C9B2032091FBF0F095F8D2
:1031A00022603618F421284600F008F93146C9B2E9
:1031B000284600F003F9A779FF00F521284600F022
:1031C000FDF83946C9B2284600F0F8F8F62128463D
:1031D00000F0F4F806F13501C9B2284600F0EEF827
:1031E000F721284600F0EAF82868417CC919C9B2DD
:1031F000284600F0E3F806F00F01284600F0DEF85C
:10320000F6B2360946F010063146284600F0D6F8E8
:1032100007F00F0141F06001284600F0CFF8FFB23F
:103220003F0947F070073946284600F0C7F826796D
:10323000F600F6B227684FF000082AE097F8000081
:1032400050A100F00F0201EB4202001101EB40001F
:1032500069465378CB7012788DF8022042784A7014
:1032600000788DF800006A460421284600F0B4F882
:10327000133C142094FBF0F101EB8100B4EB8004CB
:1032800004D100220121284600F0A6F87F1C08F195
:1032900001084446A4B2B442D0DBA9F10109484672
:1032A000C0B20028C7D1284600F0A4F80120BDE82C
:1032B000F28300F098F88121284600F07FF8494613
:1032C000284600F082F8284600F094F8EEE7002047
:1032D000EDE7000070B504460E461546FFF74CFFBB
:1032E00000280DD1092E06D00A2E0BD00B2E11D09E
:1032F0000D2E1CD031E000BF2AA12046FEF7E4FBD2
:10330000012070BD2046FEF7E4FB1549204600F081
:1033100078F8F5E7002D04D112A1204600F071F8ED
:10332000EEE700BF11A1204600F06BF8E8E7002DA2
:1033300009D100BF0FA1204600F063F82068807C0F
:1033400084F82200DCE700BF0CA1204600F059F809
:103350002068C07C84F82200D2E7002070BD000005
:10336000AC3500081815AD19FF0000001815AC1990
:10337000FF0000001815C419FF0000001815C0193F
:10338000FF0000000000000F00F000FF0F000F0F13
:103390000FF00FFFF000F00FF0F0F0FFFF00FF0F55
:1033A000FFF0FFFF00010A0A14C80A3C00127A006D
:1033B00000041E5014142525A000A00010B50A46D4
:1033C00000231521C468A04710BD10B50A4600238C
:1033D0001621C468A04710BD10B513460A46172130
:1033E000C468A04710BD10B500231A461821C46850
:1033F000A04710BD10B500231A461921C468A04784
:1034000010BD7CB504460D4608E015F8010B8DF89B
:103410000000002302462046E668B04715F8011B6D
:103420000A46153A012AF0D9921E05D0521E012AE9
:103430000CD9E63A10D073BD15F8010B8DF80000D9
:103440006A4601212046FFF7C7FFE7E700231A4637
:103450002046E668B047E1E715F8010B8DF800005B
:10346000024629212046FFF705FCD7E7F8B50446B8
:103470000F4615461E4638461438052819D8DFE889
:1034800000F01103030D11110021204600F014F883
:103490002946204600F01EF80120F2BD01212046F9
:1034A00000F00AF833462A46394620462469A047E8
:1034B000F2BD0020F2BD000010B50A460023202115
:1034C0000469A04710BD10B513460A4617210469C8
:1034D000A04710BD02B56A460121FFF7F4FF02BD07
:1034E0008161704709048161704780B5283930D007
:1034F000491E12D0491E02290CD9C91E29D01339E0
:10350000092926D90A390CD0491E14D0491E092987
:103510001FD91BE000BF00BF1BE01046FEF7DAFF1B
:1035200017E01F48002A03D14FF0C041016010E0AE
:103530001C4901600DE01C48002A4FF4806102D153
:10354000FFF7D0FF05E0FFF7CBFF02E0012180F895
:103550002710012002BD38B514461D46142915D088
:10356000172906D0182911D019290FD020290AD0DF
:103570000EE02046C0B2002808D015F8010B00F07C
:1035800009F8641EF5E74A21FFF774FB012032BDFC
:10359000002032BD02490968087070470000000031
:1035A0003C0E002000000160000002401815E2FE01
:1035B0000A15E9152B15241581159615A415A615C0
:1035C000C415A115D115D5158415C8151015DA1512
:1035D000F4152515F6155A15F5150015F7159F154F
:1035E000F815891540155015901500158415F1151D
:1035F0009F15F2150015F315A015AC19FF0000007A
:1036000030B4002412E050F8043BDA0744BF4B44C6
:103610005B1E091F042943F8044BFAD21A468D0792
:1036200044BF1C80921CCB0748BF147050F8041B89
:103630000029E8D130BC704710B500F013F8020043
:1036400000230024E4431068A04203D011000220AC
:10365000ABBE13605068A04203D0111D0220ABBE68
:10366000536010BD004870471000002010B5034A99
:103670007A440832024C7C44A41D03E04000000060
:103680006000000004E01168101D114488470246E4
:10369000A242F8D110BD00004EF68851CEF20001D2
:1036A000086840F470000860BFF34F8FBFF36F8F5E
:1036B0004FF00170E1EE100A7047000045FFFFFF78
:1036C000280E00001800002000000000F7E4FFFFB3
:1036D0001800000070000000000000200000000042
:1036E00000F00DF8002801D0FFF7C0FFAFF3008015
:1036F0000020AFF30080FDF761FE00F002F801202A
:10370000704700F001B800000746384600F002F8A4
:10371000FBE7000080B5FFF78FFF024A1100182079
:10372000ABBEFBE7260002000548014603B468462D
:1037300080F30988AFF30080FFF7AEFFFFF7D0FFFB
:10374000A5EDF5FE010000000000000010000000E3
:103750000024F400FFFFFFFFFFFFFFFFFEE7FEE78F
:10376000FEE7FEE7FEE770477047704700F000B8DD
:1037700002484268017851184160704700000020FB
:103780000148804701480047913700082937000861
:103790000249086840F470000860704788ED00E056
:1037A0000D2C0008272C00084D2C0008FFF7FEBF49
:1037B000FFF7FEBFFFF7FEBFFFF7FEBFFFF7FEBF3D
:1037C000FFF7FEBFFFF7FEBFFFF7FEBFFFF7FEBF2D
:1037D000FFF7FEBFFFF7FEBFFFF7FEBFFFF7FEBF1D
:1037E000FFF7FEBFFFF7FEBFFFF7FEBFFFF7FEBF0D
:1037F000FFF7FEBFFFF7FEBFFFF7FEBFFFF7FEBFFD
:10380000FFF7FEBFFFF7FEBFFFF7FEBFFFF7FEBFEC
:10381000FFF7FEBFFFF7FEBFFFF7FEBFFFF7FEBFDC
:10382000FFF7FEBFFFF7FEBFFFF7FEBFFFF7FEBFCC
:10383000FFF7FEBFFFF7FEBFFFF7FEBFFFF7FEBFBC
:10384000FFF7FEBFFFF7FEBFFFF7FEBFFFF7FEBFAC
:10385000FFF7FEBFFFF7FEBFFFF7FEBFFFF7FEBF9C
:10386000FFF7FEBFFFF7FEBFFFF7FEBFFFF7FEBF8C
:10387000FFF7FEBFFFF7FEBFFFF7FEBFFFF7FEBF7C
:10388000FFF7FEBFFFF7FEBFFFF7FEBFFFF7FEBF6C
:10389000FFF7FEBFFFF7FEBFFFF7FEBFFFF7FEBF5C
:1038A000FFF7FEBFFFF7FEBFFFF7FEBFFFF7FEBF4C
:1038B000FFF7FEBFFFF7FEBFFFF7FEBFFFF7FEBF3C
:1038C000FFF7FEBFFFF7FEBFFFF7FEBFFFF7FEBF2C
:1038D000FFF7FEBFFFF7FEBFFFF7FEBFFFF7FEBF1C
:1038E000FFF7FEBFFFF7FEBFFFF7FEBFFFF7FEBF0C
:04000005080037298F
:00000001FF
