:020000040800F2
:1000000048120020DD320008B9320008BB32000877
:10001000BD320008BF320008C132000800000000F5
:10002000000000000000000000000000C3320008D3
:10003000C532000800000000C7320008C9320008BD
:10004000093300080D330008113300081533000888
:10005000193300081D330008213300082533000838
:10006000293300082D3300083133000835330008E8
:10007000393300083D330008413300084533000898
:10008000493300084D330008513300085533000848
:10009000593300085D3300086133000865330008F8
:1000A000693300086D3300087133000875330008A8
:1000B000793300087D330008813300088533000858
:1000C000893300088D330008913300089533000808
:1000D000993300089D330008A1330008A5330008B8
:1000E000A9330008AD330008B1330008B533000868
:1000F000B9330008BD330008C1330008C533000818
:10010000C9330008CD330008D1330008D5330008C7
:10011000D9330008DD330008E1330008E533000877
:10012000E9330008ED330008F1330008F533000827
:10013000F9330008FD3300080134000805340008D5
:10014000093400080D340008113400081534000883
:10015000193400081D340008213400082534000833
:10016000293400082D3400083134000835340008E3
:10017000393400083D340008413400080000000014
:100180004534000849340008E0000303050504066F
:1001900006161CFEFB12FB1200025B04E40E152087
:1001A000060020C8022109422A78E207110122092B
:1001B00066ECCBC212CA0223244A26C86E329BCCFC
:1001C0002633916C249B4C0E07936826121D0E96C5
:1001D000B5C94C3413C946B2C90C002427EAA6C7D6
:1001E000520E9143C4B643643619D62173C81C32EB
:1001F00087D0E99039440E31DA468798590E9143F9
:100200008400251B4926C86676BA9CC463B9782C3D
:100210001ECBC563916842994822A2DB00261D6966
:1002200026C88E685A914DE4F2F1985894CC241364
:100230009284743B51469343CC00270963E87B6268
:10024000128A0028144532D84A36198D444B326D33
:10025000A3996C341B490029104432C842241A89DE
:1002600046FA6545B214022A100869DB4E2C3A485A
:100270004C96434C1493012B0CE728B94EAA74B842
:100280004945002C0762E87782122D0747A8B9E29A
:10029000012E0742287882002F13482AC85A752A4F
:1002A0005D95AE4AA7D255E9AA180030124926C872
:1002B0008E76A11CA9FCD7A26434399200310B457B
:1002C0002EC84EE960D3FF0332164926C88E76A1A8
:1002D0001CA945E2743C5D9E2E4FC7870301331471
:1002E00069E6C7E281BC3A164FA965BA5E6407D2D7
:1002F000350834174926C86E2C178FE5E265B948D2
:100300003452131D0E54B9260035154926C8E2C1D2
:10031000AEFD7488CCAA72756AD134399200361752
:100320004926C88E76A11CE9EAA7436466A4B216E2
:100330004D9323090037154A26C8E24354229C08EE
:10034000E773F9BA7CBB7CBB1400381A4926C88E07
:10035000762119A9D4A26434395D66462AB52819D4
:100360004D8E240039184926C88E762119A9AC452E
:10037000D3E410BACBA945C9687224013A0842A94E
:1003800078820E253B09626978820EA5043C0D66D1
:10039000EDC852365A120AB74A033D0BC8E8C8E204
:1003A000418E7438083E0F66EDC8222A1D2ECA26DB
:1003B000A399300A3F146926C88E769A1CA972F157
:1003C00094BA2CD71DA35C064032D1E636F70E391D
:1003D0008C2D363A690E9ACC4CA6534D34A3A9D134
:1003E000D4686A34359A1A4D8D36A1980E941985C1
:1003F000364799C3EDE003FD3002411C4A26C8523E
:100400000E19F35C344E8422A148281A1D428790AD
:10041000502414098D0342184926C8C27688C8267C
:10042000C22AE38172924D84558EB543C5064312AC
:100430004926C8AA76A11CA974FDB5689ADC4A00B1
:1004400044104926C8E27488C8ACFC3F1E28270027
:1004500045204A26C8E2431C2287C82172881C22F4
:1004600087DC6E72881C2287C82172881C7238183B
:1004700046224A26C8E2431C2287C82172881C22D1
:1004800087DC6E72881C2287C82172881C2287C86C
:10049000210047134926C8AA76A11CE9BAB9722DD2
:1004A0005A2887D001480D4926C842CA5F0F0F510C
:1004B000FE2A4908422A78E20F014A0E4926C85E00
:1004C000FF776AD1343992004B1D4926C842D8368D
:1004D000118D4423C9AC58A4528B45C94C34128D9C
:1004E00064136171004C244A26C8420E9143E41003
:1004F00039440E9143E41039440E9143E4103944D9
:100500000E9143E41039E470304D194926C8625801
:10051000B39D2E87C8E16132A14C4812528814A2C3
:10052000F22A4E154926C862D868B39D4E1411654B
:10053000429290DE1CBB0A4F114926C88E76A11C40
:10054000A9FCD7A269722B0150124926C8C276882D
:10055000C88C558E07CA49AEDF0151114926C88E95
:1005600076A11CA9FCD7A26972081D521A4926C897
:10057000C27688C88C558E07CA493492896413D9CB
:10058000442811B60A53154926C8AA76A11CA9E524
:100590003999BE9D5A344D8E2400540C4926B8E238
:1005A0008128D7FF6F00550E4926C842CAFFD7A23F
:1005B00069722B01561B4A26C86238114E8422A14B
:1005C00068265A13CD44429170226D25B36F0357AC
:1005D000224A26C862E838118A8422A14828922833
:1005E0004994244A87D02174081D4287D021B40B36
:1005F00000581D4A26C84638118A66A235917022D5
:10060000B492B91A2742916CB426124A860359193A
:100610004A26C86238118A36094542C9B05A26CFDF
:10062000E7F275F9BA1C005A164926B8E2813C1661
:100630008FC563F1EA782C1E8BC78703015B0B46DD
:100640002EC8E251FF8F87025C15492AC8423E57E7
:100650009FCBC773F9782E9FCBC773F9005D0C450C
:100660002EC8E230D3FFDBA1005E0966ECCC8672B7
:1006700008095F084CA0C7E2C300600984B0CC42FF
:10068000269209611BCB25D88E6C1CCD8432A11C0F
:1006900024BC1D423491542415311D462501621598
:1006A0006926C842AE17D221423952F95AB41C2ADF
:1006B0001212006311C925C88E76A11CA9745D8B26
:1006C00016CAAD0464136926C85E6F96436472A4AB
:1006D000F2B568A11C42076514C925C88E769A1C1C
:1006E000A9D4C3435C3E8CB0DC4A0066136926C8BB
:1006F0009268B38964728D87C82128D71F01671C4F
:1007000069E6C6CE72884C8E546A5132A19C6CF256
:10071000F1E550A4D6268790050068106926C842E6
:10072000AE17D221423952F9AF02690D642A7842DC
:1007300024878BF49F96046A1007EFD6561DABFEF4
:10074000BFD22A131305006B176926C842AEC7B67D
:10075000894C241AA949666EA7916845581C6C0CEF
:1007600065267842A6FFDF66A4016D20D0253843B8
:1007700042231D0E118AE538A44AA952AA942AA53B
:100780004AA952AA942AA54AA90A6E0FC925C842A5
:10079000423A4428472AFF55006F11C925C88E7672
:1007A0009A1CA97C2D5A28B71200701569E6C6421A
:1007B000423A4428472A5F8BA603454292EB0E71CA
:1007C0001469E6C6CE72884C8E54BE1625A3C92184
:1007D00066D703720EC72598427238444A54FD2BDF
:1007E000007313C825B88A6619D988E562B948B478
:1007F0004C6C2400740F66268846A8DBA122D41F07
:1008000087B401750FC925C842CA7F2D4A46934354
:10081000CC00761BCA25C86238114E8422A16826F6
:100820005A13CD4442917022B456C934007729D16D
:10083000253863B8225C110E45429A6854138D4ADC
:100840003391443413494442916422B44C84A62A1F
:10085000AD4A23D368007817C929C842581489467D
:100860008A45F22AB52692892642897000791C6A47
:10087000E6C66636928D64DA26B3C95032944825AE
:10088000D266F27CA36466A5027A10CA25C8E2C1CA
:100890003E5E1F6F1FAF1F0E067B12A7AEC77246CC
:1008A000A20DA5BAD1A4AB7A9D12077C08E2B6C707
:1008B000E21F087D11A7AEC742BAAAD76DA4A15402
:1008C000C7196D087E0B6A64C926283A880E027F14
:1008D000060020C80280060020C80281060020C849
:1008E0000282060020C80283060020C80284060097
:1008F00020C80285060020C80286060020C802879C
:10090000060020C80288060020C80289060020C808
:10091000028A060020C8028B060020C8028C06004E
:1009200020C8028D060020C8028E060020C8028F53
:10093000060020C80290060020C80291060020C8C8
:100940000292060020C80293060020C80294060006
:1009500020C80295060020C80296060020C802970B
:10096000060020C80298060020C80299060020C888
:10097000029A060020C8029B060020C8029C0600BE
:1009800020C8029D060020C8029E060020C8029FC3
:10099000060020C802A0060020C802A1060020C848
:1009A00002A2060020C802A3146926B88E685A1154
:1009B0004AE43A9F6E729DC7870301A4060020C8CF
:1009C00002A5060020C802A6060020C802A723D35D
:1009D0002568773C17CFC77362B5669C8C26B391A8
:1009E0004D342B1EA946AA917ABA944C576209003D
:1009F000A8060020C802A92D512638F70E3950D973
:100A0000E6A091AC26199D2CA3514928A3436474F8
:100A1000888C2494552823B7C98836A2D32CE68322
:100A20001C5606AA060020C802AB122925B94E168C
:100A30009A6C118DD426B3D1923016AC060020C822
:100A400002AD060020C802AE060020C802AF0600B4
:100A500020C802B00B84687C461212452400B106FF
:100A60000020C802B2060020C802B3060020C80257
:100A7000B4060020C802B5104926C742CA7F2D9A85
:100A80000E97435C3B00B6060020C802B706002064
:100A9000C802B8060020C802B9060020C802BA067B
:100AA0000020C802BB152925B922269BCC26B3916C
:100AB0004C249A9826A2512C08BC060020C802BDDE
:100AC000060020C802BE060020C802BF060020C8DB
:100AD00002C023EA26C84E0E9283E410399A1C32D3
:100AE000E6B9689C0845429150343A840E21A148E9
:100AF00028121A07C11FEA26C876AE1D550E19F333
:100B00005C344E8422A148281A1D42879050241438
:100B1000098D03C222EA26C8524E9608457224392E
:100B200064CC73D138118A8422A16874081D4242B2
:100B3000915024340EC3060020C802C41EC926C822
:100B40004A2294C8318D97A9C446895032938C4665
:100B5000A291E821223316A902C5060020C802C6C8
:100B60002C501AC8FA303E8CE9C03A5022074AE4A9
:100B7000B0891C26928346C7D1512687CCE4904386
:100B80001C72880FE552F1F4403D04C7060020C8EE
:100B900002C828EA26C84E0E9943E42039F8F0101E
:100BA00087C82172881C2287C821B79B1C2287C84E
:100BB0002172881C22871C0E06C926EA26C8562EDA
:100BC00087C8E528878738440E9143E41039440EDE
:100BD000B9DDE41039440E9143E41039E47030CAB1
:100BE00027EA26C8524E95086572E8E1210E914326
:100BF000E41039440E91436E3739440E9143E410AA
:100C000039440E391C0CCB26CA26C84A2295C83155
:100C10001D1EE21039440E9143E41039E4769343EB
:100C2000E41039440E9143E490C3C100CC0DE4328A
:100C3000C842A61615E9FF5F00CD0DE532C86AA4CB
:100C40001D24D3FF3F01CE10E72EC84A4893A8C900
:100C50004152FDFF1B00CF0EC532C84242910365D1
:100C6000FAFF2700D0060020C802D1060020C802E3
:100C7000D216E926C84E3E9743E470DA8572A4F294
:100C80005F8BA6C9AD04D316E926C8562C17CB91A5
:100C90006817CA91CA7F2D9A26B71200D417E92681
:100CA000C8524C94C8D4C1B40BE548E5BF164D9367
:100CB0005B0900D5114926C88E76A11CA9FCD7A2D4
:100CC00069722B01D616C926C84A2294C831D12E82
:100CD000942395FF5A344D6E2500D7060020C80294
:100CE000D8060020C802D913E926C84E3E9743E42F
:100CF0004029FF5F8BA6C9AD04DA13E926C8562C3C
:100D000017CBC152FEBF164D935B0900DB14E926D9
:100D1000C8524C94C8D46152FEBF164D935B090073
:100D2000DC13C926C84A2294C891A5FC7F2D9A26B7
:100D3000B71200DD060020C802DE060020C802DF70
:100D4000196926C88A685A114A8412D94444115133
:100D50006456FE66A2884600E0226B26D84E0E93AB
:100D600083E4303922D9389A0965423948783B847E
:100D70006822A9482A623A8C4A02E1226B26D85698
:100D80000E9143E4A0383AD9389A09654239487837
:100D90003B846822A9482A623A8C4A02E2216B26E7
:100DA000D86E4E9748657234B2713413CA8472900B
:100DB000F07608D144529154C474189504E30600A7
:100DC00020C802E4204B26D84A2296C871211B472E
:100DD00033A14C2807096F87104D241549454C87CE
:100DE000514900E5060020C802E620CE25188BED0B
:100DF0005019916C33B1502C141D2A87834C2C143C
:100E00000B85A5CAE450239100E7142966C78E76A6
:100E1000A11CA9745D8B9209E54896B201E81A6994
:100E200026C84E0E91CB217238ED423952A98787E0
:100E3000B87C1861B99500E9186926C872AC1E47DC
:100E4000A39D26472AF5F010970F232CB71200EA2E
:100E5000196926C86E4C94C8D4C1B4D3E448A51E01
:100E60001EE2F26184E55602EB194926C84A229433
:100E7000C831D14E9323957A7888CB8711965B0938
:100E800000EC0D65267862265496E9BFAD09ED0E9B
:100E9000642A784A22928845FA4F4B02EE11672263
:100EA000786A465291C94152FDD7550900EF0E6547
:100EB000267842429123C9F4DFD604F0060020C808
:100EC00002F1060020C802F217E926C86A2E87C878
:100ED000E5F889769A1CA97C2D5A28B71200F314DC
:100EE0006926C856AC1E47A39D26472A5F8B16CAA3
:100EF000AD04F4166926C86E4C94C8D4C1B4D3E4CA
:100F000048E56BD142B99500F511C925C88E769A8E
:100F10001CA97C2D5A28B71200F6154926C84A226A
:100F200094C831D14E932395AF450BE55602F70E89
:100F300047A9B84A2A473BDC91A43200F81A69262F
:100F4000C8CE72884C6E354F27094942115144274B
:100F50009B9B64427902F9146926C84E0E91CB21FD
:100F600072A094FF5A344D0EA103FA116926C8727B
:100F7000AC1E874BF9AF45D3E4103AFB136926C882
:100F80006E4C94C8D46152FE6BD13439840EFC127D
:100F90004926C84A2294C891A5FCD7A26972081DA7
:100FA000FD060020C802FE060020C802FF06002041
:100FB000C80200000004FFFF0000000000F080BB3A
:100FC0001121DFF87806DFF878360174002201215C
:100FD00080F825104274C360B3EE040ADFF864168B
:100FE000DFF86426DFF86436416182601D22DFF895
:100FF0006016C16180F824200C2180F8381003624B
:101000009FED433ADFF84C16DFF84C26DFF84C36FC
:10101000016382610D2180F84C100222162180F8B4
:10102000392080F860100322DFF8341680F84D2054
:10103000816504220E2180F8612080F87410052259
:10104000DFF8201680F87520C1661E21DFF818260B
:101050008364426680F888100622DFF81036C36584
:10106000072180F8892080F89D10DFF80436DFF82A
:101070000426DFF804160367C0F88020C0F88C103F
:101080001322DFF8F835C0F884300A2180F89C205C
:1010900080F8B01080ED000A80ED103A80ED113A32
:1010A00080ED150AF3EE0E0A9FED1A1ADFED1A1AFB
:1010B0009FED1A2AF2EE042A9FED193AB1EE040AC6
:1010C000DFF8BC35DFF8BC15C0ED010A082280ED61
:1010D0000A1AC0ED0B1A80ED0D2AC0ED0F2A80ED23
:1010E000143A80ED1A1A80ED1E0A80ED1F0A80ED79
:1010F000243A80ED252AC0F8983080F8B120C0ED60
:10110000281AC0ED292AC0ED2A0AC0F8AC10704791
:101110000000F0420000C8420000A042000070C27F
:10112000000002432DE9F0472DED0A8B82B000F05C
:10113000CDFA00F031FA00F0E5FA00F025FB00F0FE
:101140009BFBDFF8F894DFF84035DFF84025DFF847
:1011500040150FF25C5A09F1B40000F0B5FB09F13B
:10116000B40000F020FC002109F1B40000F022FCE2
:10117000002109F1B40000F066FE00F097FFDFF8EF
:10118000141509F1B40000F0FFFE022109F1B400CA
:1011900001F01AF8012109F1B40000F054FE00F04A
:1011A0000BFF4FF4FA7001F02BF8812000F000FFE4
:1011B000AA2000F0FDFEFFF703FFFFF7FFFEB7EEEA
:1011C000008ADFED058A9FED059ADFED059A9FED18
:1011D00005AA804665E000BF000020C3010020434F
:1011E000CDCC4C3DCECC4C3DB6EE000A20EE800A74
:1011F00060EE2A0A97ED001A30EE811A87ED001A88
:1012000020EE0B0AD7ED011A70EE211AC7ED011A74
:1012100095ED001A31EE601A85ED001AD5ED010A40
:1012200030EEC00A85ED010A1435641E40F0E880F6
:1012300034461437082C40F3D78009F1B40000F08D
:10124000F5FF4D460924287C0090F6EE000A95ED46
:10125000010A95ED001A70EE200AF6EE001AFDEE76
:10126000E00A71EE211A034610EE901AFDEEE11A23
:101270008AB211EE900A81B209F1B40001F010F8BF
:101280001435641EDFD153461922082109F1B40038
:1012900000F044FE09F1B40000F0F9FF012000F075
:1012A000AFFFFFF78BFEA0EB080100EE101AF8EE7F
:1012B000400A9FEDB80A80EE801AB5EE401AF1EEB2
:1012C00010FAEED9B4EE4A1AF1EE10FAA8BFB0EE59
:1012D000691A804649460920D1ED021A91ED000AAB
:1012E00001EE810A81ED000AD1ED030A91ED010AB8
:1012F00000EE810A81ED010A91ED000AB5EE400A87
:10130000F1EE10FA24D40A7C91ED000A00EE902A46
:10131000F8EE600A30EE800AB4EE490AF1EE10FAF7
:1013200080F2228091ED010AB5EE400AF1EE10FA4A
:1013300000F1328000EE902AF8EE600A91ED010A89
:1013400030EE800AB4EE490AF1EE10FA46DB2FE0E7
:10135000B1EE400A81ED000A91ED020AB1EE400AB9
:1013600081ED020ACFE700BF00EE902A91ED000A5E
:10137000F8EE600A70EE800A70EEA80AF8EE001A25
:1013800000EEA10A81ED000A91ED020AB1EE400AD9
:1013900081ED020AC6E700BFF1EE400A91ED030AB3
:1013A000C1ED010AB1EE400A81ED030AC2E700BFB8
:1013B00000EE102AD1ED010AB8EE400A30EE200A04
:1013C00030EE280AF8EE001A40EE210A91ED030AE9
:1013D000C1ED010AB1EE400A81ED030A1431401E4D
:1013E0007FF47AAF00244F46661C082E3FF720AFEB
:1013F00004EB840009EB800000F11405C4F108043B
:10140000387C97ED000A95ED001A00EE900AF8EE90
:10141000600A70EE800AB4EE601AF1EE10FABFF6C0
:1014200003AF287C00EE900AF8EE600A30EE811AD5
:10143000B4EE410AF1EE10FABFF6F6AE387C97ED45
:10144000010A95ED011A00EE900AF8EE600A70EEBE
:10145000800AB4EE601AF1EE10FABFF6E5AE287C11
:1014600000EE900AF8EE600A30EE811AB4EE410AFE
:10147000F1EE10FABFF6D8AE387C97ED000AD5ED44
:10148000001A95ED012A00EE900AFBEE670A30EE95
:10149000801A00EE900AFBEE670A97ED010A287C9D
:1014A00030EE800A00EE900AFBEE670A70EEA11A99
:1014B00000EE900AFBEE670A71EE61BA70EE820AE6
:1014C000F0EE6BAA30EE60CAF5EE40AAB0EE4CBA70
:1014D000F1EE10FA04BFB5EE40BAF1EE10FA55D0B5
:1014E0002AEEAA0A0BEE0B0A00F0FCFECAEE80AA56
:1014F0008BEE00BA97ED020AD7ED030AD5ED021A7A
:1015000095ED031A97ED022A20EE2A0A00EE8B0AC7
:1015100061EEAA0A41EE0B0A30EEC01AD7ED031AAB
:1015200001EE2A2A41EE0B1A87ED022AC7ED031AB3
:1015300030EE600A95ED021AD5ED030A00EE2A1A84
:1015400040EE0B0A85ED021AC5ED030A397C287CB2
:10155000401800EE900A287CFAEEEF0AB0EECC1AA2
:1015600070EEC10A401801EE100AB0EEEB0ABAEEB6
:10157000EF1A31EE400A00F0C5FEF0EE400AF5EE3B
:10158000400AF1EE10FA7FF74FAE2DE6F0EE48AAD2
:10159000A6E7000000007A4430B53F4A81B0D2F897
:1015A0000004052363F30200C2F80004D2F800042B
:1015B00000F007000528F9D1384C216841F480413A
:1015C0002160106840F48030106010688003FCD502
:1015D00055683348334905400D435560556825F437
:1015E00040355560106840F08070106010688001D0
:1015F000FCD560684004FCD5916821F0F001916051
:101600000421906863F38C209060906861F34F3000
:1016100090600220916860F301019160906800F091
:101620000C000828FAD1204800F082FE0F2000F0BC
:1016300085FE08B172B6FEE701B030BD9C0C0020FB
:1016400000000442000070420000C0420000584206
:10165000000090C200003442000020420000F0C1AF
:10166000000058C2000010420000484200008442BE
:10167000000034C20000A84200000C4300002842D1
:10168000000010C200009642692F0008F12F0008E8
:10169000FC32000888010008003802400070004059
:1016A0000080BFFF042A4000007A030A72B6FEE7FA
:1016B000553847322055433136393855000000003F
:1016C00001484068704700BF0000002000B50C488A
:1016D00081B0016841F400710160026842F48062E7
:1016E0000260016841F480710160032000F04AFE4D
:1016F0000F2000F023FE00F093FE002001B000BD9B
:10170000003C024000B587B01821002201A800F07B
:10171000A3FE1B48026842F080020260016801F0EB
:1017200080010091009B026842F010020260016893
:1017300001F010010091009A036843F00803036070
:101740000123016801F008010091009A016841F04D
:10175000010101604FF08062006800F0010000901C
:101760004FF4806100980748826101910022029342
:1017700003920492059201A900F0A2FE07B000BDF9
:10178000303802400000024000B587B01C21002222
:10179000684600F061FE33484FF0204101F5827247
:1017A000426001600022C2604261C2614262C26264
:1017B000026342638263426400218160016181614E
:1017C000016201230B22019302924FF48051816246
:1017D0000F2310220393049202210091112300226F
:1017E00005930692694600F0F5FE08B1FFF75EFF2B
:1017F00007B000BD00B587B01421002201A800F099
:101800002BFE1949086850BB01220A6000904FF472
:10181000F0621648016841F0010101600221006890
:1018200000F001000090009B1148019202910022FB
:101830000392032104910C22059201A900F0F8FE05
:1018400002210291002203924CF6B3000321019081
:1018500004910C22059201A9064800F0E9FE07B0A8
:1018600000BD0000E40D00203C0E0020383802408E
:1018700000100240000C02401048114900B5016000
:1018800081B000F0CBFF20B101B05DF804EBFFF7B1
:101890000DBF01B000BD81B0026809498A420BD179
:1018A000002000900748016841F480510160006801
:1018B00000F480500090009801B07047340E002072
:1018C000003002403038024030B583B00C460093FF
:1018D00005461346DFF82820DFF8281000F0C6FF81
:1018E00001A800F0D7FF9DF80420044B00940146A6
:1018F000284600F0E5FF03B030BD00006930000865
:10190000F52E00086D2D00080160897C80F82210FA
:10191000704730B5044681B0656900230022282154
:10192000A847E5680023002214212046A847012289
:101930004B21204601F07FF82068027929212046BA
:1019400001F079F800224B21204601F074F820685C
:1019500002792921204601F06EF801224B21204610
:1019600001F069F820684279204601B0BDE83040B6
:10197000292101F060B810B582B08DF805108DF8FE
:1019800006208DF804306B4604990091012284688A
:101990000F21A04702B010BD10B5846800230022BB
:1019A0000921A04710BD10B58468002300220A2138
:1019B000A04710BD10B50A46846800230B21A0473C
:1019C00010BD10B58468002300221021A04710BD6F
:1019D0000A7802704A7842708A788270CA78C27037
:1019E0000A7902714A7942718A798271CA79C2711F
:1019F0000A7A027291F90930437291F90A208272CF
:101A000091F90B30C37291F90C20027391F90D30EA
:101A1000437391F90E20827391F90F30C37391F9DA
:101A2000102002744B7C8A7C02EB03224282CB7C26
:101A30000A7D02EB032282824B7D897D01EB03212B
:101A4000C1827047B0B402461568137B2878CC1861
:101A5000D840E4B2082C08DB6F1C1760C3F1080300
:101A60003D7805FA03F31843083C1473012202FA87
:101A700001F1B0BC491E0840C0B270471BB1022B37
:101A800007D003D308E0801880B27047401880B2B6
:101A90007047801A80B27047401A80B270471BB1FD
:101AA000022B07D003D308E0401880B27047801A99
:101AB00080B27047401A80B27047801880B2704779
:101AC0002DE9F04782B090F9686090F9697081461D
:101AD00090468A4624E053462AE0811B3AE0811969
:101AE00038E0921904E000BF42FA87F200E0921B4E
:101AF0005FEA080000F03A8099F86E0089F89200D9
:101B0000CDF800C092B289B2484600F0EBFAA24587
:101B100033DBAAEB04007F1C5FFA80FA0026FFB2D9
:101B200099F96A40A41BE4B2A2452346FFF6D3AF5D
:101B300099F870C0B9F86620B9F86400BCF1000FDC
:101B4000CDD0BCF1020FC8D03ABF7DB2411B40FAE4
:101B500087F100BFBCF1000FC6D0BCF1020F01D06D
:101B6000BFD3C4E77DB2521BC2E700BF99F86D0036
:101B70000028CCD199F86F00C0E7B24489F868A07A
:101B800089F8697002B0BDE8F087000070B40166A2
:101B9000002180F86C10046E90F8781023780A46C3
:101BA000082A02DB641C0466083A80F86C200122D3
:101BB00002FA01F1491E0B40066E90F8791090F878
:101BC0006C4080F86A300D193378E340EDB2082D8F
:101BD00008DB761C0666C4F10804367806FA04F4BD
:101BE0002343083D8A40511E0B4080F86B3080F83B
:101BF0006C5090F8923080F86E30591E8941C90FB0
:101C000080F86F1070BC70472DE9F04381B0044636
:101C1000FFF7BCFF94F87A5094F96B80294604F1E1
:101C20006000FFF70FFF07460126681E06FA00F165
:101C300094F87B907F1A494604F16000FFF702FF99
:101C40000546A9F1010094F87C9006FA00F104F130
:101C500060006D1A4946FFF7F5FEA9F1010106FA89
:101C600001F1461A94F96A0001286DB2C0F2888029
:101C700045446D4294F87030B4F864006AB279B2A9
:101C8000FFF70DFFA4F864006AB294F87030B4F85E
:101C9000660079B2FFF7F2FE94F87070B4F8641041
:101CA0000246032F0B4696461FD8DFE807F00207CF
:101CB0000F1794F96A505B19C64416E094F96A50FC
:101CC000A1EB0801491C5B1CAE440EE094F96A705C
:101CD000C91B491C5B1CA2EB080203E094F96A7063
:101CE0004344D21B521C0EF1010EA4F866009BB2B5
:101CF0001FFA8EF0009092B289B2204600F0A0FE4A
:101D000000283DD05FF0000184F8681084F8691065
:101D100094F8761004F16000FFF794FE074694F8FB
:101D2000771004F16000FFF78DFE0546002239466A
:101D30002046FFF7C5FE012229462046FFF7C0FED8
:101D4000236E94F86C001A78411CC240C9B208296D
:101D500004DAD00784F86C10E8D409E05B1C236631
:101D6000C0F108001B7803FA00F002430839F0E7DD
:101D700094F969004045CBDB94F86E1084F892101A
:101D800070B201B0BDE8F08330B4826D17320B46FB
:101D9000B3F5807F25DA612BA8BFB0F8880003DA9D
:101DA000412B02DBB0F8860002445078002847D06F
:101DB00014789C4212D002445078002840D0147805
:101DC0009C420BD002445078D0B314789C4205D08A
:101DD00002445078A0B314789C42E5D130BC901CEA
:101DE0007047B0F88A00024414462578607800EB0A
:101DF00005200244A578E07800EB0520241D8842E8
:101E0000F3D31178507850EA012019D0984214D0B9
:101E100091780A441078517851EA002110D0994203
:101E20000BD0907802441178507850EA012007D006
:101E300098421CBF90781218E3D130BCD01C704778
:101E400030BC0020704780F86D1070470000000023
:101E50002DE9F04104460D4694F87000032816461B
:101E6000984616D8DFE800F002070C11E26D204614
:101E7000904786190DE0E16D204688472D1A08E04D
:101E8000E26D20469047361A03E0E16D2046884710
:101E90004519A4F86450A4F8666041462046FFF74F
:101EA00073FF002720B101462046FFF7ADFE07462D
:101EB000B8B2BDE8F08100002DE9F04705460E46B6
:101EC0001746984600F0E6FD00244FF6FE7A4FF6DE
:101ED000FF7901E03F1A041918F8011B6A682846C7
:101EE0009047484513D05045F6D00346BAB2B1B238
:101EF0002846FFF7ADFF95F870100329EBD8DFE80F
:101F000001F004090B03E6E7E4E78619E3E7A0B272
:101F1000BDE8F087C719DEE7361ADCE710B481B0F8
:101F2000DFF88440446001B010BCC5E7816D002932
:101F300000D1704750B490F9812090F9823090F828
:101F40008D1080F88E20A1B1012907D190F983105E
:101F50009142A8BF0A4690F9841007E090F98010DA
:101F600090F97E400E19B242B8BF0A199942D8BF03
:101F70000B4680F88E2080F88F3050BC70470020D0
:101F800070470A49C165704710B50446A26D8A4280
:101F900008D0A16504F17400FFF71AFD2046BDE8E2
:101FA0001040C3E710BD00009D2A00087F1F0008F5
:101FB0004FF0C0410870704770B5052000F020F95F
:101FC000DFF800414FF480652560142000F018F917
:101FD0004FF080602060F126142000F011F9256098
:101FE000C82000F00DF94FF0C044E22020709F257A
:101FF000642000F005F9E92222702B2121702420B1
:1020000020708123DFF8C0202370A4201178217074
:102010002070A6232370C4222270A1212170D12018
:102020002070D523237084222270C82121701020B3
:102030002070DA232370F422227025212170F620EB
:1020400020705A232370F522227000212170F7207E
:1020500020709F232370F822227089212170402054
:102060002070502323709022227000212170842040
:10207000207026702570F22323702170A020F32198
:102080002170207060232370702222701221217031
:1020900005202070A0210A4B00225120401E1A70FA
:1020A000FCD1491EF9D1AD20207070BDA021044B98
:1020B00000225120401E1A70FCD1491EF9D17047F0
:1020C00000000160180002401800002030B581B007
:1020D0009DF810500095C48FC56A121B92B2A84794
:1020E00001B030BDF0B581B090F88C40002C40D0EC
:1020F0001C003ED0069D022B08DB022D02D1C91A1E
:10210000491C03E0032D04BFD21A521C15F001052F
:1021100031D1B0F84C6094B2B4422AD3B0F84E40FA
:1021200096B2A64225D25B181FFA83FC8FB2B0F894
:102130004A40B0F84860BC4504D2A74238BF631E8D
:1021400003D331468FB2A74213D29FB2BE4210D200
:1021500089B28E4238BF0E469BB29C4288BF1C4655
:1021600031460095A41B056BA3B2AC6892B289B24C
:10217000A04701B0F0BDB0F848608CB2B442F8D3CB
:10218000B0F84A408EB2A642F3D29B181FFA83FCE5
:1021900097B2B0F84E40B0F84C60BC4504D2A742AC
:1021A00038BF631E03D3324697B2A742E1D29FB233
:1021B000BE42DED292B2964238BF16469BB29C42D5
:1021C00088BF1C463246CCE70A460329A8BF012235
:1021D00080F8922070470EE002684368024408309D
:1021E0005FEAC37C44BF4B445B1E52F804CB43F808
:1021F00004CB091FF9D150F8041B0029ECD170471A
:1022000030B581B00546FFF75BFA15F1010F0446C2
:1022100002D0054908782D18FFF752FA001BA84292
:10222000FAD301B030BD00BF00000020016890F873
:102230003820097C406B12FB01F1C90000F034BC6E
:102240002DE9F041044682B0206894F8388094F873
:102250003970467C00252068037CE9B29E46606B9D
:1022600011FB0EFE4FEACE4100EB1142009200211D
:10227000FAB22046FFF77FFB6D1C7F1CE8B2404599
:10228000BCBFF8B2B042E6DB02B0BDE8F08110B5E9
:102290000446FFF7D5FF2046BDE81040FFF791BB8D
:1022A0002DE9F04182B08046089C1746E01980B2C3
:1022B0000E461D460090AB199BB2404600F0C0FB95
:1022C00060B120000AD0002000902B46BAB23146FF
:1022D0004046FFF707FF7F1C641EF4D102B0BDE843
:1022E000F0810000B5EEC00AF1EE10FA02D4B1EEB2
:1022F000C00A70476FF0004C00EE10CAAFF30080C8
:102300007047000010EE100AF5EE400AF1EE10FAE8
:1023100009D604BFC04207E0B4EE600AF1EE10FA3D
:10232000B8BFB0EE600A704728BFB0EE600A7047D1
:1023300001490860704700000C00002030B50F4DC7
:102340000F4A297804464FF47A731068B3FBF1F111
:1023500081B0B0FBF1F000F049F858B9102C09D267
:10236000002221464FF0FF3000F016F8AC6000204C
:1023700001B030BD012001B030BD00BF0000002021
:102380000C00002022490A6860F30A2240F2FA5049
:1023900060F31F420A60704770B41D4D2C68C4F38F
:1023A0000224C4F10703052B2FBF0F2501259D40F3
:1023B0006D1E261D072E34BF0024E41E2940A140B7
:1023C000012303FA04F4641E224011430A010100B0
:1023D00003D4104B5A5470BC70470F4801F00F01E2
:1023E000014401F8042C70BC70470000401EB0F19D
:1023F000807F01D30120704708494860F02081F8B0
:10240000130D00228A60072008600020704700003A
:102410000CED00E000E400E018ED00E010E000E06A
:1024200081B0002000900B48416841F48041416038
:10243000416801F4804100910021009B00910268F5
:1024400042F080520260006800F0805000900098D6
:1024500001B070474038024062F30F2262F31F421E
:10246000401810F0030308D0C91A1FD3DB0748BF78
:1024700000F8012D28BF20F8022D130030B41446B7
:102480001546103928BF20E93C00FAD8490728BF73
:1024900020E90C0048BF40F8042D890028BF20F82F
:1024A000022D48BF00F8012D30BC7047C91818BF75
:1024B00000F8012DCB0728BF00F8012D7047000060
:1024C0002DE9F0410246086890FAA0F3B3FA83F5CB
:1024D0000F230124E84000F07A800E6804FA05F02A
:1024E000304007D108686D1CE840F6D10020BDE8F7
:1024F000F08100BF90FAA0F6B6FA86F7D1F804E0B2
:102500007E004FF0030C0CFA06FCBEF1010F6FEADF
:102510000C0C19D1D1F80880D2F808E00CEA0E0EA4
:1025200008FA06F848EA0E08C2F80880D2F80480D3
:10253000D1F80CE028EA00080EFB00FE4EEA08087D
:10254000C2F8048004E000BFBEF1020F3FF4E2AF26
:10255000D1F81080D2F80CE00CEA0E0E08FA06F85A
:1025600048EA0E08C2F80C80D1F804E0BEF1020F70
:1025700008D04F6810680CEA000007FA06F6064318
:102580001660AFE7D1F814E0082F0DD2D2F8208002
:10259000B80003FA00F728EA07070EFA00F040EA4D
:1025A000070EC2F820E0E4E7000A90FAA0F0B0FAC3
:1025B00080F0D2F82480800003FA00F728EA0707A9
:1025C0000EFA00F040EA070EC2F824E0D1E700203E
:1025D000BDE8F08170B504000D46164601D101201A
:1025E00070BD94F8490028B9002184F848102046AD
:1025F000FFF700F9206804F1080100F059FAA26819
:102600002068294600F085FA236BA268606831468D
:1026100000F09AFA2068A26850F8221041F00101F7
:1026200040F82210012084F84900002070BD00000D
:102630002DE9F04F81B0002700220023DFF8B081A0
:10264000DFF8B0914FF00F0A01240D68BC4004EA96
:10265000050EA64540F0C280032595404E686FEAFE
:10266000050C06F00305012D1CBF06F00306022E23
:102670000FD18568CE680CEA050596403543856024
:10268000456825EA04044D68C5F30015BD402C4398
:1026900044600C7904F00304032C1CD0C5688C68DA
:1026A0000CEA050594402543C5600D7905F0030546
:1026B000022D10D1FC0800EB840403F01C05D4F8B3
:1026C00020B00AFA05F62BEA060B0E6906FA05F5A4
:1026D00045EA0B05256204680CEA04050C7904F050
:1026E0000304944044EA050CC0F800C04C6814F49C
:1026F000403F73D0002400944FEA970CD9F8005063
:1027000045F48045C9F80050D9F8004004F48044ED
:102710000094009D384C54F82C6003F00C040AFA25
:1027200004F5AE43354DA84217D0354DA84216D01A
:10273000344DA84215D0344DA84214D0334DA84290
:1027400013D0334DA84212D0324DA84211D0324D91
:10275000A84214BF082507250CE000250AE0012542
:1027600008E0022506E0032504E0042502E0052533
:1027700000E0062505FA04F41F4D344345F82C40CB
:102780006FEA0E04D8F808C04D6804EA0C0CEE029B
:1027900048BF4EEA0C0CC8F808C0D8F80CC04E6808
:1027A00004EA0C0CB50248BF4EEA0C0CC8F80CC089
:1027B000D8F804C04E6804EA0C0CB50348BF4EEAD2
:1027C0000C0CC8F804C0D8F800C04D6804EA0C042A
:1027D000ED0348BF4EEA0404C8F800407F1C1B1DEF
:1027E000921C0F2F7FF630AF01B0BDE8F08F0000D4
:1027F000003C0140443802400838014000000240DB
:102800000004024000080240000C02400010024098
:102810000014024000180240001C024010B50400E1
:1028200001D1012010BD607920B90021217120461D
:10283000FFF731F801206071002010BD00207047C3
:102840000021016008498160C1600161416100218E
:1028500080F8231080F826108161FF2180F8241071
:1028600080F82810704700003D2800082DE9F0414D
:10287000069F06460C4615469846FFF7E1FFB460F2
:10288000F560C6F8108077613046BDE8F041FFF78B
:1028900083B8000014210170DFF8040070470000C5
:1028A0001C0000200022A0F85020A0F854204FF671
:1028B000FF71026BA0F85210A0F85610516808473B
:1028C00030B581B00446049D61630020A06584F8A2
:1028D000390084F86D0084F8910084F88D00E3627B
:1028E000012084F8382084F8920084F8930025634E
:1028F0002046296888472046FFF7D4FF2046FFF787
:1029000040FB002084F8700001B030BD70B490F836
:102910003820016890F8396090F83830D20082870A
:10292000F5180A7CD2004287F200C2874C7CAC4288
:10293000B8BFA31BA0F8402002EBC302A0F84220BE
:102940008A8AA0F84420C98AA0F8461070BC704753
:1029500010B5044682B0B4F856000090B4F8523076
:10296000B4F85420B4F85010204600F069F820B3B1
:10297000B4F85020B4F8481001208A4238BF0A4603
:10298000A4F84820B4F84A10B4F852208A4288BF0C
:102990000A46A4F84A20B4F84C10B4F854208A42ED
:1029A00038BF0A46A4F84C20B4F84E10B4F85620AC
:1029B0008A4288BF0A46A4F84E2084F88C0002B0F0
:1029C00010BD10B50446FFF7A1FF2168888AA4F85E
:1029D0004600C98AA4F8441010BDB0F84210B0F8FF
:1029E000442000238A4228BF531AB0F84420B0F88C
:1029F0004010A0F84830521AA0F84A200022B0F83F
:102A00004610A0F84C20A0F84E10A1E730B51446AF
:102A100081B0B0F84420049D511A4A1E002D03BF16
:102A2000D21A521C01210021009192B22146FFF7D7
:102A30004DFB01B030BD10B544690023A04710BD67
:102A400070B481B0B0F84E60049CB0F84C50B24203
:102A500002D2A54202D203E0A54216D2944214D279
:102A6000B0F84820B0F84A008142184605D28242A8
:102A700005D201B070BC01207047824205D201B07E
:102A800070BC8B428041C00F704701B070BC002009
:102A900070470000002180F826107047080014BF1E
:102AA0000A284FF6FF7070470022FFF7D9BC0000DC
:102AB000F0B40B6850F823205208520040F823204D
:102AC0008D68082D0CBF402600260C6850F8247035
:102AD0002E4A4B6817403E431E43CA680B69354374
:102AE00015434A691D43CB6915430A6A1D434B6A66
:102AF00015438A6A1D43CB6A15430A6B1D438B69D4
:102B0000C96B15431D430D4340F824500020F0BC11
:102B1000704730B40B684D688C6843EA0513CD6884
:102B200043EA04230C6943EA0543641E43EA045361
:102B30004C698969A41E43EA046300EB82000B43DD
:102B40004360002030BC704770B4B3F5804F15D19E
:102B500050F822500E4B0C684E681D4025438C687F
:102B60008B69C96845EA061545EA04251D4345EA0F
:102B7000014540F82250002070BC70476FF0704152
:102B800040F82210002070BC704700008000F0FF69
:102B90000000F0CF2DE9F04F0E2983B08146934617
:102BA0001D4600F0D3800F2940F0DB8000F05BF978
:102BB0006979DFF8280299F822600FF2482AC906DD
:102BC000090E81FB00203618F421484600F036F942
:102BD000F1B2484600F032F9AF79F521484600F0ED
:102BE0002DF9FF00F9B2484600F028F9F6214846D1
:102BF00000F024F906F13501C9B2484600F01EF98B
:102C0000F721484600F01AF907F11401C9B2484605
:102C100000F014F906F00F01484600F00FF93606EF
:102C2000360F46F01001484600F008F907F00F0192
:102C300041F06001484600F001F93F063F0F47F0C0
:102C40007001484600F0FAF82C792D68E406240E4D
:102C5000002600270020002C8DF80000804668DD4B
:102C60000121AB5D0022B9400B4218BF0122A81917
:102C700043780B4218BF42F0020283780B4218BF20
:102C800042F00402C3780B4218BF42F008020379F5
:102C90000B4218BF42F0100243790B4218BF42F0BA
:102CA000200283790B4218BF42F04002C3790B42E5
:102CB00018BF42F080020836F6B2A02E00F02F8036
:102CC00002F00F000AEB400012090AEB4201027801
:102CD0008DF8042040788DF8050048460A788DF874
:102CE000062001AA49788DF80710042100F0B4F8F5
:102CF0001FFA88F01338DFF8E83080FB0323DA107E
:102D000002EBD27202EB8201B0EB810000F00B808B
:102D100008F101081FFA88F0A042A1DB09E07F1C3E
:102D20000026FFB2CCE76A460121484600F094F83D
:102D3000EEE7ABF1010B5FFA8BF0002888D1484633
:102D400000F098F8012003B0BDE8F08F00F08BF898
:102D50008121484600F072F85946484600F075F85F
:102D6000EDE7002003B0BDE8F08F000070B5044629
:102D70000E461546FFF70EFF30BB093E042E24D841
:102D8000DFE806F003090E23180000BF25A1204646
:102D9000FEF7BAFD18E02046FEF7BBFD114905E03D
:102DA000002D0CBF0FF240010FF24401204600F04D
:102DB00069F809E055B900BF0EA1204600F062F89D
:102DC0002068807C84F82200012070BD0BA1204681
:102DD00000F058F82068C07CF4E7000056555555BF
:102DE00067666666043100081815AD19FF0000001B
:102DF0001819FF001815C0160419FF001815C01681
:102E00000219FF000000F0000F00FF0000F0F0F0DA
:102E10000FF0FFF0000FF00F0F0FFF0F00FFF0FF9C
:102E20000FFFFFFF00010A0A14C80A3C00127A00D3
:102E300000041E5014142500A000A00010B50A467E
:102E4000C46800231521A04710BD10B50A46C46808
:102E500000231621A04710BD10B513460A46C468CA
:102E60001721A04710BD10B5C46800230022182107
:102E7000A04710BD10B5C468002300221921A04747
:102E800010BD000070B582B004460D460AE000BFD8
:102E900015F8010B8DF8000000230246E668204675
:102EA000B04700BF15F8011BA1F11502012AEFD9A7
:102EB000921E07D0521E012A0FD9E63A10D002B056
:102EC00070BD00BF15F8011B8DF800106B46E66859
:102ED000012217212046B047E4E700230022DDE766
:102EE00015F8010B8DF80000024629212046FFF756
:102EF000A2FDD7E7F0B504460F46A7F11400052858
:102F000081B015461E461BD8DFE800F01203030E01
:102F100012120021204600F017F82946204600F042
:102F20001AF8012001B0F0BD0121204600F00CF894
:102F30002046246933462A463946A04701B0F0BDF1
:102F4000002001B0F0BD000010B50A46046900235E
:102F50002021A04710BD12B581B0046901AB012248
:102F60001721A04702B010BD00B528392D2981B026
:102F700038D8DFE801F0291C1717172937373737FA
:102F800037373737373737373737373737372929ED
:102F90002929292929292929222C292929292929A5
:102FA0002929292900BF00BF012001B000BD10461A
:102FB000FFF726F9012001B000BD002A14BF274900
:102FC0004FF0C04126480160012001B000BD2548F6
:102FD00012B94FF08061F6E74FF480620260012081
:102FE00001B000BD012180F82710012001B000BD13
:102FF00030B5143981B029D0C91E07D0491E012926
:1030000024D9083925D0002001B030BD10001DD0D2
:1030100012F00300124905D00C6813F8015B25700B
:10302000401EF9D1920811D0086813F8014B0470C2
:10303000521E0C6813F8010B2070086813F8014B3E
:1030400004700C6813F8010B2070EDD1012001B061
:1030500030BD4A21FFF7EFFCF8E7000000000160F7
:10306000400E0020180002402DE9F04181B002F02E
:103070000707012690F89240BE404FF0000CE6464C
:10308000012CD8BFB44618BFB6464FF6F8752A4093
:1030900005682E7CD0F83480079C724392B242447B
:1030A00011446CB90C785B1E4CEA040498B28EEAA9
:1030B0000404002801F8014BF4D101B0BDE8F0810F
:1030C0000C787F1C4CEA040407F007075B1E8EEAAD
:1030D00004043A000C700BD1448F214490F89240C4
:1030E000012CD8BF4FF0010C06D04FF0010E03E0C9
:1030F0004FEA4C0C4FEA4E0E9AB2002AE0D101B0D2
:10310000BDE8F0811815E2FE0A15E9152B15241506
:1031100081159615A415A615C415A115D115D5159B
:103120008415C8151015DA15F4152515F6155A1558
:10313000F5150015F7159F15F8158915401550154B
:10314000901500158415F1159F15F2150015F3154E
:10315000A015AC19FF00000030B4002412E050F8B4
:10316000043BDA0744BF4B445B1E091F042943F8A4
:10317000044BFAD21A468D0744BF1C80921CCB0721
:1031800048BF147050F8041B0029E8D130BC7047C8
:1031900010B500F013F8020000230024E443106887
:1031A000A04203D011000220ABBE13605068A042C1
:1031B00003D0111D0220ABBE536010BD0048704704
:1031C0001000002010B5034A7A440832024C7C44B7
:1031D000A41D03E0400000006000000004E011684E
:1031E000101D114488470246A242F8D110BD0000CC
:1031F0004EF68851CEF20001086840F47000086075
:10320000BFF34F8FBFF36F8F4FF00170E1EE100AE5
:103210007047000045FFFFFF280E00001C00002043
:1032200000000000B3EFFFFF1C0000007000000072
:10323000000000200000000000F00DF8002801D080
:10324000FFF7C0FFAFF300800020AFF30080FDF771
:1032500069FF00F002F80120704700F001B800009B
:103260000746384600F002F8FBE7000080B5FFF79C
:103270008FFF024A11001820ABBEFBE726000200B8
:103280000548014603B4684680F30988AFF300801F
:10329000FFF7AEFFFFF7D0FFA5EDF5FE0100000040
:1032A00000000000100000000024F400FFFFFFFFFA
:1032B000FFFFFFFFBF000000FEE7FEE7FEE7FEE7BF
:1032C000FEE770477047704700F000B80248426858
:1032D0000178511841607047000000200148804784
:1032E00001480047ED3200088132000802490868B1
:1032F00040F470000860704788ED00E0C3290008C2
:10330000DB2900080D2A0008FFF7FEBFFFF7FEBF0C
:10331000FFF7FEBFFFF7FEBFFFF7FEBFFFF7FEBFE1
:10332000FFF7FEBFFFF7FEBFFFF7FEBFFFF7FEBFD1
:10333000FFF7FEBFFFF7FEBFFFF7FEBFFFF7FEBFC1
:10334000FFF7FEBFFFF7FEBFFFF7FEBFFFF7FEBFB1
:10335000FFF7FEBFFFF7FEBFFFF7FEBFFFF7FEBFA1
:10336000FFF7FEBFFFF7FEBFFFF7FEBFFFF7FEBF91
:10337000FFF7FEBFFFF7FEBFFFF7FEBFFFF7FEBF81
:10338000FFF7FEBFFFF7FEBFFFF7FEBFFFF7FEBF71
:10339000FFF7FEBFFFF7FEBFFFF7FEBFFFF7FEBF61
:1033A000FFF7FEBFFFF7FEBFFFF7FEBFFFF7FEBF51
:1033B000FFF7FEBFFFF7FEBFFFF7FEBFFFF7FEBF41
:1033C000FFF7FEBFFFF7FEBFFFF7FEBFFFF7FEBF31
:1033D000FFF7FEBFFFF7FEBFFFF7FEBFFFF7FEBF21
:1033E000FFF7FEBFFFF7FEBFFFF7FEBFFFF7FEBF11
:1033F000FFF7FEBFFFF7FEBFFFF7FEBFFFF7FEBF01
:10340000FFF7FEBFFFF7FEBFFFF7FEBFFFF7FEBFF0
:10341000FFF7FEBFFFF7FEBFFFF7FEBFFFF7FEBFE0
:10342000FFF7FEBFFFF7FEBFFFF7FEBFFFF7FEBFD0
:10343000FFF7FEBFFFF7FEBFFFF7FEBFFFF7FEBFC0
:0C344000FFF7FEBFFFF7FEBFFFF7FEBF67
:04000005080032813C
:00000001FF
